{
  "_format": "hh-sol-artifact-1",
  "contractName": "TradableSettings",
  "sourceName": "contracts/TradableSettings.sol",
  "abi": [
    {
      "inputs": [
        {
          "internalType": "address",
          "name": "_protocolRewardVault",
          "type": "address"
        },
        {
          "internalType": "address",
          "name": "_liquidityProviderVault",
          "type": "address"
        }
      ],
      "stateMutability": "nonpayable",
      "type": "constructor"
    },
    {
      "anonymous": false,
      "inputs": [
        {
          "indexed": true,
          "internalType": "address",
          "name": "previousOwner",
          "type": "address"
        },
        {
          "indexed": true,
          "internalType": "address",
          "name": "newOwner",
          "type": "address"
        }
      ],
      "name": "OwnershipTransferStarted",
      "type": "event"
    },
    {
      "anonymous": false,
      "inputs": [
        {
          "indexed": true,
          "internalType": "address",
          "name": "previousOwner",
          "type": "address"
        },
        {
          "indexed": true,
          "internalType": "address",
          "name": "newOwner",
          "type": "address"
        }
      ],
      "name": "OwnershipTransferred",
      "type": "event"
    },
    {
      "anonymous": false,
      "inputs": [
        {
          "indexed": false,
          "internalType": "address",
          "name": "token",
          "type": "address"
        },
        {
          "indexed": false,
          "internalType": "uint8",
          "name": "decimals",
          "type": "uint8"
        },
        {
          "indexed": false,
          "internalType": "bool",
          "name": "isActive",
          "type": "bool"
        }
      ],
      "name": "TokenAdded",
      "type": "event"
    },
    {
      "inputs": [],
      "name": "acceptOwnership",
      "outputs": [],
      "stateMutability": "nonpayable",
      "type": "function"
    },
    {
      "inputs": [
        {
          "internalType": "address",
          "name": "token",
          "type": "address"
        },
        {
          "internalType": "address",
          "name": "vault",
          "type": "address"
        }
      ],
      "name": "activateAcceptedToken",
      "outputs": [],
      "stateMutability": "nonpayable",
      "type": "function"
    },
    {
      "inputs": [
        {
          "internalType": "uint256",
          "name": "price",
          "type": "uint256"
        }
      ],
      "name": "activateMarketMakerTier",
      "outputs": [],
      "stateMutability": "nonpayable",
      "type": "function"
    },
    {
      "inputs": [
        {
          "internalType": "uint256",
          "name": "price",
          "type": "uint256"
        }
      ],
      "name": "activateTradingFeeTier",
      "outputs": [],
      "stateMutability": "nonpayable",
      "type": "function"
    },
    {
      "inputs": [
        {
          "internalType": "address",
          "name": "_token",
          "type": "address"
        },
        {
          "internalType": "uint8",
          "name": "_decimals",
          "type": "uint8"
        },
        {
          "internalType": "bool",
          "name": "_isActive",
          "type": "bool"
        },
        {
          "internalType": "address",
          "name": "vault",
          "type": "address"
        }
      ],
      "name": "addAcceptedToken",
      "outputs": [],
      "stateMutability": "nonpayable",
      "type": "function"
    },
    {
      "inputs": [
        {
          "internalType": "address",
          "name": "caller",
          "type": "address"
        }
      ],
      "name": "addMessageAdapterCaller",
      "outputs": [],
      "stateMutability": "nonpayable",
      "type": "function"
    },
    {
      "inputs": [
        {
          "internalType": "address",
          "name": "vault",
          "type": "address"
        },
        {
          "internalType": "uint16",
          "name": "chainId",
          "type": "uint16"
        }
      ],
      "name": "addSideVault",
      "outputs": [],
      "stateMutability": "nonpayable",
      "type": "function"
    },
    {
      "inputs": [
        {
          "internalType": "address",
          "name": "token",
          "type": "address"
        },
        {
          "internalType": "address",
          "name": "vault",
          "type": "address"
        }
      ],
      "name": "deactivateAcceptedToken",
      "outputs": [],
      "stateMutability": "nonpayable",
      "type": "function"
    },
    {
      "inputs": [
        {
          "internalType": "uint256",
          "name": "price",
          "type": "uint256"
        }
      ],
      "name": "deactivateMarketMakerTier",
      "outputs": [],
      "stateMutability": "nonpayable",
      "type": "function"
    },
    {
      "inputs": [
        {
          "internalType": "uint256",
          "name": "price",
          "type": "uint256"
        }
      ],
      "name": "deactivateTradingFeeTier",
      "outputs": [],
      "stateMutability": "nonpayable",
      "type": "function"
    },
    {
      "inputs": [
        {
          "internalType": "address",
          "name": "token",
          "type": "address"
        },
        {
          "internalType": "address",
          "name": "vault",
          "type": "address"
        }
      ],
      "name": "deleteAcceptedToken",
      "outputs": [],
      "stateMutability": "nonpayable",
      "type": "function"
    },
    {
      "inputs": [
        {
          "internalType": "address",
          "name": "vault",
          "type": "address"
        }
      ],
      "name": "disableSideVault",
      "outputs": [],
      "stateMutability": "nonpayable",
      "type": "function"
    },
    {
      "inputs": [
        {
          "internalType": "address",
          "name": "vault",
          "type": "address"
        }
      ],
      "name": "enableSideVault",
      "outputs": [],
      "stateMutability": "nonpayable",
      "type": "function"
    },
    {
      "inputs": [
        {
          "internalType": "address",
          "name": "token",
          "type": "address"
        }
      ],
      "name": "getAcceptedTokenInfo",
      "outputs": [
        {
          "components": [
            {
              "internalType": "address",
              "name": "token",
              "type": "address"
            },
            {
              "internalType": "uint8",
              "name": "decimals",
              "type": "uint8"
            },
            {
              "internalType": "bool",
              "name": "isActive",
              "type": "bool"
            }
          ],
          "internalType": "struct TradableSettings.AcceptedToken",
          "name": "",
          "type": "tuple"
        }
      ],
      "stateMutability": "view",
      "type": "function"
    },
    {
      "inputs": [],
      "name": "getAcceptedTokensList",
      "outputs": [
        {
          "internalType": "address[]",
          "name": "",
          "type": "address[]"
        }
      ],
      "stateMutability": "view",
      "type": "function"
    },
    {
      "inputs": [],
      "name": "getAdminUser",
      "outputs": [
        {
          "internalType": "address",
          "name": "",
          "type": "address"
        }
      ],
      "stateMutability": "view",
      "type": "function"
    },
    {
      "inputs": [],
      "name": "getDefaultDecimal",
      "outputs": [
        {
          "internalType": "uint8",
          "name": "",
          "type": "uint8"
        }
      ],
      "stateMutability": "view",
      "type": "function"
    },
    {
      "inputs": [
        {
          "internalType": "enum TradableSettings.UserType",
          "name": "user",
          "type": "uint8"
        }
      ],
      "name": "getFeeSettings",
      "outputs": [
        {
          "components": [
            {
              "internalType": "uint256",
              "name": "withdrawalFee",
              "type": "uint256"
            },
            {
              "internalType": "uint16",
              "name": "tradeInterestFee",
              "type": "uint16"
            }
          ],
          "internalType": "struct TradableSettings.FeeSettings",
          "name": "",
          "type": "tuple"
        }
      ],
      "stateMutability": "view",
      "type": "function"
    },
    {
      "inputs": [],
      "name": "getLiquidityProviderVault",
      "outputs": [
        {
          "internalType": "address",
          "name": "",
          "type": "address"
        }
      ],
      "stateMutability": "view",
      "type": "function"
    },
    {
      "inputs": [],
      "name": "getMarketMakerMarginSettings",
      "outputs": [
        {
          "components": [
            {
              "internalType": "uint64",
              "name": "minMarginDeposit",
              "type": "uint64"
            },
            {
              "internalType": "uint64",
              "name": "liquidationPeriod",
              "type": "uint64"
            },
            {
              "internalType": "uint64",
              "name": "protocolLiquidationPercentage",
              "type": "uint64"
            }
          ],
          "internalType": "struct TradableSettings.MarketMakerMarginSettings",
          "name": "",
          "type": "tuple"
        }
      ],
      "stateMutability": "view",
      "type": "function"
    },
    {
      "inputs": [
        {
          "internalType": "uint256",
          "name": "price",
          "type": "uint256"
        }
      ],
      "name": "getMarketMakerTier",
      "outputs": [
        {
          "components": [
            {
              "internalType": "uint256",
              "name": "price",
              "type": "uint256"
            },
            {
              "internalType": "uint16",
              "name": "rewardPercentage",
              "type": "uint16"
            },
            {
              "internalType": "uint16",
              "name": "collateralPercentage",
              "type": "uint16"
            },
            {
              "internalType": "uint256",
              "name": "volume",
              "type": "uint256"
            },
            {
              "internalType": "uint256",
              "name": "completionDuration",
              "type": "uint256"
            },
            {
              "internalType": "bool",
              "name": "isActive",
              "type": "bool"
            }
          ],
          "internalType": "struct TradableSettings.MarketMakingTier",
          "name": "",
          "type": "tuple"
        }
      ],
      "stateMutability": "view",
      "type": "function"
    },
    {
      "inputs": [],
      "name": "getMarketMakerTierList",
      "outputs": [
        {
          "internalType": "uint256[]",
          "name": "",
          "type": "uint256[]"
        }
      ],
      "stateMutability": "view",
      "type": "function"
    },
    {
      "inputs": [],
      "name": "getMessageAdapter",
      "outputs": [
        {
          "internalType": "address",
          "name": "",
          "type": "address"
        }
      ],
      "stateMutability": "view",
      "type": "function"
    },
    {
      "inputs": [],
      "name": "getPendingReward",
      "outputs": [
        {
          "components": [
            {
              "internalType": "uint256",
              "name": "pendingLiquidityProviderRewards",
              "type": "uint256"
            },
            {
              "internalType": "uint256",
              "name": "pendingProtocolRewards",
              "type": "uint256"
            }
          ],
          "internalType": "struct TradableSettings.PendingRewards",
          "name": "",
          "type": "tuple"
        }
      ],
      "stateMutability": "view",
      "type": "function"
    },
    {
      "inputs": [],
      "name": "getProtocolRewardVault",
      "outputs": [
        {
          "internalType": "address",
          "name": "",
          "type": "address"
        }
      ],
      "stateMutability": "view",
      "type": "function"
    },
    {
      "inputs": [
        {
          "internalType": "address",
          "name": "vault",
          "type": "address"
        }
      ],
      "name": "getSideVault",
      "outputs": [
        {
          "components": [
            {
              "internalType": "address",
              "name": "vault",
              "type": "address"
            },
            {
              "internalType": "uint16",
              "name": "chainId",
              "type": "uint16"
            },
            {
              "internalType": "bool",
              "name": "isApproved",
              "type": "bool"
            }
          ],
          "internalType": "struct TradableSettings.SideVault",
          "name": "",
          "type": "tuple"
        }
      ],
      "stateMutability": "view",
      "type": "function"
    },
    {
      "inputs": [],
      "name": "getStakingSettings",
      "outputs": [
        {
          "components": [
            {
              "internalType": "uint64",
              "name": "minStakingDeposit",
              "type": "uint64"
            },
            {
              "internalType": "uint64",
              "name": "minStakingWithdrawal",
              "type": "uint64"
            },
            {
              "internalType": "uint64",
              "name": "vaultCap",
              "type": "uint64"
            },
            {
              "internalType": "uint8",
              "name": "baseDecimal",
              "type": "uint8"
            },
            {
              "internalType": "uint32",
              "name": "stakingPeriod",
              "type": "uint32"
            },
            {
              "internalType": "bool",
              "name": "canUsersStake",
              "type": "bool"
            }
          ],
          "internalType": "struct TradableSettings.StakingSettings",
          "name": "",
          "type": "tuple"
        }
      ],
      "stateMutability": "view",
      "type": "function"
    },
    {
      "inputs": [
        {
          "internalType": "uint256",
          "name": "price",
          "type": "uint256"
        }
      ],
      "name": "getTradingFeeTier",
      "outputs": [
        {
          "components": [
            {
              "internalType": "uint256",
              "name": "price",
              "type": "uint256"
            },
            {
              "internalType": "uint16",
              "name": "limitOrderFee",
              "type": "uint16"
            },
            {
              "internalType": "uint16",
              "name": "marketOrderFee",
              "type": "uint16"
            },
            {
              "internalType": "bool",
              "name": "isActive",
              "type": "bool"
            }
          ],
          "internalType": "struct TradableSettings.TradingFeeTier",
          "name": "",
          "type": "tuple"
        }
      ],
      "stateMutability": "view",
      "type": "function"
    },
    {
      "inputs": [],
      "name": "getTradingFeeTierList",
      "outputs": [
        {
          "internalType": "uint256[]",
          "name": "",
          "type": "uint256[]"
        }
      ],
      "stateMutability": "view",
      "type": "function"
    },
    {
      "inputs": [],
      "name": "getUserMarginSettings",
      "outputs": [
        {
          "components": [
            {
              "internalType": "uint64",
              "name": "minMarginDeposit",
              "type": "uint64"
            },
            {
              "internalType": "uint64",
              "name": "minMarginWithdrawal",
              "type": "uint64"
            }
          ],
          "internalType": "struct TradableSettings.UserMarginSettings",
          "name": "",
          "type": "tuple"
        }
      ],
      "stateMutability": "view",
      "type": "function"
    },
    {
      "inputs": [],
      "name": "liquidityProviderPercentage",
      "outputs": [
        {
          "internalType": "uint16",
          "name": "",
          "type": "uint16"
        }
      ],
      "stateMutability": "view",
      "type": "function"
    },
    {
      "inputs": [],
      "name": "owner",
      "outputs": [
        {
          "internalType": "address",
          "name": "",
          "type": "address"
        }
      ],
      "stateMutability": "view",
      "type": "function"
    },
    {
      "inputs": [],
      "name": "pendingOwner",
      "outputs": [
        {
          "internalType": "address",
          "name": "",
          "type": "address"
        }
      ],
      "stateMutability": "view",
      "type": "function"
    },
    {
      "inputs": [],
      "name": "protocolRewardPercentage",
      "outputs": [
        {
          "internalType": "uint16",
          "name": "",
          "type": "uint16"
        }
      ],
      "stateMutability": "view",
      "type": "function"
    },
    {
      "inputs": [],
      "name": "protocolRewardPercentageDenominator",
      "outputs": [
        {
          "internalType": "uint16",
          "name": "",
          "type": "uint16"
        }
      ],
      "stateMutability": "view",
      "type": "function"
    },
    {
      "inputs": [
        {
          "internalType": "address",
          "name": "caller",
          "type": "address"
        }
      ],
      "name": "removeMessageAdapterCaller",
      "outputs": [],
      "stateMutability": "nonpayable",
      "type": "function"
    },
    {
      "inputs": [],
      "name": "renounceOwnership",
      "outputs": [],
      "stateMutability": "nonpayable",
      "type": "function"
    },
    {
      "inputs": [
        {
          "internalType": "uint8",
          "name": "amount",
          "type": "uint8"
        }
      ],
      "name": "setDefaultDecimal",
      "outputs": [],
      "stateMutability": "nonpayable",
      "type": "function"
    },
    {
      "inputs": [
        {
          "internalType": "enum TradableSettings.UserType",
          "name": "user",
          "type": "uint8"
        },
        {
          "internalType": "uint256",
          "name": "withdrawalFee",
          "type": "uint256"
        },
        {
          "internalType": "uint16",
          "name": "tradeInterestFee",
          "type": "uint16"
        }
      ],
      "name": "setFeeSettings",
      "outputs": [],
      "stateMutability": "nonpayable",
      "type": "function"
    },
    {
      "inputs": [
        {
          "internalType": "address",
          "name": "newLiquidityProviderVault",
          "type": "address"
        }
      ],
      "name": "setLiquidityProviderVault",
      "outputs": [],
      "stateMutability": "nonpayable",
      "type": "function"
    },
    {
      "inputs": [
        {
          "internalType": "uint64",
          "name": "minMarginDeposit",
          "type": "uint64"
        },
        {
          "internalType": "uint64",
          "name": "liquidationPeriod",
          "type": "uint64"
        },
        {
          "internalType": "uint64",
          "name": "protocolLiquidationPercentage",
          "type": "uint64"
        }
      ],
      "name": "setMarketMakerMarginSettings",
      "outputs": [],
      "stateMutability": "nonpayable",
      "type": "function"
    },
    {
      "inputs": [
        {
          "internalType": "uint256",
          "name": "price",
          "type": "uint256"
        },
        {
          "internalType": "uint16",
          "name": "rewardPercentage",
          "type": "uint16"
        },
        {
          "internalType": "uint16",
          "name": "collateralPercentage",
          "type": "uint16"
        },
        {
          "internalType": "uint256",
          "name": "volume",
          "type": "uint256"
        },
        {
          "internalType": "uint256",
          "name": "completionDuration",
          "type": "uint256"
        }
      ],
      "name": "setMarketMakerTier",
      "outputs": [],
      "stateMutability": "nonpayable",
      "type": "function"
    },
    {
      "inputs": [
        {
          "internalType": "address",
          "name": "newMessageAdapter",
          "type": "address"
        }
      ],
      "name": "setMessageAdapter",
      "outputs": [],
      "stateMutability": "nonpayable",
      "type": "function"
    },
    {
      "inputs": [
        {
          "internalType": "uint16",
          "name": "_protocolRewardPercentage",
          "type": "uint16"
        },
        {
          "internalType": "uint16",
          "name": "_protocolRewardPercentageDenominator",
          "type": "uint16"
        }
      ],
      "name": "setProtocolRewardSettings",
      "outputs": [],
      "stateMutability": "nonpayable",
      "type": "function"
    },
    {
      "inputs": [
        {
          "internalType": "address",
          "name": "newProtocolRewardVault",
          "type": "address"
        }
      ],
      "name": "setProtocolRewardVault",
      "outputs": [],
      "stateMutability": "nonpayable",
      "type": "function"
    },
    {
      "inputs": [
        {
          "internalType": "address",
          "name": "rewardProvider",
          "type": "address"
        }
      ],
      "name": "setRewardProvider",
      "outputs": [],
      "stateMutability": "nonpayable",
      "type": "function"
    },
    {
      "inputs": [
        {
          "internalType": "address",
          "name": "vault",
          "type": "address"
        },
        {
          "internalType": "address",
          "name": "newDestinationBaseMarginVault",
          "type": "address"
        },
        {
          "internalType": "address",
          "name": "newDestinationBaseStakingVault",
          "type": "address"
        },
        {
          "internalType": "address",
          "name": "newMarginHandler",
          "type": "address"
        },
        {
          "internalType": "address",
          "name": "newDestinationMessageAdapter",
          "type": "address"
        },
        {
          "internalType": "uint16",
          "name": "newDestinationChainId",
          "type": "uint16"
        }
      ],
      "name": "setSideVaultDestinationConfiguration",
      "outputs": [],
      "stateMutability": "nonpayable",
      "type": "function"
    },
    {
      "inputs": [
        {
          "internalType": "uint64",
          "name": "minStakingDeposit",
          "type": "uint64"
        },
        {
          "internalType": "uint64",
          "name": "minStakingWithdrawal",
          "type": "uint64"
        },
        {
          "internalType": "uint64",
          "name": "vaultCap",
          "type": "uint64"
        },
        {
          "internalType": "uint8",
          "name": "baseDecimal",
          "type": "uint8"
        },
        {
          "internalType": "uint32",
          "name": "stakingPeriod",
          "type": "uint32"
        },
        {
          "internalType": "bool",
          "name": "canUsersStake",
          "type": "bool"
        }
      ],
      "name": "setStakingSettings",
      "outputs": [],
      "stateMutability": "nonpayable",
      "type": "function"
    },
    {
      "inputs": [
        {
          "internalType": "uint256",
          "name": "price",
          "type": "uint256"
        },
        {
          "internalType": "uint16",
          "name": "limitOrderFee",
          "type": "uint16"
        },
        {
          "internalType": "uint16",
          "name": "marketOrderFee",
          "type": "uint16"
        }
      ],
      "name": "setTradingFeeTier",
      "outputs": [],
      "stateMutability": "nonpayable",
      "type": "function"
    },
    {
      "inputs": [
        {
          "internalType": "uint64",
          "name": "minMarginDeposit",
          "type": "uint64"
        },
        {
          "internalType": "uint64",
          "name": "minMarginWithdrawal",
          "type": "uint64"
        }
      ],
      "name": "setUserMarginSettings",
      "outputs": [],
      "stateMutability": "nonpayable",
      "type": "function"
    },
    {
      "inputs": [
        {
          "internalType": "uint8",
          "name": "amount",
          "type": "uint8"
        },
        {
          "internalType": "address",
          "name": "dstVault",
          "type": "address"
        }
      ],
      "name": "setVaultDefaultDecimal",
      "outputs": [],
      "stateMutability": "nonpayable",
      "type": "function"
    },
    {
      "inputs": [
        {
          "internalType": "uint64",
          "name": "minStakingDeposit",
          "type": "uint64"
        },
        {
          "internalType": "uint64",
          "name": "minStakingWithdrawal",
          "type": "uint64"
        },
        {
          "internalType": "bool",
          "name": "canUsersStake",
          "type": "bool"
        },
        {
          "internalType": "address",
          "name": "dstVault",
          "type": "address"
        }
      ],
      "name": "setVaultStakingSettings",
      "outputs": [],
      "stateMutability": "nonpayable",
      "type": "function"
    },
    {
      "inputs": [
        {
          "internalType": "uint64",
          "name": "minMarginDeposit",
          "type": "uint64"
        },
        {
          "internalType": "uint64",
          "name": "minMarginWithdrawal",
          "type": "uint64"
        },
        {
          "internalType": "address",
          "name": "dstVault",
          "type": "address"
        }
      ],
      "name": "setVaultUserMarginSettings",
      "outputs": [],
      "stateMutability": "nonpayable",
      "type": "function"
    },
    {
      "inputs": [
        {
          "internalType": "address",
          "name": "token",
          "type": "address"
        }
      ],
      "name": "tokenExists",
      "outputs": [
        {
          "internalType": "bool",
          "name": "",
          "type": "bool"
        }
      ],
      "stateMutability": "view",
      "type": "function"
    },
    {
      "inputs": [
        {
          "internalType": "address",
          "name": "newOwner",
          "type": "address"
        }
      ],
      "name": "transferOwnership",
      "outputs": [],
      "stateMutability": "nonpayable",
      "type": "function"
    },
    {
      "inputs": [
        {
          "components": [
            {
              "internalType": "uint256",
              "name": "pendingLiquidityProviderRewards",
              "type": "uint256"
            },
            {
              "internalType": "uint256",
              "name": "pendingProtocolRewards",
              "type": "uint256"
            }
          ],
          "internalType": "struct TradableSettings.PendingRewards",
          "name": "newPendingRewards",
          "type": "tuple"
        }
      ],
      "name": "updatePendingReward",
      "outputs": [],
      "stateMutability": "nonpayable",
      "type": "function"
    },
    {
      "inputs": [
        {
          "internalType": "address",
          "name": "vault",
          "type": "address"
        }
      ],
      "name": "vaultExists",
      "outputs": [
        {
          "internalType": "bool",
          "name": "",
          "type": "bool"
        }
      ],
      "stateMutability": "view",
      "type": "function"
    }
  ],
  "bytecode": "0x60806040523480156200001157600080fd5b506040516200441d3803806200441d833981016040819052620000349162000106565b6200003f336200007b565b60078054610100600160a81b0319166101006001600160a01b0394851602179055600880546001600160a01b031916919092161790556200013e565b600180546001600160a01b0319169055620000968162000099565b50565b600080546001600160a01b038381166001600160a01b0319831681178455604051919092169283917f8be0079c531659141344cd1fd0a4f28419497f9722a3daafe3b4186f6b6457e09190a35050565b80516001600160a01b03811681146200010157600080fd5b919050565b600080604083850312156200011a57600080fd5b6200012583620000e9565b91506200013560208401620000e9565b90509250929050565b6142cf806200014e6000396000f3fe608060405234801561001057600080fd5b50600436106103825760003560e01c80638da5cb5b116101de578063ceea65271161010f578063e9f3ec7b116100ad578063fc9a086a1161007c578063fc9a086a14610a6c578063fd3f903214610a7f578063fe34273e14610a92578063fe49548d14610aa557600080fd5b8063e9f3ec7b146109ee578063ee30922a14610a01578063f2fde38b14610a44578063fb50ec9e14610a5757600080fd5b8063dbc07675116100e9578063dbc0767514610927578063df160d76146109b5578063dfd7ec23146109ca578063e30c3978146109dd57600080fd5b8063ceea6527146108c1578063d1510992146108d4578063d513cc441461079557600080fd5b8063ab0772e41161017c578063bd01f06111610156578063bd01f06114610877578063c30025481461088a578063c6c3a2341461089d578063c95c544b146108b057600080fd5b8063ab0772e41461083e578063af7e6b7714610851578063b33f78ca1461086457600080fd5b8063a191aacd116101b8578063a191aacd146107fd578063a2d8c9da14610810578063a9778eba14610823578063aaccc3061461083657600080fd5b80638da5cb5b14610795578063953c9c0c146107a657806398dfc96a146107ea57600080fd5b80635229d3c0116102b85780637ae530911161025657806380ee3e431161023057806380ee3e431461074757806387cd1e031461075c5780638a12a6801461076f5780638c3dd7c81461078257600080fd5b80637ae53091146106bb5780637caddd10146106ce57806380e836cd1461071f57600080fd5b8063659fc14b11610292578063659fc14b1461062b5780636a6aa98314610696578063715018a6146106ab57806379ba5097146106b357600080fd5b80635229d3c0146105d05780635a23248d146105d85780635e2e17801461061657600080fd5b80631b607c261161032557806320658c05116102ff57806320658c051461055357806340e0769c1461058557806344e5fb1d146105985780634cd0fe5d146105bd57600080fd5b80631b607c26146104235780631b9670ba1461052d5780631ba49a2a1461054057600080fd5b80630a7c8475116103615780630a7c8475146103c2578063112e159c146103d557806311f3a368146103e857806316d37595146103fb57600080fd5b80620d5eed1461038757806301a6cdf91461039c57806306c7fc43146103af575b600080fd5b61039a610395366004613ada565b610ab8565b005b61039a6103aa366004613b2d565b610d9c565b61039a6103bd366004613b4f565b610e16565b61039a6103d0366004613b2d565b610edf565b61039a6103e3366004613b68565b610fe8565b61039a6103f6366004613b9b565b61114f565b61040e610409366004613b2d565b6112d8565b60405190151581526020015b60405180910390f35b6104c76040805160c081018252600080825260208201819052918101829052606081018290526080810182905260a0810191909152506040805160c0810182526004546001600160401b038082168352600160401b820481166020840152600160801b8204169282019290925260ff600160c01b83048116606083015263ffffffff600160c81b8404166080830152600160e81b909204909116151560a082015290565b60405161041a9190600060c0820190506001600160401b038084511683528060208501511660208401528060408501511660408401525060ff606084015116606083015263ffffffff608084015116608083015260a0830151151560a083015292915050565b61039a61053b366004613b2d565b611341565b61039a61054e366004613b2d565b6113b5565b610566610561366004613bd4565b61146a565b604080518251815260209283015161ffff16928101929092520161041a565b61039a610593366004613bef565b6114d9565b6008546001600160a01b03165b6040516001600160a01b03909116815260200161041a565b61039a6105cb366004613b9b565b6117d1565b6105a5611a3b565b60408051808201825260008082526020918201528151808301835260055480825260065491830191825283519081529051918101919091520161041a565b61061e611a82565b60405161041a9190613c3d565b61063e610639366004613b4f565b611ada565b60405161041a9190600060c08201905082518252602083015161ffff80821660208501528060408601511660408501525050606083015160608301526080830151608083015260a0830151151560a083015292915050565b60075460405160ff909116815260200161041a565b61039a611b1b565b61039a611b2f565b61039a6106c9366004613c81565b611ba9565b6106e16106dc366004613b4f565b611c48565b604080518251815260208084015161ffff9081169183019190915283830151169181019190915260609182015115159181019190915260800161041a565b60095461073490600160c01b900461ffff1681565b60405161ffff909116815260200161041a565b60095461073490600160b01b900461ffff1681565b61039a61076a366004613ccb565b611c75565b61039a61077d366004613b9b565b611d8d565b61039a610790366004613b2d565b611ef4565b6000546001600160a01b03166105a5565b6107b96107b4366004613b2d565b611f68565b6040805182516001600160a01b0316815260208084015161ffff16908201529181015115159082015260600161041a565b61039a6107f8366004613d26565b612029565b61039a61080b366004613d7a565b612287565b61039a61081e366004613db4565b612360565b61039a610831366004613b2d565b6124a4565b61061e61257c565b61039a61084c366004613e28565b6125d2565b61039a61085f366004613b2d565b6127db565b61040e610872366004613b2d565b61285e565b61039a610885366004613b4f565b6128d3565b61039a610898366004613b2d565b61298a565b61039a6108ab366004613e43565b612a8d565b6009546001600160a01b03166105a5565b61039a6108cf366004613e9f565b612af0565b6040805180820182526000808252602091820152815180830183526002546001600160401b03808216808452600160401b909204811692840192835284519182529151909116918101919091520161041a565b610983604080516060810182526000808252602082018190529181019190915250604080516060810182526003546001600160401b038082168352600160401b820481166020840152600160801b909104169181019190915290565b6040805182516001600160401b039081168252602080850151821690830152928201519092169082015260600161041a565b6109bd612ccd565b60405161041a9190613ec9565b61039a6109d8366004613b4f565b612d2e565b6001546001600160a01b03166105a5565b61039a6109fc366004613f0a565b612de7565b610a14610a0f366004613b2d565b612ee1565b6040805182516001600160a01b0316815260208084015160ff16908201529181015115159082015260600161041a565b61039a610a52366004613b2d565b612f9a565b60095461073490600160a01b900461ffff1681565b61039a610a7a366004613f26565b61300b565b61039a610a8d366004613f42565b61309d565b61039a610aa0366004613b4f565b61334a565b61039a610ab3366004613fb5565b61340d565b6000546001600160a01b03163314610aeb5760405162461bcd60e51b8152600401610ae290613fe2565b60405180910390fd5b60008311610b305760405162461bcd60e51b815260206004820152601260248201527134b73b30b634b210383934b1b2903a34b2b960711b6044820152606401610ae2565b610b3983613528565b610d2157600c54600003610b8157600c80546001810182556000919091527fdf6966c971051c3d54ec59162606531493a51404a002842f56009d7e5cf4a8c701839055610d21565b600c8054610b919060019061401e565b81548110610ba157610ba1614031565b9060005260206000200154831115610bed57600c80546001810182556000919091527fdf6966c971051c3d54ec59162606531493a51404a002842f56009d7e5cf4a8c701839055610d21565b60008060005b600c54811015610c3c5785600c8281548110610c1157610c11614031565b90600052602060002001541115610c2a57809250610c3c565b80610c3481614047565b915050610bf3565b505b600c54821015610cec5780600003610c9557600c8281548110610c6357610c63614031565b9060005260206000200154905084600c8381548110610c8457610c84614031565b600091825260209091200155610cda565b6000600c8381548110610caa57610caa614031565b9060005260206000200154905081600c8481548110610ccb57610ccb614031565b60009182526020909120015590505b81610ce481614047565b925050610c3e565b600c80546001810182556000919091527fdf6966c971051c3d54ec59162606531493a51404a002842f56009d7e5cf4a8c70155505b6040805160808101825284815261ffff938416602080830191825293851682840190815260016060840181815260009889526011909652939096209151825551910180549451925115156401000000000264ff0000000019938516620100000263ffffffff1990961692909416919091179390931716179055565b6000546001600160a01b03163314610dc65760405162461bcd60e51b8152600401610ae290613fe2565b806001600160a01b038116610ded5760405162461bcd60e51b8152600401610ae290614060565b50600780546001600160a01b0390921661010002610100600160a81b0319909216919091179055565b6000546001600160a01b03163314610e405760405162461bcd60e51b8152600401610ae290613fe2565b610e4981613528565b610e655760405162461bcd60e51b8152600401610ae290614089565b60008181526011602052604090206001810154640100000000900460ff1615610ec65760405162461bcd60e51b8152602060048201526013602482015272746965722d616c72656164792d61637469766560681b6044820152606401610ae2565b600101805464ff00000000191664010000000017905550565b6000546001600160a01b03163314610f095760405162461bcd60e51b8152600401610ae290613fe2565b806001600160a01b038116610f305760405162461bcd60e51b8152600401610ae290614060565b610f39826112d8565b610f555760405162461bcd60e51b8152600401610ae2906140af565b6001600160a01b038216600090815260126020526040902054600160b01b900460ff1615610fbd5760405162461bcd60e51b81526020600482015260156024820152741d985d5b1d0b585b1c9958591e4b595b98589b1959605a1b6044820152606401610ae2565b506001600160a01b03166000908152601260205260409020805460ff60b01b1916600160b01b179055565b6000546001600160a01b031633146110125760405162461bcd60e51b8152600401610ae290613fe2565b816001600160a01b0381166110395760405162461bcd60e51b8152600401610ae290614060565b611042836112d8565b1561108f5760405162461bcd60e51b815260206004820152601c60248201527f7661756c742d616464726573732d616c72656164792d657869737473000000006044820152606401610ae2565b50604080516060810182526001600160a01b0393841680825261ffff938416602080840191825260018486018181526000948552601290925294832093518454925191511515600160b01b0260ff60b01b1992909716600160a01b026001600160b01b031990931690881617919091179081168517909255600d8054938401815590527fd7b6990105719101dabeb77144f2a3385c8033acd3af97e9423a695e81ad1eb590910180546001600160a01b0319169284169190931617179055565b6000546001600160a01b031633146111795760405162461bcd60e51b8152600401610ae290613fe2565b816001600160a01b0381166111a05760405162461bcd60e51b8152600401610ae290614060565b6111a98361285e565b6111c55760405162461bcd60e51b8152600401610ae2906140dd565b6009546001600160a01b03166111ed5760405162461bcd60e51b8152600401610ae290614104565b6009546001600160a01b0383811660009081526012602090815260409182902054825191820183905260046060830152636161742d60e01b608083015287841692820192909252919092169163f11bc73e91600160a01b90910461ffff1690859060a0016040516020818303038152906040526040518463ffffffff1660e01b815260040161127e9392919061413b565b600060405180830381600087803b15801561129857600080fd5b505af11580156112ac573d6000803e3d6000fd5b5050506001600160a01b039093166000908152600f60205260409020805460ff60a81b19169055505050565b6000805b600d5481101561133857826001600160a01b0316600d828154811061130357611303614031565b6000918252602090912001546001600160a01b0316036113265750600192915050565b8061133081614047565b9150506112dc565b50600092915050565b6000546001600160a01b0316331461136b5760405162461bcd60e51b8152600401610ae290613fe2565b806001600160a01b0381166113925760405162461bcd60e51b8152600401610ae290614060565b50600880546001600160a01b0319166001600160a01b0392909216919091179055565b6000546001600160a01b031633146113df5760405162461bcd60e51b8152600401610ae290613fe2565b806001600160a01b0381166114065760405162461bcd60e51b8152600401610ae290614060565b600954604051630271df0760e21b81526001600160a01b038481166004830152909116906309c77c1c906024015b600060405180830381600087803b15801561144e57600080fd5b505af1158015611462573d6000803e3d6000fd5b505050505050565b6040805180820190915260008082526020820152600e6000836001811115611494576114946141a4565b60018111156114a5576114a56141a4565b815260208082019290925260409081016000208151808301909252805482526001015461ffff169181019190915292915050565b6000546001600160a01b031633146115035760405162461bcd60e51b8152600401610ae290613fe2565b600081116115465760405162461bcd60e51b815260206004820152601060248201526f34b73b30b634b216b23ab930ba34b7b760811b6044820152606401610ae2565b61154f85613575565b61173757600b5460000361159757600b80546001810182556000919091527f0175b7a638427703f0dbe7bb9bbf987a2551717b34e79f33b5b1008d1fa01db901859055611737565b600b80546115a79060019061401e565b815481106115b7576115b7614031565b906000526020600020015485111561160357600b80546001810182556000919091527f0175b7a638427703f0dbe7bb9bbf987a2551717b34e79f33b5b1008d1fa01db901859055611737565b60008060005b600b548110156116525787600b828154811061162757611627614031565b9060005260206000200154111561164057809250611652565b8061164a81614047565b915050611609565b505b600b5482101561170257806000036116ab57600b828154811061167957611679614031565b9060005260206000200154905086600b838154811061169a5761169a614031565b6000918252602090912001556116f0565b6000600b83815481106116c0576116c0614031565b9060005260206000200154905081600b84815481106116e1576116e1614031565b60009182526020909120015590505b816116fa81614047565b925050611654565b600b80546001810182556000919091527f0175b7a638427703f0dbe7bb9bbf987a2551717b34e79f33b5b1008d1fa01db90155505b6040805160c08101825286815261ffff95861660208083019182529587168284019081526060830195865260808301948552600160a0840181815260009a8b526010909852939098209151825551918101805497518716620100000263ffffffff1990981692909616919091179590951790935551600284015590516003830155516004909101805491151560ff19909216919091179055565b6000546001600160a01b031633146117fb5760405162461bcd60e51b8152600401610ae290613fe2565b6118048261285e565b6118205760405162461bcd60e51b8152600401610ae2906140dd565b6009546001600160a01b03166118485760405162461bcd60e51b8152600401610ae290614104565b6009546001600160a01b03828116600090815260126020908152604091829020548251918201839052600360608301526219185d60ea1b608083015286841692820192909252919092169163f11bc73e91600160a01b90910461ffff1690849060a0016040516020818303038152906040526040518463ffffffff1660e01b81526004016118d89392919061413b565b600060405180830381600087803b1580156118f257600080fd5b505af1158015611906573d6000803e3d6000fd5b505050506001600160a01b0382166000908152600f6020526040812080546001600160b01b03191690555b600a54811015611a0357826001600160a01b0316600a828154811061195857611958614031565b6000918252602090912001546001600160a01b0316036119f157600a80546119829060019061401e565b8154811061199257611992614031565b600091825260209091200154600a80546001600160a01b0390921691839081106119be576119be614031565b9060005260206000200160006101000a8154816001600160a01b0302191690836001600160a01b03160217905550611a03565b806119fb81614047565b915050611931565b50600a805480611a1557611a156141ba565b600082815260209020810160001990810180546001600160a01b03191690550190555050565b60075460009061010090046001600160a01b031680611a6c5760405162461bcd60e51b8152600401610ae290614060565b505060075461010090046001600160a01b031690565b6060600c805480602002602001604051908101604052809291908181526020018280548015611ad057602002820191906000526020600020905b815481526020019060010190808311611abc575b5050505050905090565b6040805160c081018252600080825260208201819052918101829052606081018290526080810182905260a0810191909152611b15826135c2565b92915050565b611b23613810565b611b2d600061386a565b565b60015433906001600160a01b03168114611b9d5760405162461bcd60e51b815260206004820152602960248201527f4f776e61626c6532537465703a2063616c6c6572206973206e6f7420746865206044820152683732bb9037bbb732b960b91b6064820152608401610ae2565b611ba68161386a565b50565b6000546001600160a01b03163314611bd35760405162461bcd60e51b8152600401610ae290613fe2565b60405180604001604052808381526020018261ffff16815250600e6000856001811115611c0257611c026141a4565b6001811115611c1357611c136141a4565b8152602080820192909252604001600020825181559101516001909101805461ffff191661ffff909216919091179055505050565b604080516080810182526000808252602082018190529181018290526060810191909152611b1582613883565b6000546001600160a01b03163314611c9f5760405162461bcd60e51b8152600401610ae290613fe2565b6001600160a01b038116600090815260126020526040902054600160b01b900460ff16611cde5760405162461bcd60e51b8152600401610ae2906141d0565b6009546001600160a01b03828116600090815260126020908152604091829020549151929093169263f11bc73e92600160a01b90920461ffff16918591611d299189918991016141fa565b6040516020818303038152906040526040518463ffffffff1660e01b8152600401611d569392919061413b565b600060405180830381600087803b158015611d7057600080fd5b505af1158015611d84573d6000803e3d6000fd5b50505050505050565b6000546001600160a01b03163314611db75760405162461bcd60e51b8152600401610ae290613fe2565b611dc08261285e565b611ddc5760405162461bcd60e51b8152600401610ae2906140dd565b6009546001600160a01b0316611e045760405162461bcd60e51b8152600401610ae290614104565b6009546001600160a01b0382811660009081526012602090815260409182902054825191820183905260046060830152636161742b60e01b608083015286841692820192909252919092169163f11bc73e91600160a01b90910461ffff1690849060a0016040516020818303038152906040526040518463ffffffff1660e01b8152600401611e959392919061413b565b600060405180830381600087803b158015611eaf57600080fd5b505af1158015611ec3573d6000803e3d6000fd5b5050506001600160a01b039092166000908152600f60205260409020805460ff60a81b1916600160a81b1790555050565b6000546001600160a01b03163314611f1e5760405162461bcd60e51b8152600401610ae290613fe2565b806001600160a01b038116611f455760405162461bcd60e51b8152600401610ae290614060565b50600980546001600160a01b0319166001600160a01b0392909216919091179055565b6040805160608101825260008082526020820181905291810191909152816001600160a01b038116611fac5760405162461bcd60e51b8152600401610ae290614060565b611fb5836112d8565b611fd15760405162461bcd60e51b8152600401610ae2906140af565b6001600160a01b03838116600090815260126020908152604091829020825160608101845290549384168152600160a01b840461ffff1691810191909152600160b01b90920460ff1615159082015291505b50919050565b6000546001600160a01b031633146120535760405162461bcd60e51b8152600401610ae290613fe2565b836001600160a01b03811661207a5760405162461bcd60e51b8152600401610ae290614060565b6009546001600160a01b03166120a25760405162461bcd60e51b8152600401610ae290614104565b6120ab826112d8565b6120f75760405162461bcd60e51b815260206004820152601960248201527f696e76616c69642d7661756c742d696e666f726d6174696f6e000000000000006044820152606401610ae2565b6009546001600160a01b038381166000908152601260209081526040918290205482516080928101839052600360a08201526218585d60ea1b60c08201528a85169381019390935260ff8916606084015287151591830191909152919092169163f11bc73e91600160a01b900461ffff1690859060e0016040516020818303038152906040526040518463ffffffff1660e01b815260040161219b9392919061413b565b600060405180830381600087803b1580156121b557600080fd5b505af11580156121c9573d6000803e3d6000fd5b5050604080516060810182526001600160a01b0398891680825260ff98891660208084019182526000848601818152848252600f90925294852093518454925191511515600160a81b0260ff60a81b1992909c16600160a01b026001600160a81b03199093169c169b909b171799909916979097179096555050600a805460018101825594525050507fc65a7bb8d6351c1cf70c95a316cc6a92839c986682d98bc35f958f4883f9d2a80180546001600160a01b0319169091179055565b6000546001600160a01b031633146122b15760405162461bcd60e51b8152600401610ae290613fe2565b6001600160401b03831615806122ce57506001600160401b038216155b806122e057506001600160401b038116155b156122fd5760405162461bcd60e51b8152600401610ae29061422d565b604080516060810182526001600160401b0394851680825293851660208201819052929094169301839052600380546001600160801b031916909217600160401b9091021767ffffffffffffffff60801b1916600160801b909202919091179055565b6000546001600160a01b0316331461238a5760405162461bcd60e51b8152600401610ae290613fe2565b612393866112d8565b6123af5760405162461bcd60e51b8152600401610ae2906140af565b6009546001600160a01b0387811660009081526012602090815260409182902054825160e092810183905260026101008201526118d960f21b6101208201528a851693810193909352888416606084015287841660808401523060a084015286841660c084015261ffff86811692840192909252929093169263f11bc73e92600160a01b900416908990610140016040516020818303038152906040526040518463ffffffff1660e01b815260040161246a9392919061413b565b600060405180830381600087803b15801561248457600080fd5b505af1158015612498573d6000803e3d6000fd5b50505050505050505050565b6000546001600160a01b031633146124ce5760405162461bcd60e51b8152600401610ae290613fe2565b806001600160a01b0381166124f55760405162461bcd60e51b8152600401610ae290614060565b6001600160a01b03821660009081526013602052604090205460ff16156125575760405162461bcd60e51b81526020600482015260166024820152757265776172642d70726f76696465722d65786973747360501b6044820152606401610ae2565b506001600160a01b03166000908152601360205260409020805460ff19166001179055565b6060600b805480602002602001604051908101604052809291908181526020018280548015611ad05760200282019190600052602060002090815481526020019060010190808311611abc575050505050905090565b6000546001600160a01b031633146125fc5760405162461bcd60e51b8152600401610ae290613fe2565b8060ff166000036126475760405162461bcd60e51b815260206004820152601560248201527405472616461626c653a20414d4f554e54203d3d203605c1b6044820152606401610ae2565b6007805460ff191660ff831617905560005b600d548110156127d75760126000600d838154811061267a5761267a614031565b60009182526020808320909101546001600160a01b0316835282019290925260400190205460ff600160b01b90910416156127c557600954600d80546001600160a01b039092169163f11bc73e9160129160009190869081106126df576126df614031565b6000918252602080832091909101546001600160a01b03168352820192909252604001902054600d8054600160a01b90920461ffff16918590811061272657612726614031565b600091825260209182902001546040805192830181905260036060840152621cd91960ea1b608084015260ff8816908301526001600160a01b03169060a0016040516020818303038152906040526040518463ffffffff1660e01b81526004016127929392919061413b565b600060405180830381600087803b1580156127ac57600080fd5b505af11580156127c0573d6000803e3d6000fd5b505050505b806127cf81614047565b915050612659565b5050565b6000546001600160a01b031633146128055760405162461bcd60e51b8152600401610ae290613fe2565b806001600160a01b03811661282c5760405162461bcd60e51b8152600401610ae290614060565b60095460405163201f087360e21b81526001600160a01b0384811660048301529091169063807c21cc90602401611434565b600a546000906001111561287457506000919050565b60005b600a5481101561133857826001600160a01b0316600a828154811061289e5761289e614031565b6000918252602090912001546001600160a01b0316036128c15750600192915050565b806128cb81614047565b915050612877565b6000546001600160a01b031633146128fd5760405162461bcd60e51b8152600401610ae290613fe2565b61290681613575565b6129225760405162461bcd60e51b8152600401610ae290614089565b6000818152601060205260409020600481015460ff1661297c5760405162461bcd60e51b8152602060048201526015602482015274746965722d616c72656164792d696e61637469766560581b6044820152606401610ae2565b600401805460ff1916905550565b6000546001600160a01b031633146129b45760405162461bcd60e51b8152600401610ae290613fe2565b806001600160a01b0381166129db5760405162461bcd60e51b8152600401610ae290614060565b6129e4826112d8565b612a005760405162461bcd60e51b8152600401610ae2906140af565b6001600160a01b038216600090815260126020526040902054600160b01b900460ff16612a685760405162461bcd60e51b81526020600482015260166024820152751d985d5b1d0b585b1c9958591e4b591a5cd8589b195960521b6044820152606401610ae2565b506001600160a01b03166000908152601260205260409020805460ff60b01b19169055565b3360009081526013602052604090205460ff16612ae25760405162461bcd60e51b815260206004820152601360248201527218d85b1b195c8b5d5b985d5d1a1bdc9a5e9959606a1b6044820152606401610ae2565b805160055560200151600655565b6000546001600160a01b03163314612b1a5760405162461bcd60e51b8152600401610ae290613fe2565b604080518082019091526001600160401b038381168083529083166020909201829052600280546001600160801b031916909117600160401b90920291909117905560005b600d54811015612cc85760126000600d8381548110612b8057612b80614031565b60009182526020808320909101546001600160a01b0316835282019290925260400190205460ff600160b01b9091041615612cb657600954600d80546001600160a01b039092169163f11bc73e916012916000919086908110612be557612be5614031565b6000918252602080832091909101546001600160a01b03168352820192909252604001902054600d8054600160a01b90920461ffff169185908110612c2c57612c2c614031565b600091825260209182902001546040516001600160a01b0390911691612c569189918991016141fa565b6040516020818303038152906040526040518463ffffffff1660e01b8152600401612c839392919061413b565b600060405180830381600087803b158015612c9d57600080fd5b505af1158015612cb1573d6000803e3d6000fd5b505050505b80612cc081614047565b915050612b5f565b505050565b6060600a805480602002602001604051908101604052809291908181526020018280548015611ad057602002820191906000526020600020905b81546001600160a01b03168152600190910190602001808311612d07575050505050905090565b6000546001600160a01b03163314612d585760405162461bcd60e51b8152600401610ae290613fe2565b612d6181613575565b612d7d5760405162461bcd60e51b8152600401610ae290614089565b6000818152601060205260409020600481015460ff1615612dd65760405162461bcd60e51b8152602060048201526013602482015272746965722d616c72656164792d61637469766560681b6044820152606401610ae2565b600401805460ff1916600117905550565b6000546001600160a01b03163314612e115760405162461bcd60e51b8152600401610ae290613fe2565b6001600160a01b038116600090815260126020526040902054600160b01b900460ff16612e505760405162461bcd60e51b8152600401610ae2906141d0565b6009546001600160a01b0382811660009081526012602090815260409182902054825191820183905260036060830152621cd91960ea1b608083015260ff871692820192909252919092169163f11bc73e91600160a01b90910461ffff1690849060a0016040516020818303038152906040526040518463ffffffff1660e01b81526004016114349392919061413b565b6040805160608101825260008082526020820181905291810191909152612f078261285e565b612f495760405162461bcd60e51b8152602060048201526013602482015272746f6b656e2d6e6f742d617661696c61626c6560681b6044820152606401610ae2565b506001600160a01b039081166000908152600f602090815260409182902082516060810184529054938416815260ff600160a01b8504811692820192909252600160a81b9093041615159082015290565b612fa2613810565b600180546001600160a01b0383166001600160a01b03199091168117909155612fd36000546001600160a01b031690565b6001600160a01b03167f38d16b8cac22d99fc7c124b9cd0de2d3fa1faef420bfe791d8c362d765e2270060405160405180910390a350565b6000546001600160a01b031633146130355760405162461bcd60e51b8152600401610ae290613fe2565b61ffff82161580613048575061ffff8116155b156130655760405162461bcd60e51b8152600401610ae29061422d565b6009805463ffffffff60a01b1916600160a01b61ffff9485160261ffff60b01b191617600160b01b9290931691909102919091179055565b6000546001600160a01b031633146130c75760405162461bcd60e51b8152600401610ae290613fe2565b6001600160401b03861615806130e457506001600160401b038516155b806130f0575060ff8316155b806130ff575063ffffffff8216155b1561311c5760405162461bcd60e51b8152600401610ae29061422d565b6040805160c0810182526001600160401b038881168083528882166020840181905291881693830184905260ff87166060840181905263ffffffff87166080850181905286151560a0909501859052600480546001600160801b031916909317600160401b9094029390931768ffffffffffffffffff60801b1916600160801b90950260ff60c01b191694909417600160c01b9094029390931764ffffffffff60c81b1916600160c81b90910260ff60e81b191617600160e81b90910217905560005b600d54811015611d845760126000600d838154811061320057613200614031565b60009182526020808320909101546001600160a01b0316835282019290925260400190205460ff600160b01b909104161561333857600954600d80546001600160a01b039092169163f11bc73e91601291600091908690811061326557613265614031565b6000918252602080832091909101546001600160a01b03168352820192909252604001902054600d8054600160a01b90920461ffff1691859081106132ac576132ac614031565b600091825260209182902001546040516001600160a01b03909116916132d8918d918d918a910161425c565b6040516020818303038152906040526040518463ffffffff1660e01b81526004016133059392919061413b565b600060405180830381600087803b15801561331f57600080fd5b505af1158015613333573d6000803e3d6000fd5b505050505b8061334281614047565b9150506131df565b6000546001600160a01b031633146133745760405162461bcd60e51b8152600401610ae290613fe2565b61337d81613528565b6133995760405162461bcd60e51b8152600401610ae290614089565b60008181526011602052604090206001810154640100000000900460ff166133fb5760405162461bcd60e51b8152602060048201526015602482015274746965722d616c72656164792d696e61637469766560581b6044820152606401610ae2565b600101805464ff000000001916905550565b6000546001600160a01b031633146134375760405162461bcd60e51b8152600401610ae290613fe2565b6001600160a01b038116600090815260126020526040902054600160b01b900460ff166134765760405162461bcd60e51b8152600401610ae2906141d0565b6009546001600160a01b03828116600090815260126020908152604091829020549151929093169263f11bc73e92600160a01b90920461ffff169185916134c3918a918a918a910161425c565b6040516020818303038152906040526040518463ffffffff1660e01b81526004016134f09392919061413b565b600060405180830381600087803b15801561350a57600080fd5b505af115801561351e573d6000803e3d6000fd5b5050505050505050565b6000805b600c548110156113385782600c828154811061354a5761354a614031565b9060005260206000200154036135635750600192915050565b8061356d81614047565b91505061352c565b6000805b600b548110156113385782600b828154811061359757613597614031565b9060005260206000200154036135b05750600192915050565b806135ba81614047565b915050613579565b6040805160c081018252600080825260208201819052918101829052606081018290526080810182905260a0810191909152600b546136385760405162461bcd60e51b81526020600482015260126024820152711b9bcb5d1a595c8b58dbdb999a59dd5c995960721b6044820152606401610ae2565b600b80546136489060019061401e565b8154811061365857613658614031565b90600052602060002001548211156136ac5760405162461bcd60e51b8152602060048201526017602482015276185b5bdd5b9d0b58589bdd994b5d1a595c8b5b1a5b5a5d604a1b6044820152606401610ae2565b6000805b600b548110156137c25783600b82815481106136ce576136ce614031565b90600052602060002001541015801561371c575060106000600b83815481106136f9576136f9614031565b6000918252602080832090910154835282019290925260400190206004015460ff165b156137b05760106000600b838154811061373857613738614031565b600091825260208083209091015483528281019390935260409182019020815160c0810183528154815260018083015461ffff808216968401969096526201000090049094169281019290925260028101546060830152600381015460808301526004015460ff16151560a0820152935091506137c2565b806137ba81614047565b9150506136b0565b50806120235760405162461bcd60e51b815260206004820152601a60248201527f746965722d6e6f742d666f756e642d6f722d696e6163746976650000000000006044820152606401610ae2565b6000546001600160a01b03163314611b2d5760405162461bcd60e51b815260206004820181905260248201527f4f776e61626c653a2063616c6c6572206973206e6f7420746865206f776e65726044820152606401610ae2565b600180546001600160a01b0319169055611ba681613a73565b604080516080810182526000808252602082018190529181018290526060810191909152600c546138ef5760405162461bcd60e51b81526020600482015260166024820152751b9bcb5999594b5d1a595c8b58dbdb999a59dd5c995960521b6044820152606401610ae2565b600c80546138ff9060019061401e565b8154811061390f5761390f614031565b90600052602060002001548211156139635760405162461bcd60e51b8152602060048201526017602482015276185b5bdd5b9d0b58589bdd994b5d1a595c8b5b1a5b5a5d604a1b6044820152606401610ae2565b6000805b600c548110156137c25783600c828154811061398557613985614031565b9060005260206000200154101580156139db575060116000600c83815481106139b0576139b0614031565b9060005260206000200154815260200190815260200160002060010160049054906101000a900460ff165b15613a615760116000600c83815481106139f7576139f7614031565b6000918252602080832091909101548352828101939093526040918201902081516080810183528154815260019182015461ffff808216958301959095526201000081049094169281019290925264010000000090920460ff1615156060820152935091506137c2565b80613a6b81614047565b915050613967565b600080546001600160a01b038381166001600160a01b0319831681178455604051919092169283917f8be0079c531659141344cd1fd0a4f28419497f9722a3daafe3b4186f6b6457e09190a35050565b803561ffff81168114613ad557600080fd5b919050565b600080600060608486031215613aef57600080fd5b83359250613aff60208501613ac3565b9150613b0d60408501613ac3565b90509250925092565b80356001600160a01b0381168114613ad557600080fd5b600060208284031215613b3f57600080fd5b613b4882613b16565b9392505050565b600060208284031215613b6157600080fd5b5035919050565b60008060408385031215613b7b57600080fd5b613b8483613b16565b9150613b9260208401613ac3565b90509250929050565b60008060408385031215613bae57600080fd5b613bb783613b16565b9150613b9260208401613b16565b803560028110613ad557600080fd5b600060208284031215613be657600080fd5b613b4882613bc5565b600080600080600060a08688031215613c0757600080fd5b85359450613c1760208701613ac3565b9350613c2560408701613ac3565b94979396509394606081013594506080013592915050565b6020808252825182820181905260009190848201906040850190845b81811015613c7557835183529284019291840191600101613c59565b50909695505050505050565b600080600060608486031215613c9657600080fd5b613c9f84613bc5565b925060208401359150613b0d60408501613ac3565b80356001600160401b0381168114613ad557600080fd5b600080600060608486031215613ce057600080fd5b613ce984613cb4565b9250613cf760208501613cb4565b9150613b0d60408501613b16565b803560ff81168114613ad557600080fd5b80358015158114613ad557600080fd5b60008060008060808587031215613d3c57600080fd5b613d4585613b16565b9350613d5360208601613d05565b9250613d6160408601613d16565b9150613d6f60608601613b16565b905092959194509250565b600080600060608486031215613d8f57600080fd5b613d9884613cb4565b9250613da660208501613cb4565b9150613b0d60408501613cb4565b60008060008060008060c08789031215613dcd57600080fd5b613dd687613b16565b9550613de460208801613b16565b9450613df260408801613b16565b9350613e0060608801613b16565b9250613e0e60808801613b16565b9150613e1c60a08801613ac3565b90509295509295509295565b600060208284031215613e3a57600080fd5b613b4882613d05565b600060408284031215613e5557600080fd5b604051604081018181106001600160401b0382111715613e8557634e487b7160e01b600052604160045260246000fd5b604052823581526020928301359281019290925250919050565b60008060408385031215613eb257600080fd5b613ebb83613cb4565b9150613b9260208401613cb4565b6020808252825182820181905260009190848201906040850190845b81811015613c755783516001600160a01b031683529284019291840191600101613ee5565b60008060408385031215613f1d57600080fd5b613bb783613d05565b60008060408385031215613f3957600080fd5b613b8483613ac3565b60008060008060008060c08789031215613f5b57600080fd5b613f6487613cb4565b9550613f7260208801613cb4565b9450613f8060408801613cb4565b9350613f8e60608801613d05565b9250608087013563ffffffff81168114613fa757600080fd5b9150613e1c60a08801613d16565b60008060008060808587031215613fcb57600080fd5b613fd485613cb4565b9350613d5360208601613cb4565b6020808252600c908201526b1d5b985d5d1a1bdc9a5e995960a21b604082015260600190565b634e487b7160e01b600052601160045260246000fd5b81810381811115611b1557611b15614008565b634e487b7160e01b600052603260045260246000fd5b60006001820161405957614059614008565b5060010190565b6020808252600f908201526e696e76616c69642d6164647265737360881b604082015260600190565b6020808252600c908201526b1d1a595c8b5b9bdd0b5cd95d60a21b604082015260600190565b6020808252601490820152731d985d5b1d0b591bd95ccb5b9bdd0b595e1a5cdd60621b604082015260600190565b6020808252600d908201526c34b73b30b634b216ba37b5b2b760991b604082015260600190565b60208082526017908201527f696e76616c69642d6d6573736167652d61646170746572000000000000000000604082015260600190565b61ffff841681526000602060018060a01b0385168184015260606040840152835180606085015260005b8181101561418157858101830151858201608001528201614165565b506000608082860101526080601f19601f83011685010192505050949350505050565b634e487b7160e01b600052602160045260246000fd5b634e487b7160e01b600052603160045260246000fd5b60208082526010908201526f1d5b985c1c1c9bdd99590b5d985d5b1d60821b604082015260600190565b6060808252600290820152616d7360f01b60808201526001600160401b0392831660208201529116604082015260a00190565b6020808252601590820152745472616461626c653a205a45524f5f56414c55455360581b604082015260600190565b608080825260029082015261737360f01b60a08201526001600160401b039384166020820152919092166040820152901515606082015260c0019056fea26469706673582212207a48383a11d3b0ea5424c4a7c660181c520069954fb9bb1554b9a705af37c54264736f6c63430008130033",
  "linkReferences": {},
  "deployedLinkReferences": {}
}