{
  "_format": "hh-sol-artifact-1",
  "contractName": "TradableBalanceVault",
  "sourceName": "contracts/TradableBalanceVault.sol",
  "abi": [
    {
      "inputs": [
        {
          "internalType": "address",
          "name": "_settingsProvider",
          "type": "address"
        }
      ],
      "stateMutability": "nonpayable",
      "type": "constructor"
    },
    {
      "anonymous": false,
      "inputs": [
        {
          "indexed": true,
          "internalType": "address",
          "name": "user",
          "type": "address"
        },
        {
          "indexed": false,
          "internalType": "uint256",
          "name": "amount",
          "type": "uint256"
        }
      ],
      "name": "BaseChainDepositProcessed",
      "type": "event"
    },
    {
      "anonymous": false,
      "inputs": [
        {
          "indexed": true,
          "internalType": "address",
          "name": "user",
          "type": "address"
        },
        {
          "indexed": false,
          "internalType": "uint256",
          "name": "amount",
          "type": "uint256"
        }
      ],
      "name": "BaseChainWithdrawalProcessed",
      "type": "event"
    },
    {
      "anonymous": false,
      "inputs": [
        {
          "indexed": true,
          "internalType": "address",
          "name": "previousOwner",
          "type": "address"
        },
        {
          "indexed": true,
          "internalType": "address",
          "name": "newOwner",
          "type": "address"
        }
      ],
      "name": "OwnershipTransferStarted",
      "type": "event"
    },
    {
      "anonymous": false,
      "inputs": [
        {
          "indexed": true,
          "internalType": "address",
          "name": "previousOwner",
          "type": "address"
        },
        {
          "indexed": true,
          "internalType": "address",
          "name": "newOwner",
          "type": "address"
        }
      ],
      "name": "OwnershipTransferred",
      "type": "event"
    },
    {
      "anonymous": false,
      "inputs": [
        {
          "indexed": false,
          "internalType": "address",
          "name": "sender",
          "type": "address"
        },
        {
          "indexed": true,
          "internalType": "address",
          "name": "reciever",
          "type": "address"
        },
        {
          "indexed": false,
          "internalType": "uint256",
          "name": "amount",
          "type": "uint256"
        }
      ],
      "name": "WithdrawableBalanceTransferred",
      "type": "event"
    },
    {
      "anonymous": false,
      "inputs": [
        {
          "indexed": true,
          "internalType": "address",
          "name": "user",
          "type": "address"
        },
        {
          "indexed": false,
          "internalType": "uint256",
          "name": "balance",
          "type": "uint256"
        },
        {
          "indexed": false,
          "internalType": "bool",
          "name": "isAdded",
          "type": "bool"
        }
      ],
      "name": "WithdrawableBalanceUpdated",
      "type": "event"
    },
    {
      "inputs": [],
      "name": "acceptOwnership",
      "outputs": [],
      "stateMutability": "nonpayable",
      "type": "function"
    },
    {
      "inputs": [
        {
          "internalType": "address",
          "name": "caller",
          "type": "address"
        }
      ],
      "name": "activateAuthorizedCaller",
      "outputs": [],
      "stateMutability": "nonpayable",
      "type": "function"
    },
    {
      "inputs": [
        {
          "internalType": "address",
          "name": "newOwnerContract",
          "type": "address"
        }
      ],
      "name": "changeOwnerContract",
      "outputs": [],
      "stateMutability": "nonpayable",
      "type": "function"
    },
    {
      "inputs": [
        {
          "internalType": "address",
          "name": "caller",
          "type": "address"
        }
      ],
      "name": "deactivateAuthorizedCaller",
      "outputs": [],
      "stateMutability": "nonpayable",
      "type": "function"
    },
    {
      "inputs": [
        {
          "internalType": "address",
          "name": "user",
          "type": "address"
        },
        {
          "internalType": "uint256",
          "name": "amount",
          "type": "uint256"
        }
      ],
      "name": "decrementMargin",
      "outputs": [],
      "stateMutability": "nonpayable",
      "type": "function"
    },
    {
      "inputs": [
        {
          "internalType": "address",
          "name": "user",
          "type": "address"
        }
      ],
      "name": "getUserTokenBalance",
      "outputs": [
        {
          "internalType": "uint256",
          "name": "",
          "type": "uint256"
        }
      ],
      "stateMutability": "view",
      "type": "function"
    },
    {
      "inputs": [
        {
          "internalType": "address",
          "name": "user",
          "type": "address"
        },
        {
          "internalType": "uint256",
          "name": "amount",
          "type": "uint256"
        }
      ],
      "name": "incrementMargin",
      "outputs": [],
      "stateMutability": "nonpayable",
      "type": "function"
    },
    {
      "inputs": [
        {
          "internalType": "address",
          "name": "user",
          "type": "address"
        },
        {
          "components": [
            {
              "internalType": "address",
              "name": "token",
              "type": "address"
            },
            {
              "internalType": "uint8",
              "name": "decimals",
              "type": "uint8"
            },
            {
              "internalType": "bool",
              "name": "isActive",
              "type": "bool"
            }
          ],
          "internalType": "struct ITradableSettings.AcceptedToken",
          "name": "selectedToken",
          "type": "tuple"
        },
        {
          "internalType": "uint256",
          "name": "amount",
          "type": "uint256"
        }
      ],
      "name": "marginAccountDeposit",
      "outputs": [],
      "stateMutability": "nonpayable",
      "type": "function"
    },
    {
      "inputs": [
        {
          "internalType": "address",
          "name": "user",
          "type": "address"
        },
        {
          "components": [
            {
              "internalType": "address",
              "name": "token",
              "type": "address"
            },
            {
              "internalType": "uint8",
              "name": "decimals",
              "type": "uint8"
            },
            {
              "internalType": "bool",
              "name": "isActive",
              "type": "bool"
            }
          ],
          "internalType": "struct ITradableSettings.AcceptedToken",
          "name": "selectedToken",
          "type": "tuple"
        },
        {
          "internalType": "uint256",
          "name": "amount",
          "type": "uint256"
        },
        {
          "internalType": "address",
          "name": "dstVault",
          "type": "address"
        }
      ],
      "name": "marginAccountWithdrawal",
      "outputs": [],
      "stateMutability": "nonpayable",
      "type": "function"
    },
    {
      "inputs": [],
      "name": "owner",
      "outputs": [
        {
          "internalType": "address",
          "name": "",
          "type": "address"
        }
      ],
      "stateMutability": "view",
      "type": "function"
    },
    {
      "inputs": [],
      "name": "ownerContract",
      "outputs": [
        {
          "internalType": "address",
          "name": "",
          "type": "address"
        }
      ],
      "stateMutability": "view",
      "type": "function"
    },
    {
      "inputs": [],
      "name": "pendingOwner",
      "outputs": [
        {
          "internalType": "address",
          "name": "",
          "type": "address"
        }
      ],
      "stateMutability": "view",
      "type": "function"
    },
    {
      "inputs": [],
      "name": "renounceOwnership",
      "outputs": [],
      "stateMutability": "nonpayable",
      "type": "function"
    },
    {
      "inputs": [
        {
          "internalType": "address",
          "name": "newSettingsProvider",
          "type": "address"
        }
      ],
      "name": "setSettingsProvider",
      "outputs": [],
      "stateMutability": "nonpayable",
      "type": "function"
    },
    {
      "inputs": [],
      "name": "settingsProvider",
      "outputs": [
        {
          "internalType": "address",
          "name": "",
          "type": "address"
        }
      ],
      "stateMutability": "view",
      "type": "function"
    },
    {
      "inputs": [
        {
          "internalType": "address",
          "name": "newOwner",
          "type": "address"
        }
      ],
      "name": "transferOwnership",
      "outputs": [],
      "stateMutability": "nonpayable",
      "type": "function"
    },
    {
      "inputs": [
        {
          "internalType": "address",
          "name": "reciever",
          "type": "address"
        },
        {
          "internalType": "uint256",
          "name": "amountToBase",
          "type": "uint256"
        }
      ],
      "name": "transferWithdrawableBalance",
      "outputs": [],
      "stateMutability": "nonpayable",
      "type": "function"
    },
    {
      "inputs": [
        {
          "internalType": "address",
          "name": "user",
          "type": "address"
        },
        {
          "internalType": "uint256",
          "name": "amountToBase",
          "type": "uint256"
        },
        {
          "internalType": "bool",
          "name": "isAdded",
          "type": "bool"
        }
      ],
      "name": "updateWithdrawableBalance",
      "outputs": [],
      "stateMutability": "nonpayable",
      "type": "function"
    }
  ],
  "bytecode": "0x60806040523480156200001157600080fd5b5060405162001d7138038062001d718339810160408190526200003491620000d3565b6200003f3362000065565b600380546001600160a01b0319166001600160a01b039290921691909117905562000105565b600180546001600160a01b0319169055620000808162000083565b50565b600080546001600160a01b038381166001600160a01b0319831681178455604051919092169283917f8be0079c531659141344cd1fd0a4f28419497f9722a3daafe3b4186f6b6457e09190a35050565b600060208284031215620000e657600080fd5b81516001600160a01b0381168114620000fe57600080fd5b9392505050565b611c5c80620001156000396000f3fe608060405234801561001057600080fd5b50600436106101165760003560e01c806391d3e449116100a2578063ce39a81311610071578063ce39a81314610219578063d81bbbdc1461022c578063e30c39781461023f578063f2fde38b14610250578063f5aec88c1461026357600080fd5b806391d3e449146101cd578063b48a3b0a146101e0578063c8bda51a146101f3578063cb2a14901461020657600080fd5b806379ba5097116100e957806379ba50971461017b5780637f74ac151461018357806380980e3a146101965780638a002932146101a95780638da5cb5b146101bc57600080fd5b80631785b5871461011b5780632941562b1461014b5780632eed0e5d14610160578063715018a614610173575b600080fd5b60035461012e906001600160a01b031681565b6040516001600160a01b0390911681526020015b60405180910390f35b61015e61015936600461178b565b61029a565b005b61015e61016e3660046117dd565b6106f9565b61015e6107ea565b61015e6107fe565b60025461012e906001600160a01b031681565b61015e6101a4366004611801565b610878565b61015e6101b736600461182d565b610939565b6000546001600160a01b031661012e565b61015e6101db3660046117dd565b610abe565b61015e6101ee3660046117dd565b610baf565b61015e6102013660046117dd565b610ca2565b61015e610214366004611801565b610d92565b61015e61022736600461186f565b610f51565b61015e61023a366004611801565b6111f3565b6001546001600160a01b031661012e565b61015e61025e3660046117dd565b6112eb565b61028c6102713660046117dd565b6001600160a01b031660009081526004602052604090205490565b604051908152602001610142565b816000036102e75760405162461bcd60e51b8152602060048201526015602482015274151c985918589b194e8816915493d7d05353d55395605a1b60448201526064015b60405180910390fd5b6001600160a01b03841661033d5760405162461bcd60e51b815260206004820152601f60248201527f5472616461626c653a205a45524f5f414444524553535f52454345495645520060448201526064016102de565b600360009054906101000a90046001600160a01b03166001600160a01b031663c95c544b6040518163ffffffff1660e01b8152600401602060405180830381865afa158015610390573d6000803e3d6000fd5b505050506040513d601f19601f820116820180604052508101906103b491906118ae565b6001600160a01b0316336001600160a01b03161461040a5760405162461bcd60e51b81526020600482015260136024820152723ab730baba3437b934bd32b216b1b0b63632b960691b60448201526064016102de565b600354835160405163599fbc6560e11b81526001600160a01b03918216600482015291169063b33f78ca90602401602060405180830381865afa158015610455573d6000803e3d6000fd5b505050506040513d601f19601f8201168201806040525081019061047991906118cb565b6104be5760405162461bcd60e51b81526020600482015260166024820152751a5b9d985b1a590b5d1bdad95b8b5c1c9bdd9a59195960521b60448201526064016102de565b60006104ca848461135c565b9050600360009054906101000a90046001600160a01b03166001600160a01b0316635229d3c06040518163ffffffff1660e01b8152600401602060405180830381865afa15801561051f573d6000803e3d6000fd5b505050506040513d601f19601f8201168201806040525081019061054391906118ae565b6001600160a01b0316856001600160a01b0316146105c757600254604051629526db60e11b81526001600160a01b039091169063012a4db6906105909088908890889088906004016118e8565b600060405180830381600087803b1580156105aa57600080fd5b505af11580156105be573d6000803e3d6000fd5b50505050610624565b6001600160a01b0385166000908152600460205260409020548111156106245760405162461bcd60e51b8152602060048201526012602482015271696e73756666696369656e742d66756e647360701b60448201526064016102de565b6001600160a01b0385166000908152600460205260408120805483929061064c908490611957565b9091555050835160408051608060208201819052600260a0830152616d7760f01b60c08301526001600160a01b03808a169383019390935291909216606083015281018490526106af90839060e00160405160208183030381529060405261140e565b846001600160a01b03167f4b4d1dc9dbd19fb249437ecbdc03676fcf95ee3fce7dfb669251847e42a28409846040516106ea91815260200190565b60405180910390a25050505050565b806001600160a01b0381166107205760405162461bcd60e51b81526004016102de9061196a565b600360009054906101000a90046001600160a01b03166001600160a01b031663d513cc446040518163ffffffff1660e01b8152600401602060405180830381865afa158015610773573d6000803e3d6000fd5b505050506040513d601f19601f8201168201806040525081019061079791906118ae565b6001600160a01b0316336001600160a01b0316146107c75760405162461bcd60e51b81526004016102de90611993565b50600380546001600160a01b0319166001600160a01b0392909216919091179055565b6107f261160f565b6107fc6000611669565b565b60015433906001600160a01b0316811461086c5760405162461bcd60e51b815260206004820152602960248201527f4f776e61626c6532537465703a2063616c6c6572206973206e6f7420746865206044820152683732bb9037bbb732b960b91b60648201526084016102de565b61087581611669565b50565b6000546001600160a01b031633146108c95760405162461bcd60e51b81526020600482015260146024820152735472616461626c653a204e4f545f4f574e45522160601b60448201526064016102de565b6001600160a01b038216600090815260046020526040812080548392906108f19084906119b9565b90915550506040518181526001600160a01b038316907f2d43ea61b7c8e308e2f5c3c60b0351dfe714e07a35ce38baa3e308a7cb43aeb3906020015b60405180910390a25050565b826001600160a01b0381166109605760405162461bcd60e51b81526004016102de9061196a565b3360009081526005602052604090205460ff168061098857506002546001600160a01b031633145b6109a45760405162461bcd60e51b81526004016102de90611993565b81156109dd576001600160a01b038416600090815260046020526040812080548592906109d29084906119b9565b90915550610a739050565b6001600160a01b038416600090815260046020526040902054831115610a455760405162461bcd60e51b815260206004820152601960248201527f696e73756666696369656e742d757365722d62616c616e63650000000000000060448201526064016102de565b6001600160a01b03841660009081526004602052604081208054859290610a6d908490611957565b90915550505b6040805184815283151560208201526001600160a01b038616917fae5e86f5dc7af5c2f2158255bd2bb6d4397be93d16095e7463024e117ef96a67910160405180910390a250505050565b806001600160a01b038116610ae55760405162461bcd60e51b81526004016102de9061196a565b600360009054906101000a90046001600160a01b03166001600160a01b031663d513cc446040518163ffffffff1660e01b8152600401602060405180830381865afa158015610b38573d6000803e3d6000fd5b505050506040513d601f19601f82011682018060405250810190610b5c91906118ae565b6001600160a01b0316336001600160a01b031614610b8c5760405162461bcd60e51b81526004016102de90611993565b50600280546001600160a01b0319166001600160a01b0392909216919091179055565b806001600160a01b038116610bd65760405162461bcd60e51b81526004016102de9061196a565b600360009054906101000a90046001600160a01b03166001600160a01b031663d513cc446040518163ffffffff1660e01b8152600401602060405180830381865afa158015610c29573d6000803e3d6000fd5b505050506040513d601f19601f82011682018060405250810190610c4d91906118ae565b6001600160a01b0316336001600160a01b031614610c7d5760405162461bcd60e51b81526004016102de90611993565b506001600160a01b03166000908152600560205260409020805460ff19166001179055565b806001600160a01b038116610cc95760405162461bcd60e51b81526004016102de9061196a565b600360009054906101000a90046001600160a01b03166001600160a01b031663d513cc446040518163ffffffff1660e01b8152600401602060405180830381865afa158015610d1c573d6000803e3d6000fd5b505050506040513d601f19601f82011682018060405250810190610d4091906118ae565b6001600160a01b0316336001600160a01b031614610d705760405162461bcd60e51b81526004016102de90611993565b506001600160a01b03166000908152600560205260409020805460ff19169055565b816001600160a01b038116610db95760405162461bcd60e51b81526004016102de9061196a565b600360009054906101000a90046001600160a01b03166001600160a01b031663d513cc446040518163ffffffff1660e01b8152600401602060405180830381865afa158015610e0c573d6000803e3d6000fd5b505050506040513d601f19601f82011682018060405250810190610e3091906118ae565b6001600160a01b0316336001600160a01b031614610e605760405162461bcd60e51b81526004016102de90611993565b33600090815260046020526040902054821115610eb65760405162461bcd60e51b8152602060048201526014602482015273696e73756666696369656e742d62616c616e636560601b60448201526064016102de565b3360009081526004602052604081208054849290610ed5908490611957565b90915550506001600160a01b03831660009081526004602052604081208054849290610f029084906119b9565b909155505060408051338152602081018490526001600160a01b038516917f8242487ada4cbc0c36e94a754146e073b91a05af28c0eed015b3de44db34200b91015b60405180910390a2505050565b80600003610f995760405162461bcd60e51b8152602060048201526015602482015274151c985918589b194e8816915493d7d05353d55395605a1b60448201526064016102de565b600360009054906101000a90046001600160a01b03166001600160a01b031663c95c544b6040518163ffffffff1660e01b8152600401602060405180830381865afa158015610fec573d6000803e3d6000fd5b505050506040513d601f19601f8201168201806040525081019061101091906118ae565b6001600160a01b0316336001600160a01b0316146110675760405162461bcd60e51b81526020600482015260146024820152733ab730baba3437b934bd32b216b1b0b6363632b960611b60448201526064016102de565b600354825160405163599fbc6560e11b81526001600160a01b03918216600482015291169063b33f78ca90602401602060405180830381865afa1580156110b2573d6000803e3d6000fd5b505050506040513d601f19601f820116820180604052508101906110d691906118cb565b61111b5760405162461bcd60e51b81526020600482015260166024820152751a5b9d985b1a590b5d1bdad95b8b5c1c9bdd9a59195960521b60448201526064016102de565b600254604051636dd1bded60e11b81526001600160a01b039091169063dba37bda9061114f908690869086906004016119cc565b600060405180830381600087803b15801561116957600080fd5b505af115801561117d573d6000803e3d6000fd5b5050505061118b828261135c565b6001600160a01b038416600090815260046020526040812080549091906111b39084906119b9565b90915550506040518181526001600160a01b038416907f2d43ea61b7c8e308e2f5c3c60b0351dfe714e07a35ce38baa3e308a7cb43aeb390602001610f44565b6000546001600160a01b031633146112445760405162461bcd60e51b81526020600482015260146024820152735472616461626c653a204e4f545f4f574e45522160601b60448201526064016102de565b6001600160a01b0382166000908152600460205260409020548111611296576001600160a01b0382166000908152600460205260408120805483929061128b908490611957565b909155506112b09050565b6001600160a01b0382166000908152600460205260408120555b816001600160a01b03167f4b4d1dc9dbd19fb249437ecbdc03676fcf95ee3fce7dfb669251847e42a284098260405161092d91815260200190565b6112f361160f565b600180546001600160a01b0383166001600160a01b031990911681179091556113246000546001600160a01b031690565b6001600160a01b03167f38d16b8cac22d99fc7c124b9cd0de2d3fa1faef420bfe791d8c362d765e2270060405160405180910390a350565b60008260200151600a61136f9190611afd565b600360009054906101000a90046001600160a01b03166001600160a01b0316636a6aa9836040518163ffffffff1660e01b8152600401602060405180830381865afa1580156113c2573d6000803e3d6000fd5b505050506040513d601f19601f820116820180604052508101906113e69190611b0c565b6113f190600a611afd565b6113fb9084611b29565b6114059190611b40565b90505b92915050565b6003546040516316d3759560e01b81526001600160a01b038481166004830152909116906316d3759590602401602060405180830381865afa158015611458573d6000803e3d6000fd5b505050506040513d601f19601f8201168201806040525081019061147c91906118cb565b6114c85760405162461bcd60e51b815260206004820152601960248201527f696e76616c69642d7661756c742d696e666f726d6174696f6e0000000000000060448201526064016102de565b600360009054906101000a90046001600160a01b03166001600160a01b031663c95c544b6040518163ffffffff1660e01b8152600401602060405180830381865afa15801561151b573d6000803e3d6000fd5b505050506040513d601f19601f8201168201806040525081019061153f91906118ae565b60035460405163254f270360e21b81526001600160a01b0385811660048301529283169263f11bc73e92169063953c9c0c90602401606060405180830381865afa158015611591573d6000803e3d6000fd5b505050506040513d601f19601f820116820180604052508101906115b59190611b62565b6020015184846040518463ffffffff1660e01b81526004016115d993929190611bbd565b600060405180830381600087803b1580156115f357600080fd5b505af1158015611607573d6000803e3d6000fd5b505050505050565b6000546001600160a01b031633146107fc5760405162461bcd60e51b815260206004820181905260248201527f4f776e61626c653a2063616c6c6572206973206e6f7420746865206f776e657260448201526064016102de565b600180546001600160a01b031916905561087581600080546001600160a01b038381166001600160a01b0319831681178455604051919092169283917f8be0079c531659141344cd1fd0a4f28419497f9722a3daafe3b4186f6b6457e09190a35050565b6001600160a01b038116811461087557600080fd5b6040516060810167ffffffffffffffff8111828210171561171357634e487b7160e01b600052604160045260246000fd5b60405290565b60ff8116811461087557600080fd5b801515811461087557600080fd5b60006060828403121561174857600080fd5b6117506116e2565b9050813561175d816116cd565b8152602082013561176d81611719565b6020820152604082013561178081611728565b604082015292915050565b60008060008060c085870312156117a157600080fd5b84356117ac816116cd565b93506117bb8660208701611736565b92506080850135915060a08501356117d2816116cd565b939692955090935050565b6000602082840312156117ef57600080fd5b81356117fa816116cd565b9392505050565b6000806040838503121561181457600080fd5b823561181f816116cd565b946020939093013593505050565b60008060006060848603121561184257600080fd5b833561184d816116cd565b925060208401359150604084013561186481611728565b809150509250925092565b600080600060a0848603121561188457600080fd5b833561188f816116cd565b925061189e8560208601611736565b9150608084013590509250925092565b6000602082840312156118c057600080fd5b81516117fa816116cd565b6000602082840312156118dd57600080fd5b81516117fa81611728565b6001600160a01b03858116825260c0820190611929602084018780516001600160a01b0316825260208082015160ff16908301526040908101511515910152565b84608084015280841660a08401525095945050505050565b634e487b7160e01b600052601160045260246000fd5b8181038181111561140857611408611941565b6020808252600f908201526e696e76616c69642d6164647265737360881b604082015260600190565b6020808252600c908201526b1d5b985d5d1a1bdc9a5e995960a21b604082015260600190565b8082018082111561140857611408611941565b6001600160a01b038416815260a08101611a0b602083018580516001600160a01b0316825260208082015160ff16908301526040908101511515910152565b826080830152949350505050565b600181815b80851115611a54578160001904821115611a3a57611a3a611941565b80851615611a4757918102915b93841c9390800290611a1e565b509250929050565b600082611a6b57506001611408565b81611a7857506000611408565b8160018114611a8e5760028114611a9857611ab4565b6001915050611408565b60ff841115611aa957611aa9611941565b50506001821b611408565b5060208310610133831016604e8410600b8410161715611ad7575081810a611408565b611ae18383611a19565b8060001904821115611af557611af5611941565b029392505050565b600061140560ff841683611a5c565b600060208284031215611b1e57600080fd5b81516117fa81611719565b808202811582820484141761140857611408611941565b600082611b5d57634e487b7160e01b600052601260045260246000fd5b500490565b600060608284031215611b7457600080fd5b611b7c6116e2565b8251611b87816116cd565b8152602083015161ffff81168114611b9e57600080fd5b60208201526040830151611bb181611728565b60408201529392505050565b61ffff841681526000602060018060a01b0385168184015260606040840152835180606085015260005b81811015611c0357858101830151858201608001528201611be7565b506000608082860101526080601f19601f8301168501019250505094935050505056fea2646970667358221220783ea2cc2c79ae3546c270e48b415e31e453137f06476298aa283134789b1fa964736f6c63430008130033",
  "linkReferences": {},
  "deployedLinkReferences": {}
}