{
  "_format": "hh-sol-artifact-1",
  "contractName": "TradableSettingsMessageAdapter",
  "sourceName": "contracts/TradableSettingsMessageAdapter.sol",
  "abi": [
    {
      "inputs": [
        {
          "internalType": "address",
          "name": "_settingsProvider",
          "type": "address"
        },
        {
          "internalType": "address",
          "name": "_endpoint",
          "type": "address"
        }
      ],
      "stateMutability": "nonpayable",
      "type": "constructor"
    },
    {
      "anonymous": false,
      "inputs": [
        {
          "indexed": false,
          "internalType": "uint16",
          "name": "_srcChainId",
          "type": "uint16"
        },
        {
          "indexed": false,
          "internalType": "bytes",
          "name": "_srcAddress",
          "type": "bytes"
        },
        {
          "indexed": false,
          "internalType": "uint64",
          "name": "_nonce",
          "type": "uint64"
        },
        {
          "indexed": false,
          "internalType": "bytes",
          "name": "_payload",
          "type": "bytes"
        }
      ],
      "name": "MessageFailed",
      "type": "event"
    },
    {
      "anonymous": false,
      "inputs": [
        {
          "indexed": true,
          "internalType": "address",
          "name": "previousOwner",
          "type": "address"
        },
        {
          "indexed": true,
          "internalType": "address",
          "name": "newOwner",
          "type": "address"
        }
      ],
      "name": "OwnershipTransferStarted",
      "type": "event"
    },
    {
      "anonymous": false,
      "inputs": [
        {
          "indexed": true,
          "internalType": "address",
          "name": "previousOwner",
          "type": "address"
        },
        {
          "indexed": true,
          "internalType": "address",
          "name": "newOwner",
          "type": "address"
        }
      ],
      "name": "OwnershipTransferred",
      "type": "event"
    },
    {
      "anonymous": false,
      "inputs": [
        {
          "indexed": false,
          "internalType": "uint16",
          "name": "_srcChainId",
          "type": "uint16"
        },
        {
          "indexed": false,
          "internalType": "bytes",
          "name": "_srcAddress",
          "type": "bytes"
        }
      ],
      "name": "SetTrustedRemote",
      "type": "event"
    },
    {
      "inputs": [],
      "name": "acceptOwnership",
      "outputs": [],
      "stateMutability": "nonpayable",
      "type": "function"
    },
    {
      "inputs": [
        {
          "internalType": "address",
          "name": "",
          "type": "address"
        }
      ],
      "name": "acceptedCallersMap",
      "outputs": [
        {
          "internalType": "bool",
          "name": "",
          "type": "bool"
        }
      ],
      "stateMutability": "view",
      "type": "function"
    },
    {
      "inputs": [
        {
          "internalType": "address",
          "name": "caller",
          "type": "address"
        }
      ],
      "name": "addAcceptedCaller",
      "outputs": [],
      "stateMutability": "nonpayable",
      "type": "function"
    },
    {
      "inputs": [],
      "name": "endpoint",
      "outputs": [
        {
          "internalType": "address",
          "name": "",
          "type": "address"
        }
      ],
      "stateMutability": "view",
      "type": "function"
    },
    {
      "inputs": [
        {
          "internalType": "uint16",
          "name": "",
          "type": "uint16"
        },
        {
          "internalType": "bytes",
          "name": "",
          "type": "bytes"
        },
        {
          "internalType": "uint64",
          "name": "",
          "type": "uint64"
        }
      ],
      "name": "failedMessages",
      "outputs": [
        {
          "internalType": "bytes32",
          "name": "",
          "type": "bytes32"
        }
      ],
      "stateMutability": "view",
      "type": "function"
    },
    {
      "inputs": [
        {
          "internalType": "uint16",
          "name": "_srcChainId",
          "type": "uint16"
        },
        {
          "internalType": "bytes",
          "name": "_srcAddress",
          "type": "bytes"
        }
      ],
      "name": "forceResumeReceive",
      "outputs": [],
      "stateMutability": "nonpayable",
      "type": "function"
    },
    {
      "inputs": [
        {
          "internalType": "uint16",
          "name": "_version",
          "type": "uint16"
        },
        {
          "internalType": "uint16",
          "name": "_chainId",
          "type": "uint16"
        },
        {
          "internalType": "address",
          "name": "",
          "type": "address"
        },
        {
          "internalType": "uint256",
          "name": "_configType",
          "type": "uint256"
        }
      ],
      "name": "getConfig",
      "outputs": [
        {
          "internalType": "bytes",
          "name": "",
          "type": "bytes"
        }
      ],
      "stateMutability": "view",
      "type": "function"
    },
    {
      "inputs": [
        {
          "internalType": "uint16",
          "name": "_srcChainId",
          "type": "uint16"
        },
        {
          "internalType": "bytes",
          "name": "_srcAddress",
          "type": "bytes"
        }
      ],
      "name": "isTrustedRemote",
      "outputs": [
        {
          "internalType": "bool",
          "name": "",
          "type": "bool"
        }
      ],
      "stateMutability": "view",
      "type": "function"
    },
    {
      "inputs": [],
      "name": "lzEndpoint",
      "outputs": [
        {
          "internalType": "contract ILayerZeroEndpoint",
          "name": "",
          "type": "address"
        }
      ],
      "stateMutability": "view",
      "type": "function"
    },
    {
      "inputs": [
        {
          "internalType": "uint16",
          "name": "_srcChainId",
          "type": "uint16"
        },
        {
          "internalType": "bytes",
          "name": "_srcAddress",
          "type": "bytes"
        },
        {
          "internalType": "uint64",
          "name": "_nonce",
          "type": "uint64"
        },
        {
          "internalType": "bytes",
          "name": "_payload",
          "type": "bytes"
        }
      ],
      "name": "lzReceive",
      "outputs": [],
      "stateMutability": "nonpayable",
      "type": "function"
    },
    {
      "inputs": [
        {
          "internalType": "uint16",
          "name": "_srcChainId",
          "type": "uint16"
        },
        {
          "internalType": "bytes",
          "name": "_srcAddress",
          "type": "bytes"
        },
        {
          "internalType": "uint64",
          "name": "_nonce",
          "type": "uint64"
        },
        {
          "internalType": "bytes",
          "name": "_payload",
          "type": "bytes"
        }
      ],
      "name": "nonblockingLzReceive",
      "outputs": [],
      "stateMutability": "nonpayable",
      "type": "function"
    },
    {
      "inputs": [],
      "name": "owner",
      "outputs": [
        {
          "internalType": "address",
          "name": "",
          "type": "address"
        }
      ],
      "stateMutability": "view",
      "type": "function"
    },
    {
      "inputs": [],
      "name": "pendingOwner",
      "outputs": [
        {
          "internalType": "address",
          "name": "",
          "type": "address"
        }
      ],
      "stateMutability": "view",
      "type": "function"
    },
    {
      "inputs": [
        {
          "internalType": "address",
          "name": "caller",
          "type": "address"
        }
      ],
      "name": "removeAcceptedCaller",
      "outputs": [],
      "stateMutability": "nonpayable",
      "type": "function"
    },
    {
      "inputs": [],
      "name": "renounceOwnership",
      "outputs": [],
      "stateMutability": "nonpayable",
      "type": "function"
    },
    {
      "inputs": [
        {
          "internalType": "uint16",
          "name": "_srcChainId",
          "type": "uint16"
        },
        {
          "internalType": "bytes",
          "name": "_srcAddress",
          "type": "bytes"
        },
        {
          "internalType": "uint64",
          "name": "_nonce",
          "type": "uint64"
        },
        {
          "internalType": "bytes",
          "name": "_payload",
          "type": "bytes"
        }
      ],
      "name": "retryMessage",
      "outputs": [],
      "stateMutability": "payable",
      "type": "function"
    },
    {
      "inputs": [
        {
          "internalType": "uint16",
          "name": "_destinationChainId",
          "type": "uint16"
        },
        {
          "internalType": "address",
          "name": "destinationVault",
          "type": "address"
        },
        {
          "internalType": "bytes",
          "name": "payload",
          "type": "bytes"
        }
      ],
      "name": "sendMessage",
      "outputs": [],
      "stateMutability": "nonpayable",
      "type": "function"
    },
    {
      "inputs": [
        {
          "internalType": "uint16",
          "name": "_version",
          "type": "uint16"
        },
        {
          "internalType": "uint16",
          "name": "_chainId",
          "type": "uint16"
        },
        {
          "internalType": "uint256",
          "name": "_configType",
          "type": "uint256"
        },
        {
          "internalType": "bytes",
          "name": "_config",
          "type": "bytes"
        }
      ],
      "name": "setConfig",
      "outputs": [],
      "stateMutability": "nonpayable",
      "type": "function"
    },
    {
      "inputs": [
        {
          "internalType": "uint16",
          "name": "_version",
          "type": "uint16"
        }
      ],
      "name": "setReceiveVersion",
      "outputs": [],
      "stateMutability": "nonpayable",
      "type": "function"
    },
    {
      "inputs": [
        {
          "internalType": "uint16",
          "name": "_version",
          "type": "uint16"
        }
      ],
      "name": "setSendVersion",
      "outputs": [],
      "stateMutability": "nonpayable",
      "type": "function"
    },
    {
      "inputs": [
        {
          "internalType": "address",
          "name": "newSettingsProvider",
          "type": "address"
        }
      ],
      "name": "setSettingsProvider",
      "outputs": [],
      "stateMutability": "nonpayable",
      "type": "function"
    },
    {
      "inputs": [
        {
          "internalType": "uint16",
          "name": "_srcChainId",
          "type": "uint16"
        },
        {
          "internalType": "bytes",
          "name": "_srcAddress",
          "type": "bytes"
        }
      ],
      "name": "setTrustedRemote",
      "outputs": [],
      "stateMutability": "nonpayable",
      "type": "function"
    },
    {
      "inputs": [],
      "name": "settingsProvider",
      "outputs": [
        {
          "internalType": "address",
          "name": "",
          "type": "address"
        }
      ],
      "stateMutability": "view",
      "type": "function"
    },
    {
      "inputs": [
        {
          "internalType": "address",
          "name": "newOwner",
          "type": "address"
        }
      ],
      "name": "transferOwnership",
      "outputs": [],
      "stateMutability": "nonpayable",
      "type": "function"
    },
    {
      "inputs": [
        {
          "internalType": "uint16",
          "name": "",
          "type": "uint16"
        }
      ],
      "name": "trustedRemoteLookup",
      "outputs": [
        {
          "internalType": "bytes",
          "name": "",
          "type": "bytes"
        }
      ],
      "stateMutability": "view",
      "type": "function"
    },
    {
      "inputs": [
        {
          "internalType": "address",
          "name": "to",
          "type": "address"
        }
      ],
      "name": "withdrawStuckETH",
      "outputs": [],
      "stateMutability": "nonpayable",
      "type": "function"
    },
    {
      "stateMutability": "payable",
      "type": "receive"
    }
  ],
  "bytecode": "0x60a06040523480156200001157600080fd5b50604051620022a1380380620022a183398101604081905262000034916200017b565b80806200004133620000f0565b6001600160a01b0390811660805282169050620000a45760405162461bcd60e51b815260206004820152601f60248201527f5472616461626c653a205a45524f5f414444524553535f454e44504f494e5400604482015260640160405180910390fd5b600580546001600160a01b039283166001600160a01b03199182161790915560048054939092169216821790556000908152600660205260409020805460ff19166001179055620001b3565b600180546001600160a01b03191690556200010b816200010e565b50565b600080546001600160a01b038381166001600160a01b0319831681178455604051919092169283917f8be0079c531659141344cd1fd0a4f28419497f9722a3daafe3b4186f6b6457e09190a35050565b80516001600160a01b03811681146200017657600080fd5b919050565b600080604083850312156200018f57600080fd5b6200019a836200015e565b9150620001aa602084016200015e565b90509250929050565b60805161209a6200020760003960008181610433015281816105490152818161070e0152818161086301528181610a9301528181610d9101528181611257015281816113a401526114c8015261209a6000f3fe6080604052600436106101845760003560e01c80637533d788116100d1578063d1deba1f1161008a578063eb8d72b711610064578063eb8d72b7146104c6578063f11bc73e146104e6578063f2fde38b14610506578063f5ecbdbc1461052657600080fd5b8063d1deba1f14610475578063d201b01e14610488578063e30c3978146104a857600080fd5b80637533d788146103a157806379ba5097146103ce578063807c21cc146103e35780638da5cb5b14610403578063b353aaa714610421578063cbed8b9c1461045557600080fd5b80633d8b38f61161013e5780635b8c41e6116101185780635b8c41e6146102ef5780635e280f111461034c57806366ad5c8a1461036c578063715018a61461038c57600080fd5b80633d8b38f61461026f57806342d65a8d1461029f57806358436d6d146102bf57600080fd5b80621d35671461019057806307e0db17146101b257806309c77c1c146101d257806310ddb137146101f25780631785b587146102125780632eed0e5d1461024f57600080fd5b3661018b57005b600080fd5b34801561019c57600080fd5b506101b06101ab3660046118e2565b610546565b005b3480156101be57600080fd5b506101b06101cd366004611966565b6106ed565b3480156101de57600080fd5b506101b06101ed366004611996565b61076f565b3480156101fe57600080fd5b506101b061020d366004611966565b610842565b34801561021e57600080fd5b50600454610232906001600160a01b031681565b6040516001600160a01b0390911681526020015b60405180910390f35b34801561025b57600080fd5b506101b061026a366004611996565b61089a565b34801561027b57600080fd5b5061028f61028a3660046119fb565b6109a7565b6040519015158152602001610246565b3480156102ab57600080fd5b506101b06102ba3660046119fb565b610a74565b3480156102cb57600080fd5b5061028f6102da366004611996565b60066020526000908152604090205460ff1681565b3480156102fb57600080fd5b5061033e61030a366004611a4d565b6003602090815260009384526040808520845180860184018051928152908401958401959095209452929052825290205481565b604051908152602001610246565b34801561035857600080fd5b50600554610232906001600160a01b031681565b34801561037857600080fd5b506101b06103873660046118e2565b610b03565b34801561039857600080fd5b506101b0610b73565b3480156103ad57600080fd5b506103c16103bc366004611966565b610b87565b6040516102469190611afa565b3480156103da57600080fd5b506101b0610c21565b3480156103ef57600080fd5b506101b06103fe366004611996565b610c9b565b34801561040f57600080fd5b506000546001600160a01b0316610232565b34801561042d57600080fd5b506102327f000000000000000000000000000000000000000000000000000000000000000081565b34801561046157600080fd5b506101b0610470366004611b0d565b610d72565b6101b06104833660046118e2565b610e07565b34801561049457600080fd5b506101b06104a3366004611996565b610f59565b3480156104b457600080fd5b506001546001600160a01b0316610232565b3480156104d257600080fd5b506101b06104e13660046119fb565b6110fe565b3480156104f257600080fd5b506101b0610501366004611b7b565b611165565b34801561051257600080fd5b506101b0610521366004611996565b611426565b34801561053257600080fd5b506103c1610541366004611bda565b611497565b337f00000000000000000000000000000000000000000000000000000000000000006001600160a01b0316146105c35760405162461bcd60e51b815260206004820152601e60248201527f4c7a4170703a20696e76616c696420656e64706f696e742063616c6c6572000060448201526064015b60405180910390fd5b61ffff8416600090815260026020526040812080546105e190611c27565b80601f016020809104026020016040519081016040528092919081815260200182805461060d90611c27565b801561065a5780601f1061062f5761010080835404028352916020019161065a565b820191906000526020600020905b81548152906001019060200180831161063d57829003601f168201915b505050505090508051845114801561067f575080805190602001208480519060200120145b6106da5760405162461bcd60e51b815260206004820152602660248201527f4c7a4170703a20696e76616c696420736f757263652073656e64696e6720636f6044820152651b9d1c9858dd60d21b60648201526084016105ba565b6106e685858585611548565b5050505050565b6106f5611639565b6040516307e0db1760e01b815261ffff821660048201527f00000000000000000000000000000000000000000000000000000000000000006001600160a01b0316906307e0db17906024015b600060405180830381600087803b15801561075b57600080fd5b505af11580156106e6573d6000803e3d6000fd5b6004546001600160a01b031633146107b95760405162461bcd60e51b815260206004820152600d60248201526c085d5b985d5d1a1bdc9a5e9959609a1b60448201526064016105ba565b6001600160a01b03811660009081526006602052604090205460ff166108215760405162461bcd60e51b815260206004820152601c60248201527f2163616c6c65722d616c72656164792d6e6f742d617070726f7665640000000060448201526064016105ba565b6001600160a01b03166000908152600660205260409020805460ff19169055565b61084a611639565b6040516310ddb13760e01b815261ffff821660048201527f00000000000000000000000000000000000000000000000000000000000000006001600160a01b0316906310ddb13790602401610741565b6004805460408051633544f31160e21b815290516001600160a01b039092169263d513cc449282820192602092908290030181865afa1580156108e1573d6000803e3d6000fd5b505050506040513d601f19601f820116820180604052508101906109059190611c61565b6001600160a01b0316336001600160a01b0316146109575760405162461bcd60e51b815260206004820152600f60248201526e10b4b73b30b634b216b9b2b73232b960891b60448201526064016105ba565b600480546001600160a01b03908116600090815260066020526040808220805460ff1990811690915584546001600160a01b03191695909316948517909355928352912080549091166001179055565b61ffff8316600090815260026020526040812080548291906109c890611c27565b80601f01602080910402602001604051908101604052809291908181526020018280546109f490611c27565b8015610a415780601f10610a1657610100808354040283529160200191610a41565b820191906000526020600020905b815481529060010190602001808311610a2457829003601f168201915b505050505090508383604051610a58929190611c7e565b60405180910390208180519060200120149150505b9392505050565b610a7c611639565b6040516342d65a8d60e01b81526001600160a01b037f000000000000000000000000000000000000000000000000000000000000000016906342d65a8d90610acc90869086908690600401611cb7565b600060405180830381600087803b158015610ae657600080fd5b505af1158015610afa573d6000803e3d6000fd5b50505050505050565b333014610b615760405162461bcd60e51b815260206004820152602660248201527f4e6f6e626c6f636b696e674c7a4170703a2063616c6c6572206d7573742062656044820152650204c7a4170760d41b60648201526084016105ba565b610b6d84848484611693565b50505050565b610b7b611639565b610b85600061178d565b565b60026020526000908152604090208054610ba090611c27565b80601f0160208091040260200160405190810160405280929190818152602001828054610bcc90611c27565b8015610c195780601f10610bee57610100808354040283529160200191610c19565b820191906000526020600020905b815481529060010190602001808311610bfc57829003601f168201915b505050505081565b60015433906001600160a01b03168114610c8f5760405162461bcd60e51b815260206004820152602960248201527f4f776e61626c6532537465703a2063616c6c6572206973206e6f7420746865206044820152683732bb9037bbb732b960b91b60648201526084016105ba565b610c988161178d565b50565b6004546001600160a01b03163314610ce55760405162461bcd60e51b815260206004820152600d60248201526c085d5b985d5d1a1bdc9a5e9959609a1b60448201526064016105ba565b6001600160a01b03811660009081526006602052604090205460ff1615610d4e5760405162461bcd60e51b815260206004820152601860248201527f2163616c6c65722d616c72656164792d617070726f766564000000000000000060448201526064016105ba565b6001600160a01b03166000908152600660205260409020805460ff19166001179055565b610d7a611639565b6040516332fb62e760e21b81526001600160a01b037f0000000000000000000000000000000000000000000000000000000000000000169063cbed8b9c90610dce9088908890889088908890600401611cd5565b600060405180830381600087803b158015610de857600080fd5b505af1158015610dfc573d6000803e3d6000fd5b505050505050505050565b61ffff84166000908152600360205260408082209051610e28908690611d0e565b90815260408051602092819003830190206001600160401b03861660009081529252902054905080610ea85760405162461bcd60e51b815260206004820152602360248201527f4e6f6e626c6f636b696e674c7a4170703a206e6f2073746f726564206d65737360448201526261676560e81b60648201526084016105ba565b815160208301208114610f075760405162461bcd60e51b815260206004820152602160248201527f4e6f6e626c6f636b696e674c7a4170703a20696e76616c6964207061796c6f616044820152601960fa1b60648201526084016105ba565b61ffff85166000908152600360205260408082209051610f28908790611d0e565b90815260408051602092819003830190206001600160401b038716600090815292529020556106e685858585611693565b6004805460408051633544f31160e21b815290516001600160a01b039092169263d513cc449282820192602092908290030181865afa158015610fa0573d6000803e3d6000fd5b505050506040513d601f19601f82011682018060405250810190610fc49190611c61565b6001600160a01b0316336001600160a01b0316146110135760405162461bcd60e51b815260206004820152600c60248201526b1d5b985d5d1a1bdc9a5e995960a21b60448201526064016105ba565b6001600160a01b0381166110625760405162461bcd60e51b81526020600482015260166024820152755472616461626c653a205a45524f5f4144445245535360501b60448201526064016105ba565b6000816001600160a01b03164760405160006040518083038185875af1925050503d80600081146110af576040519150601f19603f3d011682016040523d82523d6000602084013e6110b4565b606091505b50509050806110fa5760405162461bcd60e51b8152602060048201526012602482015271151c985918589b194e881393d517d4d1539560721b60448201526064016105ba565b5050565b611106611639565b61ffff83166000908152600260205260409020611124828483611d79565b507ffa41487ad5d6728f0b19276fa1eddc16558578f5109fc39d2dc33c3230470dab83838360405161115893929190611cb7565b60405180910390a1505050565b6001600160a01b0382166111bb5760405162461bcd60e51b815260206004820152601d60248201527f5472616461626c653a20494e56414c49445f44455354494e4154494f4e00000060448201526064016105ba565b3360009081526006602052604090205460ff1661120c5760405162461bcd60e51b815260206004820152600f60248201526e10b4b73b30b634b216b9b2b73232b960891b60448201526064016105ba565b604051600160f01b6020820152620557306022820181905260019160009060420160408051601f198184030181529082905263040a7bb160e41b825291506000906001600160a01b037f000000000000000000000000000000000000000000000000000000000000000016906340a7bb1090611294908a9030908a9087908990600401611e38565b6040805180830381865afa1580156112b0573d6000803e3d6000fd5b505050506040513d601f19601f820116820180604052508101906112d49190611e8c565b5090508047101561135c5760405162461bcd60e51b815260206004820152604660248201527f616464726573732874686973292e62616c616e6365203c206d6573736167654660448201527f65652e2066756e64207468697320636f6e74726163742077697468206d6f72656064820152651032ba3432b960d11b608482015260a4016105ba565b60408051606088811b6bffffffffffffffffffffffff199081166020840152309182901b16603483015282516028818403018152604883019384905262c5803160e81b9093527f00000000000000000000000000000000000000000000000000000000000000006001600160a01b03169263c58031009285926113eb928d9290918c9181908b90604c01611eb0565b6000604051808303818588803b15801561140457600080fd5b505af1158015611418573d6000803e3d6000fd5b505050505050505050505050565b61142e611639565b600180546001600160a01b0383166001600160a01b0319909116811790915561145f6000546001600160a01b031690565b6001600160a01b03167f38d16b8cac22d99fc7c124b9cd0de2d3fa1faef420bfe791d8c362d765e2270060405160405180910390a350565b604051633d7b2f6f60e21b815261ffff808616600483015284166024820152306044820152606481018290526060907f00000000000000000000000000000000000000000000000000000000000000006001600160a01b03169063f5ecbdbc90608401600060405180830381865afa158015611517573d6000803e3d6000fd5b505050506040513d6000823e601f3d908101601f1916820160405261153f9190810190611f67565b95945050505050565b604051633356ae4560e11b815230906366ad5c8a90611571908790879087908790600401611fa3565b600060405180830381600087803b15801561158b57600080fd5b505af192505050801561159c575060015b610b6d578080519060200120600360008661ffff1661ffff168152602001908152602001600020846040516115d19190611d0e565b9081526040805191829003602090810183206001600160401b0387166000908152915220919091557fe6f254030bcb01ffd20558175c13fcaed6d1520be7becee4c961b65f79243b0d9061162c908690869086908690611fa3565b60405180910390a1610b6d565b6000546001600160a01b03163314610b855760405162461bcd60e51b815260206004820181905260248201527f4f776e61626c653a2063616c6c6572206973206e6f7420746865206f776e657260448201526064016105ba565b600080828060200190518101906116aa9190611fe1565b6001600160a01b038216600090815260066020526040902054919450925060ff16905061170b5760405162461bcd60e51b815260206004820152600f60248201526e10b4b73b30b634b216b1b0b63632b960891b60448201526064016105ba565b600080836001600160a01b0316836040516117269190611d0e565b6000604051808303816000865af19150503d8060008114611763576040519150601f19603f3d011682016040523d82523d6000602084013e611768565b606091505b5091509150818190610dfc5760405162461bcd60e51b81526004016105ba9190611afa565b600180546001600160a01b0319169055610c9881600080546001600160a01b038381166001600160a01b0319831681178455604051919092169283917f8be0079c531659141344cd1fd0a4f28419497f9722a3daafe3b4186f6b6457e09190a35050565b803561ffff8116811461180357600080fd5b919050565b634e487b7160e01b600052604160045260246000fd5b604051601f8201601f191681016001600160401b038111828210171561184657611846611808565b604052919050565b60006001600160401b0382111561186757611867611808565b50601f01601f191660200190565b600082601f83011261188657600080fd5b81356118996118948261184e565b61181e565b8181528460208386010111156118ae57600080fd5b816020850160208301376000918101602001919091529392505050565b80356001600160401b038116811461180357600080fd5b600080600080608085870312156118f857600080fd5b611901856117f1565b935060208501356001600160401b038082111561191d57600080fd5b61192988838901611875565b9450611937604088016118cb565b9350606087013591508082111561194d57600080fd5b5061195a87828801611875565b91505092959194509250565b60006020828403121561197857600080fd5b610a6d826117f1565b6001600160a01b0381168114610c9857600080fd5b6000602082840312156119a857600080fd5b8135610a6d81611981565b60008083601f8401126119c557600080fd5b5081356001600160401b038111156119dc57600080fd5b6020830191508360208285010111156119f457600080fd5b9250929050565b600080600060408486031215611a1057600080fd5b611a19846117f1565b925060208401356001600160401b03811115611a3457600080fd5b611a40868287016119b3565b9497909650939450505050565b600080600060608486031215611a6257600080fd5b611a6b846117f1565b925060208401356001600160401b03811115611a8657600080fd5b611a9286828701611875565b925050611aa1604085016118cb565b90509250925092565b60005b83811015611ac5578181015183820152602001611aad565b50506000910152565b60008151808452611ae6816020860160208601611aaa565b601f01601f19169290920160200192915050565b602081526000610a6d6020830184611ace565b600080600080600060808688031215611b2557600080fd5b611b2e866117f1565b9450611b3c602087016117f1565b93506040860135925060608601356001600160401b03811115611b5e57600080fd5b611b6a888289016119b3565b969995985093965092949392505050565b600080600060608486031215611b9057600080fd5b611b99846117f1565b92506020840135611ba981611981565b915060408401356001600160401b03811115611bc457600080fd5b611bd086828701611875565b9150509250925092565b60008060008060808587031215611bf057600080fd5b611bf9856117f1565b9350611c07602086016117f1565b92506040850135611c1781611981565b9396929550929360600135925050565b600181811c90821680611c3b57607f821691505b602082108103611c5b57634e487b7160e01b600052602260045260246000fd5b50919050565b600060208284031215611c7357600080fd5b8151610a6d81611981565b8183823760009101908152919050565b81835281816020850137506000828201602090810191909152601f909101601f19169091010190565b61ffff8416815260406020820152600061153f604083018486611c8e565b600061ffff808816835280871660208401525084604083015260806060830152611d03608083018486611c8e565b979650505050505050565b60008251611d20818460208701611aaa565b9190910192915050565b601f821115611d7457600081815260208120601f850160051c81016020861015611d515750805b601f850160051c820191505b81811015611d7057828155600101611d5d565b5050505b505050565b6001600160401b03831115611d9057611d90611808565b611da483611d9e8354611c27565b83611d2a565b6000601f841160018114611dd85760008515611dc05750838201355b600019600387901b1c1916600186901b1783556106e6565b600083815260209020601f19861690835b82811015611e095786850135825560209485019460019092019101611de9565b5086821015611e265760001960f88860031b161c19848701351681555b505060018560011b0183555050505050565b61ffff861681526001600160a01b038516602082015260a060408201819052600090611e6690830186611ace565b84151560608401528281036080840152611e808185611ace565b98975050505050505050565b60008060408385031215611e9f57600080fd5b505080516020909101519092909150565b61ffff8716815260c060208201526000611ecd60c0830188611ace565b8281036040840152611edf8188611ace565b6001600160a01b0387811660608601528616608085015283810360a08501529050611f0a8185611ace565b9998505050505050505050565b6000611f256118948461184e565b9050828152838383011115611f3957600080fd5b610a6d836020830184611aaa565b600082601f830112611f5857600080fd5b610a6d83835160208501611f17565b600060208284031215611f7957600080fd5b81516001600160401b03811115611f8f57600080fd5b611f9b84828501611f47565b949350505050565b61ffff85168152608060208201526000611fc06080830186611ace565b6001600160401b03851660408401528281036060840152611d038185611ace565b600080600060608486031215611ff657600080fd5b83516001600160401b038082111561200d57600080fd5b818601915086601f83011261202157600080fd5b61203087835160208501611f17565b94506020860151915061204282611981565b60408601519193508082111561205757600080fd5b50611bd086828701611f4756fea264697066735822122063f59cc4df2710ac8f0e7252312b193f75c3ddedc5e2bdbcff2c624d2a2c596e64736f6c63430008130033",
  "linkReferences": {},
  "deployedLinkReferences": {}
}