{
  "_format": "hh-sol-artifact-1",
  "contractName": "TradableMarginHandler",
  "sourceName": "contracts/TradableMarginHandler.sol",
  "abi": [
    {
      "inputs": [
        {
          "internalType": "address",
          "name": "_settingsProvider",
          "type": "address"
        },
        {
          "internalType": "address",
          "name": "_vault",
          "type": "address"
        },
        {
          "internalType": "address",
          "name": "_gelatoRelay1Balance",
          "type": "address"
        }
      ],
      "stateMutability": "nonpayable",
      "type": "constructor"
    },
    {
      "anonymous": false,
      "inputs": [
        {
          "indexed": false,
          "internalType": "address",
          "name": "user",
          "type": "address"
        },
        {
          "components": [
            {
              "internalType": "address",
              "name": "token",
              "type": "address"
            },
            {
              "internalType": "uint8",
              "name": "decimals",
              "type": "uint8"
            },
            {
              "internalType": "bool",
              "name": "isActive",
              "type": "bool"
            }
          ],
          "indexed": false,
          "internalType": "struct ITradableSettings.AcceptedToken",
          "name": "selectedToken",
          "type": "tuple"
        },
        {
          "indexed": false,
          "internalType": "uint256",
          "name": "amount",
          "type": "uint256"
        },
        {
          "indexed": false,
          "internalType": "uint256",
          "name": "positionId",
          "type": "uint256"
        }
      ],
      "name": "DepositIntoMarketMakerPositionValidated",
      "type": "event"
    },
    {
      "anonymous": false,
      "inputs": [
        {
          "indexed": false,
          "internalType": "address",
          "name": "user",
          "type": "address"
        },
        {
          "indexed": false,
          "internalType": "enum ITradableSettings.UserType",
          "name": "userType",
          "type": "uint8"
        },
        {
          "indexed": false,
          "internalType": "address",
          "name": "token",
          "type": "address"
        },
        {
          "indexed": false,
          "internalType": "uint256",
          "name": "amount",
          "type": "uint256"
        }
      ],
      "name": "MarginDepositValidated",
      "type": "event"
    },
    {
      "anonymous": false,
      "inputs": [
        {
          "indexed": false,
          "internalType": "address",
          "name": "user",
          "type": "address"
        },
        {
          "indexed": false,
          "internalType": "enum ITradableSettings.UserType",
          "name": "userType",
          "type": "uint8"
        },
        {
          "indexed": false,
          "internalType": "address",
          "name": "token",
          "type": "address"
        },
        {
          "indexed": false,
          "internalType": "uint256",
          "name": "amount",
          "type": "uint256"
        },
        {
          "indexed": false,
          "internalType": "address",
          "name": "receiver",
          "type": "address"
        }
      ],
      "name": "MarginWithdrawalToAddressValidated",
      "type": "event"
    },
    {
      "anonymous": false,
      "inputs": [
        {
          "indexed": false,
          "internalType": "address",
          "name": "user",
          "type": "address"
        },
        {
          "indexed": false,
          "internalType": "enum ITradableSettings.UserType",
          "name": "userType",
          "type": "uint8"
        },
        {
          "indexed": false,
          "internalType": "address",
          "name": "token",
          "type": "address"
        },
        {
          "indexed": false,
          "internalType": "uint256",
          "name": "amount",
          "type": "uint256"
        }
      ],
      "name": "MarginWithdrawalValidated",
      "type": "event"
    },
    {
      "anonymous": false,
      "inputs": [
        {
          "indexed": false,
          "internalType": "address",
          "name": "user",
          "type": "address"
        },
        {
          "components": [
            {
              "internalType": "address",
              "name": "token",
              "type": "address"
            },
            {
              "internalType": "uint8",
              "name": "decimals",
              "type": "uint8"
            },
            {
              "internalType": "bool",
              "name": "isActive",
              "type": "bool"
            }
          ],
          "indexed": false,
          "internalType": "struct ITradableSettings.AcceptedToken",
          "name": "selectedToken",
          "type": "tuple"
        },
        {
          "indexed": false,
          "internalType": "uint256",
          "name": "amount",
          "type": "uint256"
        },
        {
          "indexed": false,
          "internalType": "uint256",
          "name": "positionId",
          "type": "uint256"
        }
      ],
      "name": "MarketMakerPositionCreated",
      "type": "event"
    },
    {
      "anonymous": false,
      "inputs": [
        {
          "indexed": false,
          "internalType": "address",
          "name": "user",
          "type": "address"
        },
        {
          "indexed": false,
          "internalType": "uint256",
          "name": "positionId",
          "type": "uint256"
        },
        {
          "components": [
            {
              "internalType": "uint256",
              "name": "chargeValue",
              "type": "uint256"
            },
            {
              "internalType": "bool",
              "name": "isAdded",
              "type": "bool"
            }
          ],
          "indexed": false,
          "internalType": "struct TradableMarginHandler.MarketMakerCharge",
          "name": "margin",
          "type": "tuple"
        },
        {
          "components": [
            {
              "internalType": "uint256",
              "name": "chargeValue",
              "type": "uint256"
            },
            {
              "internalType": "bool",
              "name": "isAdded",
              "type": "bool"
            }
          ],
          "indexed": false,
          "internalType": "struct TradableMarginHandler.MarketMakerCharge",
          "name": "tradingFeesAccumulated",
          "type": "tuple"
        },
        {
          "components": [
            {
              "internalType": "uint256",
              "name": "chargeValue",
              "type": "uint256"
            },
            {
              "internalType": "bool",
              "name": "isAdded",
              "type": "bool"
            }
          ],
          "indexed": false,
          "internalType": "struct TradableMarginHandler.MarketMakerCharge",
          "name": "volumeAccumulated",
          "type": "tuple"
        }
      ],
      "name": "MarketMakerTradeCharged",
      "type": "event"
    },
    {
      "anonymous": false,
      "inputs": [
        {
          "indexed": false,
          "internalType": "address",
          "name": "user",
          "type": "address"
        },
        {
          "components": [
            {
              "internalType": "address",
              "name": "token",
              "type": "address"
            },
            {
              "internalType": "uint8",
              "name": "decimals",
              "type": "uint8"
            },
            {
              "internalType": "bool",
              "name": "isActive",
              "type": "bool"
            }
          ],
          "indexed": false,
          "internalType": "struct ITradableSettings.AcceptedToken",
          "name": "selectedToken",
          "type": "tuple"
        },
        {
          "indexed": false,
          "internalType": "uint256",
          "name": "amount",
          "type": "uint256"
        }
      ],
      "name": "StakeFromMarginAccountInitiated",
      "type": "event"
    },
    {
      "anonymous": false,
      "inputs": [
        {
          "indexed": false,
          "internalType": "address",
          "name": "user",
          "type": "address"
        },
        {
          "indexed": false,
          "internalType": "enum ITradableSettings.UserType",
          "name": "userType",
          "type": "uint8"
        }
      ],
      "name": "UserMarginAccountCreated",
      "type": "event"
    },
    {
      "anonymous": false,
      "inputs": [
        {
          "indexed": false,
          "internalType": "address",
          "name": "user",
          "type": "address"
        },
        {
          "indexed": false,
          "internalType": "enum ITradableSettings.UserType",
          "name": "userType",
          "type": "uint8"
        }
      ],
      "name": "UserTypeChanged",
      "type": "event"
    },
    {
      "anonymous": false,
      "inputs": [
        {
          "indexed": false,
          "internalType": "address",
          "name": "user",
          "type": "address"
        },
        {
          "indexed": false,
          "internalType": "uint256",
          "name": "amountToBase",
          "type": "uint256"
        },
        {
          "indexed": false,
          "internalType": "bool",
          "name": "isAdded",
          "type": "bool"
        }
      ],
      "name": "WithdrawableBalanceUpdated",
      "type": "event"
    },
    {
      "anonymous": false,
      "inputs": [
        {
          "indexed": false,
          "internalType": "address",
          "name": "user",
          "type": "address"
        },
        {
          "components": [
            {
              "internalType": "address",
              "name": "token",
              "type": "address"
            },
            {
              "internalType": "uint8",
              "name": "decimals",
              "type": "uint8"
            },
            {
              "internalType": "bool",
              "name": "isActive",
              "type": "bool"
            }
          ],
          "indexed": false,
          "internalType": "struct ITradableSettings.AcceptedToken",
          "name": "selectedToken",
          "type": "tuple"
        },
        {
          "indexed": false,
          "internalType": "uint256",
          "name": "amount",
          "type": "uint256"
        },
        {
          "indexed": false,
          "internalType": "uint256",
          "name": "positionId",
          "type": "uint256"
        }
      ],
      "name": "WithdrawnFromMarketMakerPosition",
      "type": "event"
    },
    {
      "inputs": [],
      "name": "PERCENTAGE_PRECISION",
      "outputs": [
        {
          "internalType": "uint16",
          "name": "",
          "type": "uint16"
        }
      ],
      "stateMutability": "view",
      "type": "function"
    },
    {
      "inputs": [],
      "name": "allowedStakingProvider",
      "outputs": [
        {
          "internalType": "address",
          "name": "",
          "type": "address"
        }
      ],
      "stateMutability": "view",
      "type": "function"
    },
    {
      "inputs": [
        {
          "internalType": "address",
          "name": "user",
          "type": "address"
        },
        {
          "components": [
            {
              "internalType": "address",
              "name": "token",
              "type": "address"
            },
            {
              "internalType": "uint8",
              "name": "decimals",
              "type": "uint8"
            },
            {
              "internalType": "bool",
              "name": "isActive",
              "type": "bool"
            }
          ],
          "internalType": "struct ITradableSettings.AcceptedToken",
          "name": "selectedToken",
          "type": "tuple"
        },
        {
          "internalType": "uint256",
          "name": "positionId",
          "type": "uint256"
        }
      ],
      "name": "attemptLiquidation",
      "outputs": [],
      "stateMutability": "nonpayable",
      "type": "function"
    },
    {
      "inputs": [],
      "name": "balanceVault",
      "outputs": [
        {
          "internalType": "address",
          "name": "",
          "type": "address"
        }
      ],
      "stateMutability": "view",
      "type": "function"
    },
    {
      "inputs": [
        {
          "internalType": "address",
          "name": "user",
          "type": "address"
        },
        {
          "internalType": "enum ITradableSettings.UserType",
          "name": "userType",
          "type": "uint8"
        }
      ],
      "name": "changeUserType",
      "outputs": [],
      "stateMutability": "nonpayable",
      "type": "function"
    },
    {
      "inputs": [
        {
          "internalType": "address",
          "name": "user",
          "type": "address"
        },
        {
          "internalType": "uint256",
          "name": "positionId",
          "type": "uint256"
        },
        {
          "components": [
            {
              "internalType": "uint256",
              "name": "chargeValue",
              "type": "uint256"
            },
            {
              "internalType": "bool",
              "name": "isAdded",
              "type": "bool"
            }
          ],
          "internalType": "struct TradableMarginHandler.MarketMakerCharge",
          "name": "margin",
          "type": "tuple"
        },
        {
          "components": [
            {
              "internalType": "uint256",
              "name": "chargeValue",
              "type": "uint256"
            },
            {
              "internalType": "bool",
              "name": "isAdded",
              "type": "bool"
            }
          ],
          "internalType": "struct TradableMarginHandler.MarketMakerCharge",
          "name": "tradingFeesAccumulated",
          "type": "tuple"
        },
        {
          "components": [
            {
              "internalType": "uint256",
              "name": "chargeValue",
              "type": "uint256"
            },
            {
              "internalType": "bool",
              "name": "isAdded",
              "type": "bool"
            }
          ],
          "internalType": "struct TradableMarginHandler.MarketMakerCharge",
          "name": "volumeAccumulated",
          "type": "tuple"
        }
      ],
      "name": "chargeMarketMakerPosition",
      "outputs": [],
      "stateMutability": "nonpayable",
      "type": "function"
    },
    {
      "inputs": [
        {
          "components": [
            {
              "internalType": "address",
              "name": "token",
              "type": "address"
            },
            {
              "internalType": "uint8",
              "name": "decimals",
              "type": "uint8"
            },
            {
              "internalType": "bool",
              "name": "isActive",
              "type": "bool"
            }
          ],
          "internalType": "struct ITradableSettings.AcceptedToken",
          "name": "selectedToken",
          "type": "tuple"
        },
        {
          "internalType": "uint256",
          "name": "amount",
          "type": "uint256"
        }
      ],
      "name": "createMarketMakerPosition",
      "outputs": [],
      "stateMutability": "nonpayable",
      "type": "function"
    },
    {
      "inputs": [
        {
          "internalType": "address",
          "name": "user",
          "type": "address"
        },
        {
          "components": [
            {
              "internalType": "address",
              "name": "token",
              "type": "address"
            },
            {
              "internalType": "uint8",
              "name": "decimals",
              "type": "uint8"
            },
            {
              "internalType": "bool",
              "name": "isActive",
              "type": "bool"
            }
          ],
          "internalType": "struct ITradableSettings.AcceptedToken",
          "name": "selectedToken",
          "type": "tuple"
        },
        {
          "internalType": "uint256",
          "name": "amount",
          "type": "uint256"
        }
      ],
      "name": "createMarketMakerPositionForUser",
      "outputs": [],
      "stateMutability": "nonpayable",
      "type": "function"
    },
    {
      "inputs": [
        {
          "components": [
            {
              "internalType": "address",
              "name": "token",
              "type": "address"
            },
            {
              "internalType": "uint8",
              "name": "decimals",
              "type": "uint8"
            },
            {
              "internalType": "bool",
              "name": "isActive",
              "type": "bool"
            }
          ],
          "internalType": "struct ITradableSettings.AcceptedToken",
          "name": "selectedToken",
          "type": "tuple"
        },
        {
          "internalType": "uint256",
          "name": "amount",
          "type": "uint256"
        },
        {
          "internalType": "uint256",
          "name": "positionId",
          "type": "uint256"
        }
      ],
      "name": "depositIntoMarketMakerPosition",
      "outputs": [],
      "stateMutability": "nonpayable",
      "type": "function"
    },
    {
      "inputs": [
        {
          "internalType": "address",
          "name": "user",
          "type": "address"
        },
        {
          "components": [
            {
              "internalType": "address",
              "name": "token",
              "type": "address"
            },
            {
              "internalType": "uint8",
              "name": "decimals",
              "type": "uint8"
            },
            {
              "internalType": "bool",
              "name": "isActive",
              "type": "bool"
            }
          ],
          "internalType": "struct ITradableSettings.AcceptedToken",
          "name": "selectedToken",
          "type": "tuple"
        },
        {
          "internalType": "uint256",
          "name": "amount",
          "type": "uint256"
        },
        {
          "internalType": "uint256",
          "name": "positionId",
          "type": "uint256"
        }
      ],
      "name": "depositIntoMarketMakerPositionForUser",
      "outputs": [],
      "stateMutability": "nonpayable",
      "type": "function"
    },
    {
      "inputs": [
        {
          "internalType": "address",
          "name": "user",
          "type": "address"
        },
        {
          "components": [
            {
              "internalType": "address",
              "name": "token",
              "type": "address"
            },
            {
              "internalType": "uint8",
              "name": "decimals",
              "type": "uint8"
            },
            {
              "internalType": "bool",
              "name": "isActive",
              "type": "bool"
            }
          ],
          "internalType": "struct ITradableSettings.AcceptedToken",
          "name": "selectedToken",
          "type": "tuple"
        },
        {
          "internalType": "uint256",
          "name": "amount",
          "type": "uint256"
        }
      ],
      "name": "depositValidation",
      "outputs": [],
      "stateMutability": "nonpayable",
      "type": "function"
    },
    {
      "inputs": [
        {
          "internalType": "address",
          "name": "user",
          "type": "address"
        },
        {
          "internalType": "uint256",
          "name": "positionId",
          "type": "uint256"
        }
      ],
      "name": "getMarketMakerPosition",
      "outputs": [
        {
          "components": [
            {
              "internalType": "address",
              "name": "user",
              "type": "address"
            },
            {
              "internalType": "uint256",
              "name": "marginBalance",
              "type": "uint256"
            },
            {
              "internalType": "uint256",
              "name": "collateralAmount",
              "type": "uint256"
            },
            {
              "internalType": "uint256",
              "name": "volumeAccumulated",
              "type": "uint256"
            },
            {
              "internalType": "uint256",
              "name": "tradingFeesAccumulated",
              "type": "uint256"
            },
            {
              "components": [
                {
                  "internalType": "uint256",
                  "name": "price",
                  "type": "uint256"
                },
                {
                  "internalType": "uint16",
                  "name": "rewardPercentage",
                  "type": "uint16"
                },
                {
                  "internalType": "uint16",
                  "name": "collateralPercentage",
                  "type": "uint16"
                },
                {
                  "internalType": "uint256",
                  "name": "volume",
                  "type": "uint256"
                },
                {
                  "internalType": "uint256",
                  "name": "completionDuration",
                  "type": "uint256"
                },
                {
                  "internalType": "bool",
                  "name": "isActive",
                  "type": "bool"
                }
              ],
              "internalType": "struct ITradableSettings.MarketMakingTier",
              "name": "tier",
              "type": "tuple"
            },
            {
              "internalType": "uint256",
              "name": "timestamp",
              "type": "uint256"
            },
            {
              "internalType": "bool",
              "name": "isInstantiated",
              "type": "bool"
            },
            {
              "internalType": "bool",
              "name": "isLiquidated",
              "type": "bool"
            }
          ],
          "internalType": "struct TradableMarginHandler.MarketMakerPosition",
          "name": "",
          "type": "tuple"
        }
      ],
      "stateMutability": "view",
      "type": "function"
    },
    {
      "inputs": [
        {
          "internalType": "address",
          "name": "user",
          "type": "address"
        }
      ],
      "name": "getMarketMakerPositions",
      "outputs": [
        {
          "components": [
            {
              "internalType": "address",
              "name": "user",
              "type": "address"
            },
            {
              "internalType": "uint256",
              "name": "marginBalance",
              "type": "uint256"
            },
            {
              "internalType": "uint256",
              "name": "collateralAmount",
              "type": "uint256"
            },
            {
              "internalType": "uint256",
              "name": "volumeAccumulated",
              "type": "uint256"
            },
            {
              "internalType": "uint256",
              "name": "tradingFeesAccumulated",
              "type": "uint256"
            },
            {
              "components": [
                {
                  "internalType": "uint256",
                  "name": "price",
                  "type": "uint256"
                },
                {
                  "internalType": "uint16",
                  "name": "rewardPercentage",
                  "type": "uint16"
                },
                {
                  "internalType": "uint16",
                  "name": "collateralPercentage",
                  "type": "uint16"
                },
                {
                  "internalType": "uint256",
                  "name": "volume",
                  "type": "uint256"
                },
                {
                  "internalType": "uint256",
                  "name": "completionDuration",
                  "type": "uint256"
                },
                {
                  "internalType": "bool",
                  "name": "isActive",
                  "type": "bool"
                }
              ],
              "internalType": "struct ITradableSettings.MarketMakingTier",
              "name": "tier",
              "type": "tuple"
            },
            {
              "internalType": "uint256",
              "name": "timestamp",
              "type": "uint256"
            },
            {
              "internalType": "bool",
              "name": "isInstantiated",
              "type": "bool"
            },
            {
              "internalType": "bool",
              "name": "isLiquidated",
              "type": "bool"
            }
          ],
          "internalType": "struct TradableMarginHandler.MarketMakerPosition[]",
          "name": "",
          "type": "tuple[]"
        }
      ],
      "stateMutability": "view",
      "type": "function"
    },
    {
      "inputs": [
        {
          "internalType": "address",
          "name": "user",
          "type": "address"
        }
      ],
      "name": "getUser",
      "outputs": [
        {
          "components": [
            {
              "internalType": "address",
              "name": "user",
              "type": "address"
            },
            {
              "internalType": "uint256",
              "name": "reserveBalance",
              "type": "uint256"
            },
            {
              "internalType": "enum ITradableSettings.UserType",
              "name": "userType",
              "type": "uint8"
            }
          ],
          "internalType": "struct TradableMarginHandler.User",
          "name": "",
          "type": "tuple"
        }
      ],
      "stateMutability": "view",
      "type": "function"
    },
    {
      "inputs": [
        {
          "internalType": "address",
          "name": "user",
          "type": "address"
        },
        {
          "internalType": "uint256",
          "name": "positionId",
          "type": "uint256"
        }
      ],
      "name": "isPositionLiquidatable",
      "outputs": [
        {
          "internalType": "bool",
          "name": "",
          "type": "bool"
        }
      ],
      "stateMutability": "view",
      "type": "function"
    },
    {
      "inputs": [
        {
          "internalType": "address",
          "name": "forwarder",
          "type": "address"
        }
      ],
      "name": "isTrustedForwarder",
      "outputs": [
        {
          "internalType": "bool",
          "name": "",
          "type": "bool"
        }
      ],
      "stateMutability": "view",
      "type": "function"
    },
    {
      "inputs": [
        {
          "internalType": "address",
          "name": "user",
          "type": "address"
        },
        {
          "components": [
            {
              "internalType": "address",
              "name": "token",
              "type": "address"
            },
            {
              "internalType": "uint8",
              "name": "decimals",
              "type": "uint8"
            },
            {
              "internalType": "bool",
              "name": "isActive",
              "type": "bool"
            }
          ],
          "internalType": "struct ITradableSettings.AcceptedToken",
          "name": "selectedToken",
          "type": "tuple"
        },
        {
          "internalType": "uint256",
          "name": "amount",
          "type": "uint256"
        },
        {
          "internalType": "address",
          "name": "receiver",
          "type": "address"
        },
        {
          "internalType": "address",
          "name": "dstVault",
          "type": "address"
        }
      ],
      "name": "marginWithdrawalToAddress",
      "outputs": [],
      "stateMutability": "nonpayable",
      "type": "function"
    },
    {
      "inputs": [
        {
          "internalType": "address",
          "name": "newStakingProvider",
          "type": "address"
        }
      ],
      "name": "setAllowedStakingProvider",
      "outputs": [],
      "stateMutability": "nonpayable",
      "type": "function"
    },
    {
      "inputs": [
        {
          "internalType": "address",
          "name": "newSettingsProvider",
          "type": "address"
        }
      ],
      "name": "setSettingsProvider",
      "outputs": [],
      "stateMutability": "nonpayable",
      "type": "function"
    },
    {
      "inputs": [
        {
          "internalType": "address",
          "name": "newVault",
          "type": "address"
        }
      ],
      "name": "setVault",
      "outputs": [],
      "stateMutability": "nonpayable",
      "type": "function"
    },
    {
      "inputs": [],
      "name": "settingsProvider",
      "outputs": [
        {
          "internalType": "address",
          "name": "",
          "type": "address"
        }
      ],
      "stateMutability": "view",
      "type": "function"
    },
    {
      "inputs": [
        {
          "internalType": "address",
          "name": "user",
          "type": "address"
        },
        {
          "components": [
            {
              "internalType": "address",
              "name": "token",
              "type": "address"
            },
            {
              "internalType": "uint8",
              "name": "decimals",
              "type": "uint8"
            },
            {
              "internalType": "bool",
              "name": "isActive",
              "type": "bool"
            }
          ],
          "internalType": "struct ITradableSettings.AcceptedToken",
          "name": "selectedToken",
          "type": "tuple"
        },
        {
          "internalType": "uint256",
          "name": "amount",
          "type": "uint256"
        }
      ],
      "name": "stakeFromMarginBalance",
      "outputs": [],
      "stateMutability": "nonpayable",
      "type": "function"
    },
    {
      "inputs": [
        {
          "internalType": "address",
          "name": "user",
          "type": "address"
        },
        {
          "internalType": "uint256",
          "name": "amountToBase",
          "type": "uint256"
        },
        {
          "internalType": "bool",
          "name": "isAdded",
          "type": "bool"
        }
      ],
      "name": "updateWithdrawableBalance",
      "outputs": [],
      "stateMutability": "nonpayable",
      "type": "function"
    },
    {
      "inputs": [
        {
          "components": [
            {
              "internalType": "address",
              "name": "token",
              "type": "address"
            },
            {
              "internalType": "uint8",
              "name": "decimals",
              "type": "uint8"
            },
            {
              "internalType": "bool",
              "name": "isActive",
              "type": "bool"
            }
          ],
          "internalType": "struct ITradableSettings.AcceptedToken",
          "name": "selectedToken",
          "type": "tuple"
        },
        {
          "internalType": "uint256",
          "name": "amount",
          "type": "uint256"
        },
        {
          "internalType": "uint256",
          "name": "positionId",
          "type": "uint256"
        }
      ],
      "name": "withdrawFromMarketMakerPosition",
      "outputs": [],
      "stateMutability": "nonpayable",
      "type": "function"
    },
    {
      "inputs": [
        {
          "internalType": "address",
          "name": "user",
          "type": "address"
        },
        {
          "components": [
            {
              "internalType": "address",
              "name": "token",
              "type": "address"
            },
            {
              "internalType": "uint8",
              "name": "decimals",
              "type": "uint8"
            },
            {
              "internalType": "bool",
              "name": "isActive",
              "type": "bool"
            }
          ],
          "internalType": "struct ITradableSettings.AcceptedToken",
          "name": "selectedToken",
          "type": "tuple"
        },
        {
          "internalType": "uint256",
          "name": "amount",
          "type": "uint256"
        },
        {
          "internalType": "uint256",
          "name": "positionId",
          "type": "uint256"
        }
      ],
      "name": "withdrawFromMarketMakerPositionForUser",
      "outputs": [],
      "stateMutability": "nonpayable",
      "type": "function"
    },
    {
      "inputs": [
        {
          "internalType": "address",
          "name": "user",
          "type": "address"
        },
        {
          "components": [
            {
              "internalType": "address",
              "name": "token",
              "type": "address"
            },
            {
              "internalType": "uint8",
              "name": "decimals",
              "type": "uint8"
            },
            {
              "internalType": "bool",
              "name": "isActive",
              "type": "bool"
            }
          ],
          "internalType": "struct ITradableSettings.AcceptedToken",
          "name": "selectedToken",
          "type": "tuple"
        },
        {
          "internalType": "uint256",
          "name": "amount",
          "type": "uint256"
        },
        {
          "internalType": "address",
          "name": "dstVault",
          "type": "address"
        }
      ],
      "name": "withdrawalValidation",
      "outputs": [],
      "stateMutability": "nonpayable",
      "type": "function"
    }
  ],
  "bytecode": "0x60a06040523480156200001157600080fd5b5060405162004b9138038062004b9183398101604081905262000034916200008a565b6001600160a01b03908116608052600080549382166001600160a01b0319948516179055600180549290911691909216179055620000d4565b80516001600160a01b03811681146200008557600080fd5b919050565b600080600060608486031215620000a057600080fd5b620000ab846200006d565b9250620000bb602085016200006d565b9150620000cb604085016200006d565b90509250925092565b608051614aa1620000f06000396000611fb00152614aa16000f3fe608060405234801561001057600080fd5b506004361061018e5760003560e01c80636817031b116100de5780638a00293211610097578063ba1fa17d11610071578063ba1fa17d1461038f578063cde51856146103a2578063dba37bda146103b5578063e256888f146103c857600080fd5b80638a002932146103565780638d55737d146103695780639eca018c1461037c57600080fd5b80636817031b146102d757806368c8435d146102ea5780636c9a9ae8146102fd5780636f77926b14610310578063766f1fa6146103305780637fc48c441461034357600080fd5b80632eed0e5d1161014b5780633d6bc3df116101255780633d6bc3df1461027b5780634bb8822c1461028e578063572b6c05146102a15780635c78ac8c146102c457600080fd5b80632eed0e5d1461024257806336a9b692146102555780633c37b7051461026857600080fd5b8063012a4db614610193578063053d41fe146101a85780630d1e027d146101d15780630e107e0f146101fc5780631785b5871461021c57806327a665c11461022f575b600080fd5b6101a66101a1366004613f61565b6103e4565b005b6101bb6101b6366004613fb3565b6106df565b6040516101c89190614076565b60405180910390f35b6001546101e4906001600160a01b031681565b6040516001600160a01b0390911681526020016101c8565b61020f61020a3660046140c5565b61086d565b6040516101c891906140f1565b6000546101e4906001600160a01b031681565b6002546101e4906001600160a01b031681565b6101a6610250366004613fb3565b6109c0565b6101a6610263366004614100565b610aaf565b6101a6610276366004614145565b610d59565b6101a6610289366004614170565b6114fa565b6101a661029c3660046141d7565b6117fb565b6102b46102af366004613fb3565b611fae565b60405190151581526020016101c8565b6101a66102d2366004614100565b611fe0565b6101a66102e5366004613fb3565b6122c0565b6101a66102f8366004613fb3565b6123af565b6101a661030b3660046141d7565b61249e565b61032361031e366004613fb3565b6127ae565b6040516101c8919061424e565b6101a661033e36600461427c565b612841565b6101a66103513660046142b9565b612a80565b6101a66103643660046142ed565b612cf1565b6101a6610377366004614368565b612df0565b6101a661038a3660046141d7565b6130b8565b6101a661039d3660046142b9565b613265565b6102b46103b03660046140c5565b613561565b6101a66103c33660046141d7565b6136ab565b6103d161271081565b60405161ffff90911681526020016101c8565b836001600160a01b0381166104145760405162461bcd60e51b815260040161040b906143cc565b60405180910390fd5b6001546001600160a01b031633146104665760405162461bcd60e51b81526020600482015260156024820152741d5b985d5d1a1bdc9a5e99590b58dbdb9d1c9858dd605a1b604482015260640161040b565b6001600160a01b038086166000908152600460208190526040808320925481516368a884c960e11b81528251949591909116936104fd938a93869363d1510992938184019390918290030181865afa1580156104c6573d6000803e3d6000fd5b505050506040513d601f19601f820116820180604052508101906104ea9190614412565b6020015167ffffffffffffffff16613965565b85101561053d5760405162461bcd60e51b815260206004820152600e60248201526d1b5a5b8b5dda5d1a191c985dd85b60921b604482015260640161040b565b6001600160a01b0387811660009081526004602081905260408083206002015490516320658c0560e01b815292938516926320658c05926105829260ff16910161444f565b6040805180830381865afa15801561059e573d6000803e3d6000fd5b505050506040513d601f19601f820116820180604052508101906105c2919061445d565b51905060006105d18888613a13565b905060006105df838361449d565b905080856001015410156106055760405162461bcd60e51b815260040161040b906144b0565b8185600101600082825461061991906144de565b9250508190555061068c8a856001600160a01b0316635229d3c06040518163ffffffff1660e01b8152600401602060405180830381865afa158015610662573d6000803e3d6000fd5b505050506040513d601f19601f8201168201806040525081019061068691906144f1565b85613aa6565b600285015489516040517f72f686aac35bad9eb48e3867df1536ff902372a5b15d1eb50e8add890a139a51926106cb928e9260ff909216918d9061450e565b60405180910390a150505050505050505050565b6001600160a01b038116600090815260046020526040902060020154606090829060ff16600181111561071457610714614216565b6001146107335760405162461bcd60e51b815260040161040b90614540565b6001600160a01b038316600090815260066020908152604080832080548251818502810185019093528083529193909284015b828210156108615760008481526020908190206040805161012081018252600c860290920180546001600160a01b031683526001808201548486015260028201548484015260038201546060808601919091526004830154608080870191909152845160c0808201875260058601548252600686015461ffff808216848c0152620100009091041696820196909652600785015492810192909252600884015490820152600983015460ff908116151560a083810191909152860191909152600a83015493850193909352600b90910154808316151560e0850152610100908190049092161515918301919091529083529092019101610766565b50505050915050919050565b610875613dd9565b6001600160a01b038316600090815260046020526040902060020154839060ff1660018111156108a7576108a7614216565b6001146108c65760405162461bcd60e51b815260040161040b90614540565b6001600160a01b0380851660009081526005602081815260408084208885528252928390208351610120810185528154909516855260018101548583015260028101548585015260038101546060808701919091526004820154608080880191909152855160c08082018852958401548152600684015461ffff8082169683019690965262010000900490941695840195909552600782015490830152600881015493820193909352600983015460ff908116151560a083810191909152850191909152600a83015491840191909152600b90910154808216151560e08401526101009081900490911615159082015291505b5092915050565b60008054906101000a90046001600160a01b03166001600160a01b031663d513cc446040518163ffffffff1660e01b8152600401602060405180830381865afa158015610a11573d6000803e3d6000fd5b505050506040513d601f19601f82011682018060405250810190610a3591906144f1565b6001600160a01b0316336001600160a01b031614610a655760405162461bcd60e51b815260040161040b9061456c565b806001600160a01b038116610a8c5760405162461bcd60e51b815260040161040b906143cc565b50600080546001600160a01b0319166001600160a01b0392909216919091179055565b610ab833611fae565b610ad45760405162461bcd60e51b815260040161040b90614592565b6001600160a01b038416600090815260046020526040902060020154849060ff166001811115610b0657610b06614216565b600114610b255760405162461bcd60e51b815260040161040b90614540565b6001600160a01b03851660009081526005602090815260408083208584529091529020600b81015460ff168015610b665750600b810154610100900460ff16155b610bc55760405162461bcd60e51b815260206004820152602a60248201527f696e76616c69642d706f736974696f6e4964206f722021706f736974696f6e2d6044820152691b1a5c5d5a59185d195960b21b606482015260840161040b565b6000610bd18686613a13565b6001600160a01b0388166000908152600460205260409020600181015491925090821115610c115760405162461bcd60e51b815260040161040b906144b0565b6000805460018501546001600160a01b039091169063659fc14b90610c36908661449d565b6040518263ffffffff1660e01b8152600401610c5491815260200190565b60c0604051808303816000875af1158015610c73573d6000803e3d6000fd5b505050506040513d601f19601f82011682018060405250810190610c9791906145d9565b6005850154815191925014610cdc5760405162461bcd60e51b815260206004820152600b60248201526a746965722d6368616e676560a81b604482015260640161040b565b82826001016000828254610cf091906144de565b9250508190555082846001016000828254610d0b919061449d565b90915550506040517ffa8416b3784be0b4c4fe955075fa9b1b6f878dc223d3e96e343c0357d0adfbb390610d469033908b908b908b90614673565b60405180910390a1505050505050505050565b3360008181526004602052604090206002015460ff166001811115610d8057610d80614216565b600114610d9f5760405162461bcd60e51b815260040161040b90614540565b600054835160405163599fbc6560e11b81526001600160a01b03918216600482015291169063b33f78ca90602401602060405180830381865afa158015610dea573d6000803e3d6000fd5b505050506040513d601f19601f82011682018060405250810190610e0e91906146c4565b610e4d5760405162461bcd60e51b815260206004820152601060248201526f3ab730b1b1b2b83a32b2103a37b5b2b760811b604482015260640161040b565b610ed68360008054906101000a90046001600160a01b03166001600160a01b031663dbc076756040518163ffffffff1660e01b8152600401606060405180830381865afa158015610ea2573d6000803e3d6000fd5b505050506040513d601f19601f82011682018060405250810190610ec691906146e1565b5167ffffffffffffffff16613965565b821015610ef55760405162461bcd60e51b815260040161040b9061472f565b6000610f018484613a13565b33600090815260046020526040902060010154909150811115610f365760405162461bcd60e51b815260040161040b906144b0565b3360009081526004602052604081206001018054839290610f589084906144de565b90915550506000805460405163659fc14b60e01b8152600481018490526001600160a01b03909116919061271090839063659fc14b9060240160c0604051808303816000875af1158015610fb0573d6000803e3d6000fd5b505050506040513d601f19601f82011682018060405250810190610fd491906145d9565b60400151610fe69061ffff1685614754565b610ff0919061476b565b6040805161012081019091523381529091506020810161101083866144de565b81526020018281526020016000815260200160008152602001836001600160a01b031663659fc14b866040518263ffffffff1660e01b815260040161105791815260200190565b60c0604051808303816000875af1158015611076573d6000803e3d6000fd5b505050506040513d601f19601f8201168201806040525081019061109a91906145d9565b81526020014281526020016001151581526020016000151581525060056000336001600160a01b03166001600160a01b03168152602001908152602001600020600060066000336001600160a01b03166001600160a01b0316815260200190815260200160002080549050815260200190815260200160002060008201518160000160006101000a8154816001600160a01b0302191690836001600160a01b031602179055506020820151816001015560408201518160020155606082015181600301556080820151816004015560a0820151816005016000820151816000015560208201518160010160006101000a81548161ffff021916908361ffff16021790555060408201518160010160026101000a81548161ffff021916908361ffff160217905550606082015181600201556080820151816003015560a08201518160040160006101000a81548160ff021916908315150217905550505060c082015181600a015560e082015181600b0160006101000a81548160ff02191690831515021790555061010082015181600b0160016101000a81548160ff02191690831515021790555090505060066000336001600160a01b03166001600160a01b0316815260200190815260200160002060056000336001600160a01b03166001600160a01b03168152602001908152602001600020600060066000336001600160a01b03166001600160a01b0316815260200190815260200160002080549050815260200190815260200160002090806001815401808255809150506001900390600052602060002090600c02016000909190919091506000820160009054906101000a90046001600160a01b03168160000160006101000a8154816001600160a01b0302191690836001600160a01b03160217905550600182015481600101556002820154816002015560038201548160030155600482015481600401556005820181600501600082015481600001556001820160009054906101000a900461ffff168160010160006101000a81548161ffff021916908361ffff1602179055506001820160029054906101000a900461ffff168160010160026101000a81548161ffff021916908361ffff16021790555060028201548160020155600382015481600301556004820160009054906101000a900460ff168160040160006101000a81548160ff0219169083151502179055505050600a82015481600a0155600b820160009054906101000a900460ff1681600b0160006101000a81548160ff021916908315150217905550600b820160019054906101000a900460ff1681600b0160016101000a81548160ff02191690831515021790555050507f8012097dc14de285e5ed4a3adf0cb6544e4f11ffcef2ca5ed6831e24381a1d653387876114da6000600160066000336001600160a01b03166001600160a01b03168152602001908152602001600020805490506114d491906144de565b90613ae5565b6040516114ea9493929190614673565b60405180910390a1505050505050565b6000546040805163c95c544b60e01b815290516001600160a01b0390921691829163c95c544b9160048083019260209291908290030181865afa158015611545573d6000803e3d6000fd5b505050506040513d601f19601f8201168201806040525081019061156991906144f1565b6001600160a01b0316336001600160a01b0316146115ba5760405162461bcd60e51b815260206004820152600e60248201526d34b73b30b634b216b1b0b63632b960911b604482015260640161040b565b6001600160a01b0386811660009081526004602081905260408083206002015490516320658c0560e01b815292938516926320658c05926115ff9260ff16910161444f565b6040805180830381865afa15801561161b573d6000803e3d6000fd5b505050506040513d601f19601f8201168201806040525081019061163f919061445d565b519050600061164e8787613a13565b905061165a828261449d565b6001600160a01b03891660009081526004602052604090206001015410156116b95760405162461bcd60e51b8152602060048201526012602482015271696e73756666696369656e742d66756e647360701b604482015260640161040b565b6116c588826000613afb565b61173188846001600160a01b0316635229d3c06040518163ffffffff1660e01b8152600401602060405180830381865afa158015611707573d6000803e3d6000fd5b505050506040513d601f19601f8201168201806040525081019061172b91906144f1565b84613aa6565b865160408051608060208201819052600260a0830152616d7760f01b60c08301526001600160a01b03808a1693830193909352919092166060830152810187905261178f90859060e001604051602081830303815290604052613bda565b6001600160a01b0388166000908152600460205260409081902060020154885191517f398cd635a72556b312a457b7c76c5c37ff319b2d0b11a9689aa47d1b0dae8f47926117e9928c9260ff90911691908b908b9061478d565b60405180910390a15050505050505050565b61180433611fae565b6118205760405162461bcd60e51b815260040161040b90614592565b6001600160a01b038316600090815260046020526040902060020154839060ff16600181111561185257611852614216565b6001146118715760405162461bcd60e51b815260040161040b90614540565b600054835160405163599fbc6560e11b81526001600160a01b03918216600482015291169063b33f78ca90602401602060405180830381865afa1580156118bc573d6000803e3d6000fd5b505050506040513d601f19601f820116820180604052508101906118e091906146c4565b61191f5760405162461bcd60e51b815260206004820152601060248201526f3ab730b1b1b2b83a32b2103a37b5b2b760811b604482015260640161040b565b6119748360008054906101000a90046001600160a01b03166001600160a01b031663dbc076756040518163ffffffff1660e01b8152600401606060405180830381865afa158015610ea2573d6000803e3d6000fd5b8210156119935760405162461bcd60e51b815260040161040b9061472f565b600061199f8484613a13565b6001600160a01b0386166000908152600460205260409020600101549091508111156119dd5760405162461bcd60e51b815260040161040b906144b0565b6001600160a01b03851660009081526004602052604081206001018054839290611a089084906144de565b90915550506000805460405163659fc14b60e01b8152600481018490526001600160a01b03909116919061271090839063659fc14b9060240160c0604051808303816000875af1158015611a60573d6000803e3d6000fd5b505050506040513d601f19601f82011682018060405250810190611a8491906145d9565b60400151611a969061ffff1685614754565b611aa0919061476b565b9050604051806101200160405280886001600160a01b031681526020018285611ac991906144de565b81526020018281526020016000815260200160008152602001836001600160a01b031663659fc14b866040518263ffffffff1660e01b8152600401611b1091815260200190565b60c0604051808303816000875af1158015611b2f573d6000803e3d6000fd5b505050506040513d601f19601f82011682018060405250810190611b5391906145d9565b81526020014281526020016001151581526020016000151581525060056000896001600160a01b03166001600160a01b031681526020019081526020016000206000600660008b6001600160a01b03166001600160a01b0316815260200190815260200160002080549050815260200190815260200160002060008201518160000160006101000a8154816001600160a01b0302191690836001600160a01b031602179055506020820151816001015560408201518160020155606082015181600301556080820151816004015560a0820151816005016000820151816000015560208201518160010160006101000a81548161ffff021916908361ffff16021790555060408201518160010160026101000a81548161ffff021916908361ffff160217905550606082015181600201556080820151816003015560a08201518160040160006101000a81548160ff021916908315150217905550505060c082015181600a015560e082015181600b0160006101000a81548160ff02191690831515021790555061010082015181600b0160016101000a81548160ff02191690831515021790555090505060066000886001600160a01b03166001600160a01b0316815260200190815260200160002060056000896001600160a01b03166001600160a01b031681526020019081526020016000206000600660008b6001600160a01b03166001600160a01b0316815260200190815260200160002080549050815260200190815260200160002090806001815401808255809150506001900390600052602060002090600c02016000909190919091506000820160009054906101000a90046001600160a01b03168160000160006101000a8154816001600160a01b0302191690836001600160a01b03160217905550600182015481600101556002820154816002015560038201548160030155600482015481600401556005820181600501600082015481600001556001820160009054906101000a900461ffff168160010160006101000a81548161ffff021916908361ffff1602179055506001820160029054906101000a900461ffff168160010160026101000a81548161ffff021916908361ffff16021790555060028201548160020155600382015481600301556004820160009054906101000a900460ff168160040160006101000a81548160ff0219169083151502179055505050600a82015481600a0155600b820160009054906101000a900460ff1681600b0160006101000a81548160ff021916908315150217905550600b820160019054906101000a900460ff1681600b0160016101000a81548160ff02191690831515021790555050507f8012097dc14de285e5ed4a3adf0cb6544e4f11ffcef2ca5ed6831e24381a1d65878787611f8d60006001600660008f6001600160a01b03166001600160a01b03168152602001908152602001600020805490506114d491906144de565b604051611f9d9493929190614673565b60405180910390a150505050505050565b7f00000000000000000000000000000000000000000000000000000000000000006001600160a01b0390811691161490565b611fe933611fae565b6120055760405162461bcd60e51b815260040161040b90614592565b6001600160a01b038416600090815260046020526040902060020154849060ff16600181111561203757612037614216565b6001146120565760405162461bcd60e51b815260040161040b90614540565b6001600160a01b03851660009081526005602090815260408083208584529091529020600b81015460ff166120c25760405162461bcd60e51b81526020600482015260126024820152711a5b9d985b1a590b5c1bdcda5d1a5bdb925960721b604482015260640161040b565b600b810154610100900460ff16156121125760405162461bcd60e51b81526020600482015260136024820152721c1bdcda5d1a5bdb8b5b1a5c5d5a59185d1959606a1b604482015260640161040b565b61211d86868561249e565b600080546040516320658c0560e01b81526001600160a01b03909116919082906320658c059061215190849060040161444f565b6040805180830381865afa15801561216d573d6000803e3d6000fd5b505050506040513d601f19601f82011682018060405250810190612191919061445d565b5190506000816121a18989613a13565b6121ab919061449d565b90508360040154816121bd919061449d565b846001015410156121e05760405162461bcd60e51b815260040161040b906144b0565b808460010160008282546121f491906144de565b9091555061220490508882613a13565b6001600160a01b038a166000908152600460205260408120600101805490919061222f90849061449d565b9250508190555061228b8960008054906101000a90046001600160a01b03166001600160a01b0316635229d3c06040518163ffffffff1660e01b8152600401602060405180830381865afa158015611707573d6000803e3d6000fd5b7f323999ace879fddf5162b0e501fc00204d59865ea81164e0fb65cf01a2eb9e3e89898989604051610d469493929190614673565b60008054906101000a90046001600160a01b03166001600160a01b031663d513cc446040518163ffffffff1660e01b8152600401602060405180830381865afa158015612311573d6000803e3d6000fd5b505050506040513d601f19601f8201168201806040525081019061233591906144f1565b6001600160a01b0316336001600160a01b0316146123655760405162461bcd60e51b815260040161040b9061456c565b806001600160a01b03811661238c5760405162461bcd60e51b815260040161040b906143cc565b50600180546001600160a01b0319166001600160a01b0392909216919091179055565b60008054906101000a90046001600160a01b03166001600160a01b031663d513cc446040518163ffffffff1660e01b8152600401602060405180830381865afa158015612400573d6000803e3d6000fd5b505050506040513d601f19601f8201168201806040525081019061242491906144f1565b6001600160a01b0316336001600160a01b0316146124545760405162461bcd60e51b815260040161040b9061456c565b806001600160a01b03811661247b5760405162461bcd60e51b815260040161040b906143cc565b50600280546001600160a01b0319166001600160a01b0392909216919091179055565b6001600160a01b038316600090815260046020526040902060020154839060ff1660018111156124d0576124d0614216565b6001146124ef5760405162461bcd60e51b815260040161040b90614540565b6124f98483613561565b156127a8576001600160a01b03841660009081526005602090815260408083208584529091529020600b8101805461ff001916610100179055600781015460038201541061258b5780600101548160020154612555919061449d565b6001600160a01b0386166000908152600460205260408120600101805490919061258090849061449d565b909155506127a69050565b60008060009054906101000a90046001600160a01b03166001600160a01b031663dbc076756040518163ffffffff1660e01b8152600401606060405180830381865afa1580156125df573d6000803e3d6000fd5b505050506040513d601f19601f8201168201806040525081019061260391906146e1565b6040015167ffffffffffffffff166127108360020154612623919061476b565b61262d9190614754565b90506000818360040154612641919061449d565b90508083600201548460010154612658919061449d565b61266291906144de565b6001600160a01b0388166000908152600460205260408120600101805490919061268d90849061449d565b9250508190555061271c8760008054906101000a90046001600160a01b03166001600160a01b0316635229d3c06040518163ffffffff1660e01b8152600401602060405180830381865afa1580156126e9573d6000803e3d6000fd5b505050506040513d601f19601f8201168201806040525081019061270d91906144f1565b6127178986613a13565b613aa6565b6127a38760008054906101000a90046001600160a01b03166001600160a01b03166344e5fb1d6040518163ffffffff1660e01b8152600401602060405180830381865afa158015612771573d6000803e3d6000fd5b505050506040513d601f19601f8201168201806040525081019061279591906144f1565b612717898760040154613a13565b50505b505b50505050565b6127cf60408051606081018252600080825260208201819052909182015290565b6001600160a01b03808316600090815260046020908152604091829020825160608101845281549094168452600180820154928501929092526002810154909284019160ff9091169081111561282757612827614216565b600181111561283857612838614216565b90525092915050565b60008054906101000a90046001600160a01b03166001600160a01b031663d513cc446040518163ffffffff1660e01b8152600401602060405180830381865afa158015612892573d6000803e3d6000fd5b505050506040513d601f19601f820116820180604052508101906128b691906144f1565b6001600160a01b0316336001600160a01b0316148061295a575060008054906101000a90046001600160a01b03166001600160a01b031663c95c544b6040518163ffffffff1660e01b8152600401602060405180830381865afa158015612921573d6000803e3d6000fd5b505050506040513d601f19601f8201168201806040525081019061294591906144f1565b6001600160a01b0316336001600160a01b0316145b6129765760405162461bcd60e51b815260040161040b906147cd565b6001600160a01b03821660009081526004602052604090206002015460ff1660018111156129a6576129a6614216565b8160018111156129b8576129b8614216565b036129f65760405162461bcd60e51b815260206004820152600e60248201526d696e76616c69642d6368616e676560901b604482015260640161040b565b6001600160a01b038216600081815260046020526040902080546001600160a01b0319169091178155600201805482919060ff191660018381811115612a3e57612a3e614216565b02179055507f09b13653606f5bf79475b3f58be438f63cb37f985c6c4681ff021f1d0d30c26b8282604051612a749291906147fa565b60405180910390a15050565b3360008181526004602052604090206002015460ff166001811115612aa757612aa7614216565b600114612ac65760405162461bcd60e51b815260040161040b90614540565b3360009081526005602090815260408083208584529091529020600b81015460ff16612b295760405162461bcd60e51b81526020600482015260126024820152711a5b9d985b1a590b5c1bdcda5d1a5bdb925960721b604482015260640161040b565b600b810154610100900460ff1615612b795760405162461bcd60e51b81526020600482015260136024820152721c1bdcda5d1a5bdb8b5b1a5c5d5a59185d1959606a1b604482015260640161040b565b6000612b858686613a13565b336000908152600460205260409020600181015491925090821115612bbc5760405162461bcd60e51b815260040161040b906144b0565b6000805460018501546001600160a01b039091169063659fc14b90612be1908661449d565b6040518263ffffffff1660e01b8152600401612bff91815260200190565b60c0604051808303816000875af1158015612c1e573d6000803e3d6000fd5b505050506040513d601f19601f82011682018060405250810190612c4291906145d9565b6005850154815191925014612c875760405162461bcd60e51b815260206004820152600b60248201526a746965722d6368616e676560a81b604482015260640161040b565b82826001016000828254612c9b91906144de565b9250508190555082846001016000828254612cb6919061449d565b90915550506040517ffa8416b3784be0b4c4fe955075fa9b1b6f878dc223d3e96e343c0357d0adfbb3906117e99033908b908b908b90614673565b60008054906101000a90046001600160a01b03166001600160a01b031663d513cc446040518163ffffffff1660e01b8152600401602060405180830381865afa158015612d42573d6000803e3d6000fd5b505050506040513d601f19601f82011682018060405250810190612d6691906144f1565b6001600160a01b0316336001600160a01b031614612d965760405162461bcd60e51b815260040161040b9061456c565b612da1838383613afb565b604080516001600160a01b0385168152602081018490528215158183015290517fae5e86f5dc7af5c2f2158255bd2bb6d4397be93d16095e7463024e117ef96a679181900360600190a1505050565b846001600160a01b038116612e175760405162461bcd60e51b815260040161040b906143cc565b60008054906101000a90046001600160a01b03166001600160a01b031663d513cc446040518163ffffffff1660e01b8152600401602060405180830381865afa158015612e68573d6000803e3d6000fd5b505050506040513d601f19601f82011682018060405250810190612e8c91906144f1565b6001600160a01b0316336001600160a01b031614612ebc5760405162461bcd60e51b815260040161040b9061456c565b6001600160a01b03861660009081526005602090815260408083208884529091529020600b81015460ff168015612efd5750600b810154610100900460ff16155b612f495760405162461bcd60e51b815260206004820152601c60248201527f696e76616c6964206d61726b65746d616b657220706f736974696f6e00000000604482015260640161040b565b845160018201541015612f9e5760405162461bcd60e51b815260206004820152601b60248201527f696e73756666696369656e74206d617267696e2062616c616e63650000000000604482015260640161040b565b8460200151612fbd5784516001820154612fb891906144de565b612fce565b84516001820154612fce919061449d565b60018201556020840151612ff25783516004820154612fed91906144de565b613003565b83516004820154613003919061449d565b60048201556020830151613027578251600382015461302291906144de565b613038565b82516003820154613038919061449d565b6003820155604080516001600160a01b0389168152602080820189905287519282019290925281870151151560608201528551608082015281860151151560a0820152845160c082015290840151151560e08201527fc7814054709a7d23f0a1fb0342d87dc10ea8753e42f8ba184a5d759e911f35bb9061010001611f9d565b60008054906101000a90046001600160a01b03166001600160a01b031663c95c544b6040518163ffffffff1660e01b8152600401602060405180830381865afa158015613109573d6000803e3d6000fd5b505050506040513d601f19601f8201168201806040525081019061312d91906144f1565b6001600160a01b0316336001600160a01b03161461315d5760405162461bcd60e51b815260040161040b906147cd565b6001600160a01b0383166000908152600460205260409020600101548190613186908490613965565b10156131a45760405162461bcd60e51b815260040161040b906144b0565b60006131b08383613a13565b90506131be84826000613afb565b6002546040516369a8522160e01b81526001600160a01b03909116906369a85221906131f290879087908790600401614817565b600060405180830381600087803b15801561320c57600080fd5b505af1158015613220573d6000803e3d6000fd5b505050507f2b740dd601dd862a92b9c26482a5cb2aaff8d07d005c9319e74167bc96de01c584848460405161325793929190614817565b60405180910390a150505050565b3360008181526004602052604090206002015460ff16600181111561328c5761328c614216565b6001146132ab5760405162461bcd60e51b815260040161040b90614540565b6000546040805163c95c544b60e01b815290516001600160a01b0390921691829163c95c544b9160048083019260209291908290030181865afa1580156132f6573d6000803e3d6000fd5b505050506040513d601f19601f8201168201806040525081019061331a91906144f1565b6001600160a01b0316336001600160a01b03161461334a5760405162461bcd60e51b815260040161040b906147cd565b3360009081526005602090815260408083208684529091529020600b81015460ff1680156133825750600b810154610100900460ff16155b6133c15760405162461bcd60e51b815260206004820152601060248201526f34b73b30b634b216b837b9b4ba34b7b760811b604482015260640161040b565b6133cc33878661249e565b6040516320658c0560e01b81526000906001600160a01b038416906320658c05906133fb90849060040161444f565b6040805180830381865afa158015613417573d6000803e3d6000fd5b505050506040513d601f19601f8201168201806040525081019061343b919061445d565b51905060008161344b8989613a13565b613455919061449d565b9050826004015481613467919061449d565b8360010154101561348a5760405162461bcd60e51b815260040161040b906144b0565b8083600101600082825461349e91906144de565b909155506134ae90508882613a13565b33600090815260046020526040812060010180549091906134d090849061449d565b9250508190555061352c3360008054906101000a90046001600160a01b03166001600160a01b0316635229d3c06040518163ffffffff1660e01b8152600401602060405180830381865afa158015611707573d6000803e3d6000fd5b7f323999ace879fddf5162b0e501fc00204d59865ea81164e0fb65cf01a2eb9e3e338989896040516117e99493929190614673565b6001600160a01b03821660009081526005602090815260408083208484529091528120600b81015460ff1615806135a15750600b810154610100900460ff165b156135b05760009150506136a5565b600042826005016003015483600a01546135ca919061449d565b11905060008060009054906101000a90046001600160a01b03166001600160a01b031663dbc076756040518163ffffffff1660e01b8152600401606060405180830381865afa158015613621573d6000803e3d6000fd5b505050506040513d601f19601f8201168201806040525081019061364591906146e1565b6040015167ffffffffffffffff166127108460020154613665919061476b565b61366f9190614754565b9050818061369f5750826004015481846002015485600101546136929190614864565b61369c919061488c565b13155b93505050505b92915050565b6001546001600160a01b031633146136fd5760405162461bcd60e51b81526020600482015260156024820152741d5b985d5d1a1bdc9a5e99590b58dbdb9d1c9858dd605a1b604482015260640161040b565b6001600160a01b03808416600090815260046020526040902080549091166138055780546001600160a01b03199081166001600160a01b0386811691909117835560028301805460ff199081168255600380546001818101835560008390528754919092027fc2575a0e9e593c00f959f8c92f12db2869c3395a3b0502d05e2516446f71f85b8101805490971691909516178555808601547fc2575a0e9e593c00f959f8c92f12db2869c3395a3b0502d05e2516446f71f85c85015591547fc2575a0e9e593c00f959f8c92f12db2869c3395a3b0502d05e2516446f71f85d909301805486959460ff16939192169083818111156137fd576137fd614216565b021790555050505b60005460408401516001600160a01b03909116906138585760405162461bcd60e51b815260206004820152601060248201526f746f6b656e2d6e6f742d61637469766560801b604482015260640161040b565b6138bd84826001600160a01b031663d15109926040518163ffffffff1660e01b81526004016040805180830381865afa158015613899573d6000803e3d6000fd5b505050506040513d601f19601f82011682018060405250810190610ec69190614412565b8310156138dc5760405162461bcd60e51b815260040161040b9061472f565b6138e68484613a13565b82546001600160a01b03166000908152600460205260408120600101805490919061391290849061449d565b9091555050600282015484516040517f1c998b28180f219e03b042c2d800cb442c0d225a03035c16e923e67b1d99e3629261395692899260ff90921691889061450e565b60405180910390a15050505050565b60008060009054906101000a90046001600160a01b03166001600160a01b0316636a6aa9836040518163ffffffff1660e01b8152600401602060405180830381865afa1580156139b9573d6000803e3d6000fd5b505050506040513d601f19601f820116820180604052508101906139dd91906148ac565b6139e890600a6149ad565b60208401516139f890600a6149ad565b613a029084614754565b613a0c919061476b565b9392505050565b60008260200151600a613a2691906149ad565b60008054906101000a90046001600160a01b03166001600160a01b0316636a6aa9836040518163ffffffff1660e01b8152600401602060405180830381865afa158015613a77573d6000803e3d6000fd5b505050506040513d601f19601f82011682018060405250810190613a9b91906148ac565b6139f890600a6149ad565b816001600160a01b038116613acd5760405162461bcd60e51b815260040161040b906143cc565b613ad984836000613afb565b6127a883836001613afb565b6000818311613af45781613a0c565b5090919050565b600154604051634500149960e11b81526001600160a01b03858116600483015260248201859052831515604483015290911690638a00293290606401600060405180830381600087803b158015613b5157600080fd5b505af1158015613b65573d6000803e3d6000fd5b5050505080613ba4576001600160a01b03831660009081526004602052604081206001018054849290613b999084906144de565b90915550613bd59050565b6001600160a01b03831660009081526004602052604081206001018054849290613bcf90849061449d565b90915550505b505050565b6000546040516316d3759560e01b81526001600160a01b038481166004830152909116906316d3759590602401602060405180830381865afa158015613c24573d6000803e3d6000fd5b505050506040513d601f19601f82011682018060405250810190613c4891906146c4565b613c945760405162461bcd60e51b815260206004820152601960248201527f696e76616c69642d7661756c742d696e666f726d6174696f6e00000000000000604482015260640161040b565b60008054906101000a90046001600160a01b03166001600160a01b031663c95c544b6040518163ffffffff1660e01b8152600401602060405180830381865afa158015613ce5573d6000803e3d6000fd5b505050506040513d601f19601f82011682018060405250810190613d0991906144f1565b60005460405163254f270360e21b81526001600160a01b0385811660048301529283169263f11bc73e92169063953c9c0c90602401606060405180830381865afa158015613d5b573d6000803e3d6000fd5b505050506040513d601f19601f82011682018060405250810190613d7f91906149bc565b6020015184846040518463ffffffff1660e01b8152600401613da393929190614a02565b600060405180830381600087803b158015613dbd57600080fd5b505af1158015613dd1573d6000803e3d6000fd5b505050505050565b60405180610120016040528060006001600160a01b0316815260200160008152602001600081526020016000815260200160008152602001613e546040518060c0016040528060008152602001600061ffff168152602001600061ffff16815260200160008152602001600081526020016000151581525090565b81526000602082018190526040820181905260609091015290565b6001600160a01b0381168114613e8457600080fd5b50565b6040516060810167ffffffffffffffff81118282101715613eb857634e487b7160e01b600052604160045260246000fd5b60405290565b6040805190810167ffffffffffffffff81118282101715613eb857634e487b7160e01b600052604160045260246000fd5b60ff81168114613e8457600080fd5b8015158114613e8457600080fd5b600060608284031215613f1e57600080fd5b613f26613e87565b90508135613f3381613e6f565b81526020820135613f4381613eef565b60208201526040820135613f5681613efe565b604082015292915050565b60008060008060c08587031215613f7757600080fd5b8435613f8281613e6f565b9350613f918660208701613f0c565b92506080850135915060a0850135613fa881613e6f565b939692955090935050565b600060208284031215613fc557600080fd5b8135613a0c81613e6f565b80516001600160a01b031682526020808201518184015260408083015181850152606080840151818601526080808501518187015260a0858101518051888301529485015161ffff90811660c08901529385015190931660e08701529083015161010086015282015161012085015281015115156101408401525060c081015161016083015260e081015180151561018084015250610100015115156101a09190910152565b6020808252825182820181905260009190848201906040850190845b818110156140b9576140a5838551613fd0565b928401926101c09290920191600101614092565b50909695505050505050565b600080604083850312156140d857600080fd5b82356140e381613e6f565b946020939093013593505050565b6101c081016136a58284613fd0565b60008060008060c0858703121561411657600080fd5b843561412181613e6f565b93506141308660208701613f0c565b939693955050505060808201359160a0013590565b6000806080838503121561415857600080fd5b6141628484613f0c565b946060939093013593505050565b600080600080600060e0868803121561418857600080fd5b853561419381613e6f565b94506141a28760208801613f0c565b93506080860135925060a08601356141b981613e6f565b915060c08601356141c981613e6f565b809150509295509295909350565b600080600060a084860312156141ec57600080fd5b83356141f781613e6f565b92506142068560208601613f0c565b9150608084013590509250925092565b634e487b7160e01b600052602160045260246000fd5b6002811061424a57634e487b7160e01b600052602160045260246000fd5b9052565b81516001600160a01b031681526020808301519082015260408083015160608301916109b99084018261422c565b6000806040838503121561428f57600080fd5b823561429a81613e6f565b91506020830135600281106142ae57600080fd5b809150509250929050565b600080600060a084860312156142ce57600080fd5b6142d88585613f0c565b95606085013595506080909401359392505050565b60008060006060848603121561430257600080fd5b833561430d81613e6f565b925060208401359150604084013561432481613efe565b809150509250925092565b60006040828403121561434157600080fd5b614349613ebe565b905081358152602082013561435d81613efe565b602082015292915050565b6000806000806000610100868803121561438157600080fd5b853561438c81613e6f565b9450602086013593506143a2876040880161432f565b92506143b1876080880161432f565b91506143c08760c0880161432f565b90509295509295909350565b6020808252600f908201526e696e76616c69642d6164647265737360881b604082015260600190565b805167ffffffffffffffff8116811461440d57600080fd5b919050565b60006040828403121561442457600080fd5b61442c613ebe565b614435836143f5565b8152614443602084016143f5565b60208201529392505050565b602081016136a5828461422c565b60006040828403121561446f57600080fd5b614477613ebe565b82518152614443602084016143f5565b634e487b7160e01b600052601160045260246000fd5b808201808211156136a5576136a5614487565b602080825260149082015273696e73756666696369656e742d62616c616e636560601b604082015260600190565b818103818111156136a5576136a5614487565b60006020828403121561450357600080fd5b8151613a0c81613e6f565b6001600160a01b038581168252608082019061452d602084018761422c565b9390931660408201526060015292915050565b6020808252601290820152716d61726b65742d6d616b6572732d6f6e6c7960701b604082015260600190565b6020808252600c908201526b1d5b985d5d1a1bdc9a5e995960a21b604082015260600190565b6020808252818101527f5472616461626c653a204f4e4c595f545255535445445f464f52574152444552604082015260600190565b805161ffff8116811461440d57600080fd5b600060c082840312156145eb57600080fd5b60405160c0810181811067ffffffffffffffff8211171561461c57634e487b7160e01b600052604160045260246000fd5b6040528251815261462f602084016145c7565b6020820152614640604084016145c7565b6040820152606083015160608201526080830151608082015260a083015161466781613efe565b60a08201529392505050565b6001600160a01b038516815260c081016146b2602083018680516001600160a01b0316825260208082015160ff16908301526040908101511515910152565b608082019390935260a0015292915050565b6000602082840312156146d657600080fd5b8151613a0c81613efe565b6000606082840312156146f357600080fd5b6146fb613e87565b614704836143f5565b8152614712602084016143f5565b6020820152614723604084016143f5565b60408201529392505050565b6020808252600b908201526a1b5a5b8b59195c1bdcda5d60aa1b604082015260600190565b80820281158282048414176136a5576136a5614487565b60008261478857634e487b7160e01b600052601260045260246000fd5b500490565b6001600160a01b03868116825260a08201906147ac602084018861422c565b80861660408401528460608401528084166080840152509695505050505050565b6020808252601390820152723ab730baba3437b934bd32b216b1b0b63632b960691b604082015260600190565b6001600160a01b038316815260408101613a0c602083018461422c565b6001600160a01b038416815260a08101614856602083018580516001600160a01b0316825260208082015160ff16908301526040908101511515910152565b826080830152949350505050565b808201828112600083128015821682158216171561488457614884614487565b505092915050565b81810360008312801583831316838312821617156109b9576109b9614487565b6000602082840312156148be57600080fd5b8151613a0c81613eef565b600181815b808511156149045781600019048211156148ea576148ea614487565b808516156148f757918102915b93841c93908002906148ce565b509250929050565b60008261491b575060016136a5565b81614928575060006136a5565b816001811461493e576002811461494857614964565b60019150506136a5565b60ff84111561495957614959614487565b50506001821b6136a5565b5060208310610133831016604e8410600b8410161715614987575081810a6136a5565b61499183836148c9565b80600019048211156149a5576149a5614487565b029392505050565b6000613a0c60ff84168361490c565b6000606082840312156149ce57600080fd5b6149d6613e87565b82516149e181613e6f565b81526149ef602084016145c7565b6020820152604083015161472381613efe565b61ffff841681526000602060018060a01b0385168184015260606040840152835180606085015260005b81811015614a4857858101830151858201608001528201614a2c565b506000608082860101526080601f19601f8301168501019250505094935050505056fea2646970667358221220d16e381c6c02571b48d79445fa56f90609828131690441ac22e4b286ad036d8564736f6c63430008130033",
  "linkReferences": {},
  "deployedLinkReferences": {}
}