{
  "_format": "hh-sol-artifact-1",
  "contractName": "TradableSideVault",
  "sourceName": "contracts/TradableSideVault.sol",
  "abi": [
    {
      "inputs": [
        {
          "internalType": "address",
          "name": "_endpoint",
          "type": "address"
        },
        {
          "internalType": "uint16",
          "name": "_dstChainId",
          "type": "uint16"
        },
        {
          "internalType": "address",
          "name": "_dstMessageAdapter",
          "type": "address"
        },
        {
          "internalType": "address",
          "name": "_dstBaseMarginVault",
          "type": "address"
        },
        {
          "internalType": "address",
          "name": "_dstBaseStakingVault",
          "type": "address"
        },
        {
          "internalType": "address",
          "name": "_dstMarginHandler",
          "type": "address"
        },
        {
          "internalType": "address",
          "name": "_dstSettingsProvider",
          "type": "address"
        },
        {
          "internalType": "address",
          "name": "_gelatoRelay1Balance",
          "type": "address"
        }
      ],
      "stateMutability": "nonpayable",
      "type": "constructor"
    },
    {
      "anonymous": false,
      "inputs": [
        {
          "indexed": false,
          "internalType": "address",
          "name": "_token",
          "type": "address"
        },
        {
          "indexed": false,
          "internalType": "uint8",
          "name": "_decimals",
          "type": "uint8"
        },
        {
          "indexed": false,
          "internalType": "bool",
          "name": "_isActive",
          "type": "bool"
        }
      ],
      "name": "AcceptedTokenAdded",
      "type": "event"
    },
    {
      "anonymous": false,
      "inputs": [
        {
          "indexed": false,
          "internalType": "address",
          "name": "_token",
          "type": "address"
        }
      ],
      "name": "AcceptedTokenDeactivated",
      "type": "event"
    },
    {
      "anonymous": false,
      "inputs": [
        {
          "indexed": false,
          "internalType": "address",
          "name": "_token",
          "type": "address"
        },
        {
          "indexed": false,
          "internalType": "uint8",
          "name": "_decimals",
          "type": "uint8"
        },
        {
          "indexed": false,
          "internalType": "bool",
          "name": "_isActive",
          "type": "bool"
        }
      ],
      "name": "AcceptedTokenEdited",
      "type": "event"
    },
    {
      "anonymous": false,
      "inputs": [
        {
          "indexed": false,
          "internalType": "address",
          "name": "_token",
          "type": "address"
        }
      ],
      "name": "AcceptedTokenRemoved",
      "type": "event"
    },
    {
      "anonymous": false,
      "inputs": [
        {
          "indexed": true,
          "internalType": "address",
          "name": "user",
          "type": "address"
        }
      ],
      "name": "FundingAccountCreated",
      "type": "event"
    },
    {
      "anonymous": false,
      "inputs": [
        {
          "indexed": true,
          "internalType": "address",
          "name": "receiver",
          "type": "address"
        },
        {
          "indexed": false,
          "internalType": "uint256",
          "name": "amount",
          "type": "uint256"
        }
      ],
      "name": "GasTransferred",
      "type": "event"
    },
    {
      "anonymous": false,
      "inputs": [
        {
          "indexed": true,
          "internalType": "address",
          "name": "receiver",
          "type": "address"
        },
        {
          "indexed": false,
          "internalType": "uint16",
          "name": "dstChainId",
          "type": "uint16"
        },
        {
          "indexed": false,
          "internalType": "uint256",
          "name": "amount",
          "type": "uint256"
        }
      ],
      "name": "LiquiditySwapped",
      "type": "event"
    },
    {
      "anonymous": false,
      "inputs": [
        {
          "indexed": true,
          "internalType": "address",
          "name": "user",
          "type": "address"
        },
        {
          "indexed": false,
          "internalType": "uint256",
          "name": "amount",
          "type": "uint256"
        }
      ],
      "name": "MarketMakerPositionCreationRequested",
      "type": "event"
    },
    {
      "anonymous": false,
      "inputs": [
        {
          "indexed": false,
          "internalType": "uint16",
          "name": "_srcChainId",
          "type": "uint16"
        },
        {
          "indexed": false,
          "internalType": "bytes",
          "name": "_srcAddress",
          "type": "bytes"
        },
        {
          "indexed": false,
          "internalType": "uint64",
          "name": "_nonce",
          "type": "uint64"
        },
        {
          "indexed": false,
          "internalType": "bytes",
          "name": "_payload",
          "type": "bytes"
        }
      ],
      "name": "MessageFailed",
      "type": "event"
    },
    {
      "anonymous": false,
      "inputs": [
        {
          "indexed": true,
          "internalType": "address",
          "name": "previousOwner",
          "type": "address"
        },
        {
          "indexed": true,
          "internalType": "address",
          "name": "newOwner",
          "type": "address"
        }
      ],
      "name": "OwnershipTransferStarted",
      "type": "event"
    },
    {
      "anonymous": false,
      "inputs": [
        {
          "indexed": true,
          "internalType": "address",
          "name": "previousOwner",
          "type": "address"
        },
        {
          "indexed": true,
          "internalType": "address",
          "name": "newOwner",
          "type": "address"
        }
      ],
      "name": "OwnershipTransferred",
      "type": "event"
    },
    {
      "anonymous": false,
      "inputs": [
        {
          "indexed": false,
          "internalType": "uint16",
          "name": "_srcChainId",
          "type": "uint16"
        },
        {
          "indexed": false,
          "internalType": "bytes",
          "name": "_srcAddress",
          "type": "bytes"
        }
      ],
      "name": "SetTrustedRemote",
      "type": "event"
    },
    {
      "anonymous": false,
      "inputs": [
        {
          "indexed": true,
          "internalType": "address",
          "name": "user",
          "type": "address"
        },
        {
          "indexed": false,
          "internalType": "address",
          "name": "token",
          "type": "address"
        },
        {
          "indexed": false,
          "internalType": "uint256",
          "name": "amount",
          "type": "uint256"
        }
      ],
      "name": "SideChainMarginDepositInitiated",
      "type": "event"
    },
    {
      "anonymous": false,
      "inputs": [
        {
          "indexed": true,
          "internalType": "address",
          "name": "user",
          "type": "address"
        },
        {
          "indexed": false,
          "internalType": "address",
          "name": "token",
          "type": "address"
        },
        {
          "indexed": false,
          "internalType": "uint256",
          "name": "amount",
          "type": "uint256"
        }
      ],
      "name": "SideChainStakeDepositInitiated",
      "type": "event"
    },
    {
      "anonymous": false,
      "inputs": [
        {
          "indexed": true,
          "internalType": "address",
          "name": "user",
          "type": "address"
        },
        {
          "indexed": false,
          "internalType": "address",
          "name": "token",
          "type": "address"
        },
        {
          "indexed": false,
          "internalType": "uint256",
          "name": "amount",
          "type": "uint256"
        }
      ],
      "name": "SideChainStakeFromMarginAccounInitiated",
      "type": "event"
    },
    {
      "anonymous": false,
      "inputs": [
        {
          "indexed": true,
          "internalType": "address",
          "name": "user",
          "type": "address"
        },
        {
          "indexed": false,
          "internalType": "address",
          "name": "token",
          "type": "address"
        },
        {
          "indexed": false,
          "internalType": "uint256",
          "name": "amount",
          "type": "uint256"
        }
      ],
      "name": "SideChainWithdrawalInitiated",
      "type": "event"
    },
    {
      "anonymous": false,
      "inputs": [
        {
          "indexed": true,
          "internalType": "address",
          "name": "user",
          "type": "address"
        },
        {
          "indexed": false,
          "internalType": "address",
          "name": "token",
          "type": "address"
        },
        {
          "indexed": false,
          "internalType": "uint256",
          "name": "amount",
          "type": "uint256"
        }
      ],
      "name": "SideChainWithdrawalProcessed",
      "type": "event"
    },
    {
      "anonymous": false,
      "inputs": [
        {
          "indexed": true,
          "internalType": "address",
          "name": "user",
          "type": "address"
        },
        {
          "indexed": true,
          "internalType": "address",
          "name": "receiver",
          "type": "address"
        },
        {
          "indexed": false,
          "internalType": "address",
          "name": "token",
          "type": "address"
        },
        {
          "indexed": false,
          "internalType": "uint256",
          "name": "amount",
          "type": "uint256"
        }
      ],
      "name": "SideChainWithdrawalToAddressInitiated",
      "type": "event"
    },
    {
      "inputs": [],
      "name": "acceptOwnership",
      "outputs": [],
      "stateMutability": "nonpayable",
      "type": "function"
    },
    {
      "inputs": [],
      "name": "defaultDecimal",
      "outputs": [
        {
          "internalType": "uint8",
          "name": "",
          "type": "uint8"
        }
      ],
      "stateMutability": "view",
      "type": "function"
    },
    {
      "inputs": [],
      "name": "dstBaseMarginVault",
      "outputs": [
        {
          "internalType": "address",
          "name": "",
          "type": "address"
        }
      ],
      "stateMutability": "view",
      "type": "function"
    },
    {
      "inputs": [],
      "name": "dstBaseStakingVault",
      "outputs": [
        {
          "internalType": "address",
          "name": "",
          "type": "address"
        }
      ],
      "stateMutability": "view",
      "type": "function"
    },
    {
      "inputs": [],
      "name": "dstChainId",
      "outputs": [
        {
          "internalType": "uint16",
          "name": "",
          "type": "uint16"
        }
      ],
      "stateMutability": "view",
      "type": "function"
    },
    {
      "inputs": [],
      "name": "dstMarginHandler",
      "outputs": [
        {
          "internalType": "address",
          "name": "",
          "type": "address"
        }
      ],
      "stateMutability": "view",
      "type": "function"
    },
    {
      "inputs": [],
      "name": "dstMessageAdapter",
      "outputs": [
        {
          "internalType": "address",
          "name": "",
          "type": "address"
        }
      ],
      "stateMutability": "view",
      "type": "function"
    },
    {
      "inputs": [],
      "name": "dstSettingsProvider",
      "outputs": [
        {
          "internalType": "address",
          "name": "",
          "type": "address"
        }
      ],
      "stateMutability": "view",
      "type": "function"
    },
    {
      "inputs": [],
      "name": "endpoint",
      "outputs": [
        {
          "internalType": "address",
          "name": "",
          "type": "address"
        }
      ],
      "stateMutability": "view",
      "type": "function"
    },
    {
      "inputs": [
        {
          "internalType": "uint16",
          "name": "",
          "type": "uint16"
        },
        {
          "internalType": "bytes",
          "name": "",
          "type": "bytes"
        },
        {
          "internalType": "uint64",
          "name": "",
          "type": "uint64"
        }
      ],
      "name": "failedMessages",
      "outputs": [
        {
          "internalType": "bytes32",
          "name": "",
          "type": "bytes32"
        }
      ],
      "stateMutability": "view",
      "type": "function"
    },
    {
      "inputs": [
        {
          "internalType": "uint16",
          "name": "_srcChainId",
          "type": "uint16"
        },
        {
          "internalType": "bytes",
          "name": "_srcAddress",
          "type": "bytes"
        }
      ],
      "name": "forceResumeReceive",
      "outputs": [],
      "stateMutability": "nonpayable",
      "type": "function"
    },
    {
      "inputs": [
        {
          "internalType": "address",
          "name": "token",
          "type": "address"
        }
      ],
      "name": "getAcceptedTokenInfo",
      "outputs": [
        {
          "components": [
            {
              "internalType": "address",
              "name": "token",
              "type": "address"
            },
            {
              "internalType": "uint8",
              "name": "decimals",
              "type": "uint8"
            },
            {
              "internalType": "bool",
              "name": "isActive",
              "type": "bool"
            }
          ],
          "internalType": "struct TradableSideVault.AcceptedToken",
          "name": "",
          "type": "tuple"
        }
      ],
      "stateMutability": "view",
      "type": "function"
    },
    {
      "inputs": [],
      "name": "getAdminUser",
      "outputs": [
        {
          "internalType": "address",
          "name": "",
          "type": "address"
        }
      ],
      "stateMutability": "view",
      "type": "function"
    },
    {
      "inputs": [
        {
          "internalType": "uint16",
          "name": "_version",
          "type": "uint16"
        },
        {
          "internalType": "uint16",
          "name": "_chainId",
          "type": "uint16"
        },
        {
          "internalType": "address",
          "name": "",
          "type": "address"
        },
        {
          "internalType": "uint256",
          "name": "_configType",
          "type": "uint256"
        }
      ],
      "name": "getConfig",
      "outputs": [
        {
          "internalType": "bytes",
          "name": "",
          "type": "bytes"
        }
      ],
      "stateMutability": "view",
      "type": "function"
    },
    {
      "inputs": [
        {
          "internalType": "address",
          "name": "forwarder",
          "type": "address"
        }
      ],
      "name": "isTrustedForwarder",
      "outputs": [
        {
          "internalType": "bool",
          "name": "",
          "type": "bool"
        }
      ],
      "stateMutability": "view",
      "type": "function"
    },
    {
      "inputs": [
        {
          "internalType": "uint16",
          "name": "_srcChainId",
          "type": "uint16"
        },
        {
          "internalType": "bytes",
          "name": "_srcAddress",
          "type": "bytes"
        }
      ],
      "name": "isTrustedRemote",
      "outputs": [
        {
          "internalType": "bool",
          "name": "",
          "type": "bool"
        }
      ],
      "stateMutability": "view",
      "type": "function"
    },
    {
      "inputs": [],
      "name": "lzEndpoint",
      "outputs": [
        {
          "internalType": "contract ILayerZeroEndpoint",
          "name": "",
          "type": "address"
        }
      ],
      "stateMutability": "view",
      "type": "function"
    },
    {
      "inputs": [
        {
          "internalType": "uint16",
          "name": "_srcChainId",
          "type": "uint16"
        },
        {
          "internalType": "bytes",
          "name": "_srcAddress",
          "type": "bytes"
        },
        {
          "internalType": "uint64",
          "name": "_nonce",
          "type": "uint64"
        },
        {
          "internalType": "bytes",
          "name": "_payload",
          "type": "bytes"
        }
      ],
      "name": "lzReceive",
      "outputs": [],
      "stateMutability": "nonpayable",
      "type": "function"
    },
    {
      "inputs": [
        {
          "internalType": "address",
          "name": "user",
          "type": "address"
        },
        {
          "internalType": "address",
          "name": "token",
          "type": "address"
        },
        {
          "internalType": "uint256",
          "name": "amount",
          "type": "uint256"
        }
      ],
      "name": "marginAccountDepositFromUserAccount",
      "outputs": [],
      "stateMutability": "nonpayable",
      "type": "function"
    },
    {
      "inputs": [
        {
          "internalType": "uint16",
          "name": "_srcChainId",
          "type": "uint16"
        },
        {
          "internalType": "bytes",
          "name": "_srcAddress",
          "type": "bytes"
        },
        {
          "internalType": "uint64",
          "name": "_nonce",
          "type": "uint64"
        },
        {
          "internalType": "bytes",
          "name": "_payload",
          "type": "bytes"
        }
      ],
      "name": "nonblockingLzReceive",
      "outputs": [],
      "stateMutability": "nonpayable",
      "type": "function"
    },
    {
      "inputs": [],
      "name": "owner",
      "outputs": [
        {
          "internalType": "address",
          "name": "",
          "type": "address"
        }
      ],
      "stateMutability": "view",
      "type": "function"
    },
    {
      "inputs": [],
      "name": "pendingOwner",
      "outputs": [
        {
          "internalType": "address",
          "name": "",
          "type": "address"
        }
      ],
      "stateMutability": "view",
      "type": "function"
    },
    {
      "inputs": [],
      "name": "renounceOwnership",
      "outputs": [],
      "stateMutability": "nonpayable",
      "type": "function"
    },
    {
      "inputs": [
        {
          "internalType": "uint16",
          "name": "_srcChainId",
          "type": "uint16"
        },
        {
          "internalType": "bytes",
          "name": "_srcAddress",
          "type": "bytes"
        },
        {
          "internalType": "uint64",
          "name": "_nonce",
          "type": "uint64"
        },
        {
          "internalType": "bytes",
          "name": "_payload",
          "type": "bytes"
        }
      ],
      "name": "retryMessage",
      "outputs": [],
      "stateMutability": "payable",
      "type": "function"
    },
    {
      "inputs": [
        {
          "internalType": "uint16",
          "name": "_version",
          "type": "uint16"
        },
        {
          "internalType": "uint16",
          "name": "_chainId",
          "type": "uint16"
        },
        {
          "internalType": "uint256",
          "name": "_configType",
          "type": "uint256"
        },
        {
          "internalType": "bytes",
          "name": "_config",
          "type": "bytes"
        }
      ],
      "name": "setConfig",
      "outputs": [],
      "stateMutability": "nonpayable",
      "type": "function"
    },
    {
      "inputs": [
        {
          "internalType": "uint16",
          "name": "_version",
          "type": "uint16"
        }
      ],
      "name": "setReceiveVersion",
      "outputs": [],
      "stateMutability": "nonpayable",
      "type": "function"
    },
    {
      "inputs": [
        {
          "internalType": "uint16",
          "name": "_version",
          "type": "uint16"
        }
      ],
      "name": "setSendVersion",
      "outputs": [],
      "stateMutability": "nonpayable",
      "type": "function"
    },
    {
      "inputs": [
        {
          "internalType": "uint16",
          "name": "_srcChainId",
          "type": "uint16"
        },
        {
          "internalType": "bytes",
          "name": "_srcAddress",
          "type": "bytes"
        }
      ],
      "name": "setTrustedRemote",
      "outputs": [],
      "stateMutability": "nonpayable",
      "type": "function"
    },
    {
      "inputs": [
        {
          "internalType": "address",
          "name": "_zroPaymentAddress",
          "type": "address"
        }
      ],
      "name": "setZroPaymentAddress",
      "outputs": [],
      "stateMutability": "nonpayable",
      "type": "function"
    },
    {
      "inputs": [
        {
          "internalType": "address",
          "name": "user",
          "type": "address"
        },
        {
          "internalType": "address",
          "name": "token",
          "type": "address"
        },
        {
          "internalType": "uint256",
          "name": "amount",
          "type": "uint256"
        }
      ],
      "name": "stakeFromMarginAccount",
      "outputs": [],
      "stateMutability": "nonpayable",
      "type": "function"
    },
    {
      "inputs": [
        {
          "internalType": "address",
          "name": "user",
          "type": "address"
        },
        {
          "internalType": "address",
          "name": "token",
          "type": "address"
        },
        {
          "internalType": "uint256",
          "name": "amount",
          "type": "uint256"
        }
      ],
      "name": "stakingAccountDeposit",
      "outputs": [],
      "stateMutability": "nonpayable",
      "type": "function"
    },
    {
      "inputs": [],
      "name": "stakingSettings",
      "outputs": [
        {
          "internalType": "uint64",
          "name": "minStakingDeposit",
          "type": "uint64"
        },
        {
          "internalType": "uint64",
          "name": "minStakingWithdrawal",
          "type": "uint64"
        },
        {
          "internalType": "bool",
          "name": "canUsersStake",
          "type": "bool"
        }
      ],
      "stateMutability": "view",
      "type": "function"
    },
    {
      "inputs": [
        {
          "internalType": "address",
          "name": "swapRouter",
          "type": "address"
        },
        {
          "internalType": "uint256",
          "name": "dstPoolId",
          "type": "uint256"
        },
        {
          "internalType": "uint256",
          "name": "srcPoolId",
          "type": "uint256"
        },
        {
          "internalType": "uint16",
          "name": "chainId",
          "type": "uint16"
        },
        {
          "internalType": "uint256",
          "name": "amount",
          "type": "uint256"
        },
        {
          "internalType": "uint256",
          "name": "spread",
          "type": "uint256"
        },
        {
          "internalType": "address",
          "name": "reciever",
          "type": "address"
        },
        {
          "internalType": "address",
          "name": "token",
          "type": "address"
        }
      ],
      "name": "swapLiquidity",
      "outputs": [],
      "stateMutability": "payable",
      "type": "function"
    },
    {
      "inputs": [
        {
          "internalType": "address",
          "name": "token",
          "type": "address"
        }
      ],
      "name": "tokenExists",
      "outputs": [
        {
          "internalType": "bool",
          "name": "",
          "type": "bool"
        }
      ],
      "stateMutability": "view",
      "type": "function"
    },
    {
      "inputs": [
        {
          "internalType": "address payable",
          "name": "receiver",
          "type": "address"
        },
        {
          "internalType": "uint256",
          "name": "amount",
          "type": "uint256"
        }
      ],
      "name": "transferGas",
      "outputs": [],
      "stateMutability": "payable",
      "type": "function"
    },
    {
      "inputs": [
        {
          "internalType": "address",
          "name": "newOwner",
          "type": "address"
        }
      ],
      "name": "transferOwnership",
      "outputs": [],
      "stateMutability": "nonpayable",
      "type": "function"
    },
    {
      "inputs": [
        {
          "internalType": "uint16",
          "name": "",
          "type": "uint16"
        }
      ],
      "name": "trustedRemoteLookup",
      "outputs": [
        {
          "internalType": "bytes",
          "name": "",
          "type": "bytes"
        }
      ],
      "stateMutability": "view",
      "type": "function"
    },
    {
      "inputs": [],
      "name": "userMarginSettings",
      "outputs": [
        {
          "internalType": "uint64",
          "name": "minMarginDeposit",
          "type": "uint64"
        },
        {
          "internalType": "uint64",
          "name": "minMarginWithdrawal",
          "type": "uint64"
        }
      ],
      "stateMutability": "view",
      "type": "function"
    },
    {
      "inputs": [
        {
          "internalType": "enum TradableSideVault.WithdrawalType",
          "name": "withdrawalType",
          "type": "uint8"
        },
        {
          "internalType": "address",
          "name": "user",
          "type": "address"
        },
        {
          "internalType": "address",
          "name": "token",
          "type": "address"
        },
        {
          "internalType": "uint256",
          "name": "amount",
          "type": "uint256"
        }
      ],
      "name": "withdrawalRequest",
      "outputs": [],
      "stateMutability": "nonpayable",
      "type": "function"
    },
    {
      "inputs": [
        {
          "internalType": "address",
          "name": "user",
          "type": "address"
        },
        {
          "internalType": "address",
          "name": "token",
          "type": "address"
        },
        {
          "internalType": "uint256",
          "name": "amount",
          "type": "uint256"
        },
        {
          "internalType": "address",
          "name": "receiver",
          "type": "address"
        }
      ],
      "name": "withdrawalToAddressRequest",
      "outputs": [],
      "stateMutability": "nonpayable",
      "type": "function"
    },
    {
      "stateMutability": "payable",
      "type": "receive"
    }
  ],
  "bytecode": "0x60c06040523480156200001157600080fd5b50604051620048a6380380620048a68339810160408190526200003491620001bf565b808880620000423362000134565b6001600160a01b0390811660805291821660a052508816620000aa5760405162461bcd60e51b815260206004820152601f60248201527f5472616461626c653a205a45524f5f414444524553535f454e44504f494e5400604482015260640160405180910390fd5b506004805461ffff909716600160a01b026001600160b01b03199097166001600160a01b039889161796909617909555600580549487166001600160a01b031995861617905560068054938716938516939093179092556007805491861691841691909117905560088054918516918316919091179055600980549290931691161790556200026f565b600180546001600160a01b03191690556200014f8162000152565b50565b600080546001600160a01b038381166001600160a01b0319831681178455604051919092169283917f8be0079c531659141344cd1fd0a4f28419497f9722a3daafe3b4186f6b6457e09190a35050565b80516001600160a01b0381168114620001ba57600080fd5b919050565b600080600080600080600080610100898b031215620001dd57600080fd5b620001e889620001a2565b9750602089015161ffff811681146200020057600080fd5b96506200021060408a01620001a2565b95506200022060608a01620001a2565b94506200023060808a01620001a2565b93506200024060a08a01620001a2565b92506200025060c08a01620001a2565b91506200026060e08a01620001a2565b90509295985092959890939650565b60805160a0516145d9620002cd600039600061186701526000818161067001528181610812015281816109d701528181610ce8015281816117f501528181611c57015281816120090152818161230e015261248701526145d96000f3fe60806040526004361061023e5760003560e01c8063715018a61161012e578063d1deba1f116100ab578063ed01d59c1161006f578063ed01d59c14610762578063ee30922a14610782578063eeef0e46146107af578063f2fde38b146107cf578063f5ecbdbc146107ef57600080fd5b8063d1deba1f146106f1578063d513cc4414610620578063e119c09b14610704578063e30c397814610724578063eb8d72b71461074257600080fd5b8063b33f78ca116100f2578063b33f78ca1461063e578063b353aaa71461065e578063b99809a714610692578063c3d11720146106a5578063cbed8b9c146106d157600080fd5b8063715018a6146105a95780637533d788146105be57806379ba5097146105eb578063856925cc146106005780638da5cb5b1461062057600080fd5b80633733ae9a116101bc5780635b8c41e6116101805780635b8c41e6146104615780635e280f11146104be57806366ad5c8a146104de578063694ed652146104fe5780636d7ae8371461054957600080fd5b80633733ae9a146103b15780633794aa08146103d15780633d8b38f6146103f157806342d65a8d14610421578063572b6c051461044157600080fd5b8063234b519511610203578063234b5195146102fc5780632cf230311461031c57806330c593f71461033c578063317353be146103715780633406d0cf1461039157600080fd5b80621d35671461024a57806307e0db171461026c5780630fec99f41461028c57806310ddb1371461029f57806321ad8b53146102bf57600080fd5b3661024557005b600080fd5b34801561025657600080fd5b5061026a6102653660046134cd565b61080f565b005b34801561027857600080fd5b5061026a610287366004613557565b6109b6565b61026a61029a366004613589565b610a38565b3480156102ab57600080fd5b5061026a6102ba366004613557565b610cc7565b3480156102cb57600080fd5b506008546102df906001600160a01b031681565b6040516001600160a01b0390911681526020015b60405180910390f35b34801561030857600080fd5b5061026a61031736600461360e565b610d1f565b34801561032857600080fd5b5061026a61033736600461360e565b610eb0565b34801561034857600080fd5b5060045461035e90600160a01b900461ffff1681565b60405161ffff90911681526020016102f3565b34801561037d57600080fd5b5061026a61038c36600461360e565b611075565b34801561039d57600080fd5b5061026a6103ac36600461364f565b611204565b3480156103bd57600080fd5b506005546102df906001600160a01b031681565b3480156103dd57600080fd5b5061026a6103ec3660046136a2565b61147d565b3480156103fd57600080fd5b5061041161040c36600461373f565b611709565b60405190151581526020016102f3565b34801561042d57600080fd5b5061026a61043c36600461373f565b6117d6565b34801561044d57600080fd5b5061041161045c366004613793565b611865565b34801561046d57600080fd5b506104b061047c3660046137b0565b6003602090815260009384526040808520845180860184018051928152908401958401959095209452929052825290205481565b6040519081526020016102f3565b3480156104ca57600080fd5b506004546102df906001600160a01b031681565b3480156104ea57600080fd5b5061026a6104f93660046134cd565b611897565b34801561050a57600080fd5b50600a54610529906001600160401b0380821691600160401b90041682565b604080516001600160401b039384168152929091166020830152016102f3565b34801561055557600080fd5b50600b54610581906001600160401b0380821691600160401b810490911690600160801b900460ff1683565b604080516001600160401b0394851681529390921660208401521515908201526060016102f3565b3480156105b557600080fd5b5061026a611907565b3480156105ca57600080fd5b506105de6105d9366004613557565b61191b565b6040516102f39190613863565b3480156105f757600080fd5b5061026a6119b5565b34801561060c57600080fd5b5061026a61061b366004613793565b611a2f565b34801561062c57600080fd5b506000546001600160a01b03166102df565b34801561064a57600080fd5b50610411610659366004613793565b611a5f565b34801561066a57600080fd5b506102df7f000000000000000000000000000000000000000000000000000000000000000081565b61026a6106a0366004613876565b611b08565b3480156106b157600080fd5b50600c546106bf9060ff1681565b60405160ff90911681526020016102f3565b3480156106dd57600080fd5b5061026a6106ec3660046138a2565b611c38565b61026a6106ff3660046134cd565b611ccd565b34801561071057600080fd5b506007546102df906001600160a01b031681565b34801561073057600080fd5b506001546001600160a01b03166102df565b34801561074e57600080fd5b5061026a61075d36600461373f565b611e1f565b34801561076e57600080fd5b506009546102df906001600160a01b031681565b34801561078e57600080fd5b506107a261079d366004613793565b611e86565b6040516102f3919061393b565b3480156107bb57600080fd5b506006546102df906001600160a01b031681565b3480156107db57600080fd5b5061026a6107ea366004613793565b611f67565b3480156107fb57600080fd5b506105de61080a366004613949565b611fd8565b337f00000000000000000000000000000000000000000000000000000000000000006001600160a01b03161461088c5760405162461bcd60e51b815260206004820152601e60248201527f4c7a4170703a20696e76616c696420656e64706f696e742063616c6c6572000060448201526064015b60405180910390fd5b61ffff8416600090815260026020526040812080546108aa9061397a565b80601f01602080910402602001604051908101604052809291908181526020018280546108d69061397a565b80156109235780601f106108f857610100808354040283529160200191610923565b820191906000526020600020905b81548152906001019060200180831161090657829003601f168201915b5050505050905080518451148015610948575080805190602001208480519060200120145b6109a35760405162461bcd60e51b815260206004820152602660248201527f4c7a4170703a20696e76616c696420736f757263652073656e64696e6720636f6044820152651b9d1c9858dd60d21b6064820152608401610883565b6109af8585858561208b565b5050505050565b6109be61217c565b6040516307e0db1760e01b815261ffff821660048201527f00000000000000000000000000000000000000000000000000000000000000006001600160a01b0316906307e0db17906024015b600060405180830381600087803b158015610a2457600080fd5b505af11580156109af573d6000803e3d6000fd5b6000546001600160a01b03163314610a885760405162461bcd60e51b81526020600482015260136024820152723ab730baba3437b934bd32b216b1b0b63632b960691b6044820152606401610883565b6040516370a0823160e01b815230600482015284906001600160a01b038316906370a0823190602401602060405180830381865afa158015610ace573d6000803e3d6000fd5b505050506040513d601f19601f82011682018060405250810190610af291906139ae565b1015610b105760405162461bcd60e51b8152600401610883906139c7565b60405163095ea7b360e01b81526001600160a01b0389811660048301526024820186905282169063095ea7b3906044016020604051808303816000875af1158015610b5f573d6000803e3d6000fd5b505050506040513d601f19601f82011682018060405250810190610b839190613a13565b506001600160a01b038816639fbf10fc3487898b338a610ba38b82613a44565b6040518060600160405280600081526020016000815260200160405180604001604052806002815260200161060f60f31b8152508152508b604051602001610c03919060609190911b6bffffffffffffffffffffffff1916815260140190565b60408051601f198184030181526020830182526000835290516001600160e01b031960e08d901b168152610c41999897969594939290600401613a57565b6000604051808303818588803b158015610c5a57600080fd5b505af1158015610c6e573d6000803e3d6000fd5b50506040805161ffff8a168152602081018990526001600160a01b03871694507f57dd77137de4afd45af2695e71ed23b183cad7d118ed3fd6ff35cb242722bafe93500190505b60405180910390a25050505050505050565b610ccf61217c565b6040516310ddb13760e01b815261ffff821660048201527f00000000000000000000000000000000000000000000000000000000000000006001600160a01b0316906310ddb13790602401610a0a565b82610d2933611865565b80610d3c5750336001600160a01b038216145b610d585760405162461bcd60e51b815260040161088390613af5565b610d6183611a5f565b610d7d5760405162461bcd60e51b815260040161088390613b2c565b6000610d9c610d8b85611e86565b600a546001600160401b03166121d6565b905080831015610dbe5760405162461bcd60e51b815260040161088390613b58565b610dd36001600160a01b038516863086612217565b6006546000906001600160a01b031686610dec87611e86565b86604051602401610dff93929190613b7d565b60408051601f19818403018152918152602080830180516001600160e01b031663ce39a81360e01b1790529051610e3893929101613ba8565b60408051601f19818403018152919052600554909150610e629082906001600160a01b0316612282565b604080516001600160a01b038781168252602082018790528816917f5a5f049d0197982cd94a05faa0bce681a75e81b871db644fda228723bb5153b3910160405180910390a2505050505050565b82610eba33611865565b80610ecd5750336001600160a01b038216145b610ee95760405162461bcd60e51b815260040161088390613af5565b600b54600160801b900460ff16610f385760405162461bcd60e51b81526020600482015260136024820152721cdd185ada5b99cb5b9bdd0b585b1b1bddd959606a1b6044820152606401610883565b610f4183611a5f565b610f5d5760405162461bcd60e51b815260040161088390613b2c565b610f7a610f6984611e86565b600b546001600160401b03166121d6565b821015610f995760405162461bcd60e51b815260040161088390613b58565b6008546000906001600160a01b031685610fb286611e86565b85604051602401610fc593929190613b7d565b60408051601f19818403018152918152602080830180516001600160e01b03166327b2806360e21b1790529051610ffe93929101613be2565b60408051601f198184030181529190526005549091506110289082906001600160a01b0316612282565b604080516001600160a01b038681168252602082018690528716917fa8c70d0a9a801104762973eb2e7e6370553d055592225749fe0920f9486f8e16910160405180910390a25050505050565b600b54600160801b900460ff166110c45760405162461bcd60e51b81526020600482015260136024820152721cdd185ada5b99cb5b9bdd0b585b1b1bddd959606a1b6044820152606401610883565b6110cd82611a5f565b6110e95760405162461bcd60e51b815260040161088390613b2c565b6110f5610f6983611e86565b8110156111145760405162461bcd60e51b815260040161088390613b58565b6111296001600160a01b038316843084612217565b6007546000906001600160a01b03168461114285611e86565b8460405160240161115593929190613b7d565b60408051601f19818403018152918152602080830180516001600160e01b031663ce39a81360e01b179052905161118e93929101613ba8565b60408051601f198184030181529190526005549091506111b89082906001600160a01b0316612282565b604080516001600160a01b038581168252602082018590528616917f370c2c3b89499d52d3924e8c7d0ec7acbfe5fc4a68523b2d4a3c94640a72e2a3910160405180910390a250505050565b8361120e33611865565b806112215750336001600160a01b038216145b61123d5760405162461bcd60e51b815260040161088390613af5565b61124684611a5f565b6112625760405162461bcd60e51b815260040161088390613b2c565b6001600160a01b0382166112ab5760405162461bcd60e51b815260206004820152601060248201526f34b73b30b634b216b932b1b2b4bb32b960811b6044820152606401610883565b6040516370a0823160e01b815230600482015283906001600160a01b038616906370a0823190602401602060405180830381865afa1580156112f1573d6000803e3d6000fd5b505050506040513d601f19601f8201168201806040525081019061131591906139ae565b10156113335760405162461bcd60e51b8152600401610883906139c7565b61135761133f85611e86565b600a54600160401b90046001600160401b03166121d6565b8310156113975760405162461bcd60e51b815260206004820152600e60248201526d1b5a5b8b5dda5d1a191c985dd85b60921b6044820152606401610883565b6008546000906001600160a01b0316866113b087611e86565b8686306040516024016113c7959493929190613c1c565b60408051601f19818403018152918152602080830180516001600160e01b0316633d6bc3df60e01b179052905161140093929101613c5c565b60408051601f1981840301815291905260055490915061142a9082906001600160a01b0316612282565b604080516001600160a01b0387811682526020820187905280861692908916917f6d57030871c17e2b27abffaaf44a48a737d0b4c2a387c94ec21654468a553070910160405180910390a3505050505050565b8261148733611865565b8061149a5750336001600160a01b038216145b6114b65760405162461bcd60e51b815260040161088390613af5565b6114bf83611a5f565b6114db5760405162461bcd60e51b815260040161088390613b2c565b6040516370a0823160e01b815230600482015282906001600160a01b038516906370a0823190602401602060405180830381865afa158015611521573d6000803e3d6000fd5b505050506040513d601f19601f8201168201806040525081019061154591906139ae565b10156115635760405162461bcd60e51b8152600401610883906139c7565b6000600186600181111561157957611579613c97565b1461159657600b54600160401b90046001600160401b03166115aa565b600a54600160401b90046001600160401b03165b6001600160401b031690506115c76115c185611e86565b826121d6565b8310156116075760405162461bcd60e51b815260206004820152600e60248201526d1b5a5b8b5dda5d1a191c985dd85b60921b6044820152606401610883565b60008087600181111561161c5761161c613c97565b14611632576006546001600160a01b031661163f565b6007546001600160a01b03165b90506000818761164e88611e86565b87306040516024016116639493929190613cad565b60408051601f19818403018152918152602080830180516001600160e01b0316632941562b60e01b179052905161169c93929101613ce4565b60408051601f198184030181529190526005549091506116c69082906001600160a01b0316612282565b604080516001600160a01b038881168252602082018890528916917fd72ccb3c208fc77cd4c070770f2f93c547306a56a4d3d2424f071f61b983b0389101610cb5565b61ffff83166000908152600260205260408120805482919061172a9061397a565b80601f01602080910402602001604051908101604052809291908181526020018280546117569061397a565b80156117a35780601f10611778576101008083540402835291602001916117a3565b820191906000526020600020905b81548152906001019060200180831161178657829003601f168201915b5050505050905083836040516117ba929190613d1e565b60405180910390208180519060200120149150505b9392505050565b6117de61217c565b6040516342d65a8d60e01b81526001600160a01b037f000000000000000000000000000000000000000000000000000000000000000016906342d65a8d9061182e90869086908690600401613d57565b600060405180830381600087803b15801561184857600080fd5b505af115801561185c573d6000803e3d6000fd5b50505050505050565b7f00000000000000000000000000000000000000000000000000000000000000006001600160a01b0390811691161490565b3330146118f55760405162461bcd60e51b815260206004820152602660248201527f4e6f6e626c6f636b696e674c7a4170703a2063616c6c6572206d7573742062656044820152650204c7a4170760d41b6064820152608401610883565b6119018484848461251a565b50505050565b61190f61217c565b6119196000612ab7565b565b600260205260009081526040902080546119349061397a565b80601f01602080910402602001604051908101604052809291908181526020018280546119609061397a565b80156119ad5780601f10611982576101008083540402835291602001916119ad565b820191906000526020600020905b81548152906001019060200180831161199057829003601f168201915b505050505081565b60015433906001600160a01b03168114611a235760405162461bcd60e51b815260206004820152602960248201527f4f776e61626c6532537465703a2063616c6c6572206973206e6f7420746865206044820152683732bb9037bbb732b960b91b6064820152608401610883565b611a2c81612ab7565b50565b611a3761217c565b600c80546001600160a01b0390921661010002610100600160a81b0319909216919091179055565b6000816001600160a01b038116611a885760405162461bcd60e51b815260040161088390613d75565b600d5460011115611a9c5760009150611b02565b60005b600d54811015611afc57836001600160a01b0316600d8281548110611ac657611ac6613d9e565b6000918252602090912001546001600160a01b031603611aea576001925050611b02565b80611af481613db4565b915050611a9f565b50600091505b50919050565b6000546001600160a01b03163314611b585760405162461bcd60e51b81526020600482015260136024820152723ab730baba3437b934bd32b216b1b0b63632b960691b6044820152606401610883565b6000826001600160a01b03168260405160006040518083038185875af1925050503d8060008114611ba5576040519150601f19603f3d011682016040523d82523d6000602084013e611baa565b606091505b5050905080611bf05760405162461bcd60e51b81526020600482015260126024820152714661696c656420746f2073656e642067617360701b6044820152606401610883565b826001600160a01b03167fdc3c48853fbe2a2bf43ef5bc7fa64d8bb56a6c85428d4e31a321f08e7b4f628683604051611c2b91815260200190565b60405180910390a2505050565b611c4061217c565b6040516332fb62e760e21b81526001600160a01b037f0000000000000000000000000000000000000000000000000000000000000000169063cbed8b9c90611c949088908890889088908890600401613dcd565b600060405180830381600087803b158015611cae57600080fd5b505af1158015611cc2573d6000803e3d6000fd5b505050505050505050565b61ffff84166000908152600360205260408082209051611cee908690613dfb565b90815260408051602092819003830190206001600160401b03861660009081529252902054905080611d6e5760405162461bcd60e51b815260206004820152602360248201527f4e6f6e626c6f636b696e674c7a4170703a206e6f2073746f726564206d65737360448201526261676560e81b6064820152608401610883565b815160208301208114611dcd5760405162461bcd60e51b815260206004820152602160248201527f4e6f6e626c6f636b696e674c7a4170703a20696e76616c6964207061796c6f616044820152601960fa1b6064820152608401610883565b61ffff85166000908152600360205260408082209051611dee908790613dfb565b90815260408051602092819003830190206001600160401b038716600090815292529020556109af8585858561251a565b611e2761217c565b61ffff83166000908152600260205260409020611e45828483613e65565b507ffa41487ad5d6728f0b19276fa1eddc16558578f5109fc39d2dc33c3230470dab838383604051611e7993929190613d57565b60405180910390a1505050565b6040805160608101825260008082526020820181905291810191909152816001600160a01b038116611eca5760405162461bcd60e51b815260040161088390613d75565b611ed383611a5f565b611f155760405162461bcd60e51b8152602060048201526013602482015272746f6b656e2d6e6f742d617661696c61626c6560681b6044820152606401610883565b50506001600160a01b039081166000908152600e602090815260409182902082516060810184529054938416815260ff600160a01b8504811692820192909252600160a81b9093041615159082015290565b611f6f61217c565b600180546001600160a01b0383166001600160a01b03199091168117909155611fa06000546001600160a01b031690565b6001600160a01b03167f38d16b8cac22d99fc7c124b9cd0de2d3fa1faef420bfe791d8c362d765e2270060405160405180910390a350565b604051633d7b2f6f60e21b815261ffff808616600483015284166024820152306044820152606481018290526060907f00000000000000000000000000000000000000000000000000000000000000006001600160a01b03169063f5ecbdbc90608401600060405180830381865afa158015612058573d6000803e3d6000fd5b505050506040513d6000823e601f3d908101601f191682016040526120809190810190613f54565b90505b949350505050565b604051633356ae4560e11b815230906366ad5c8a906120b4908790879087908790600401613f9c565b600060405180830381600087803b1580156120ce57600080fd5b505af19250505080156120df575060015b611901578080519060200120600360008661ffff1661ffff168152602001908152602001600020846040516121149190613dfb565b9081526040805191829003602090810183206001600160401b0387166000908152915220919091557fe6f254030bcb01ffd20558175c13fcaed6d1520be7becee4c961b65f79243b0d9061216f908690869086908690613f9c565b60405180910390a1611901565b6000546001600160a01b031633146119195760405162461bcd60e51b815260206004820181905260248201527f4f776e61626c653a2063616c6c6572206973206e6f7420746865206f776e65726044820152606401610883565b600c546000906121ea9060ff16600a6140be565b60208401516121fa90600a6140be565b61220490846140cd565b61220e91906140e4565b90505b92915050565b6040516001600160a01b03808516602483015283166044820152606481018290526119019085906323b872dd60e01b906084015b60408051601f198184030181529190526020810180516001600160e01b03166001600160e01b031990931692909217909152612ad0565b6001600160a01b0381166122d85760405162461bcd60e51b815260206004820152601d60248201527f5472616461626c653a20494e56414c49445f44455354494e4154494f4e0000006044820152606401610883565b604051600160f01b60208201526205573060228201819052600191600090604201604051602081830303815290604052905060007f00000000000000000000000000000000000000000000000000000000000000006001600160a01b03166340a7bb10600460149054906101000a900461ffff1630896000876040518663ffffffff1660e01b8152600401612371959493929190614106565b6040805180830381865afa15801561238d573d6000803e3d6000fd5b505050506040513d601f19601f820116820180604052508101906123b1919061415a565b509050804710156124395760405162461bcd60e51b815260206004820152604660248201527f616464726573732874686973292e62616c616e6365203c206d6573736167654660448201527f65652e2066756e64207468697320636f6e74726163742077697468206d6f72656064820152651032ba3432b960d11b608482015260a401610883565b60045460408051606088811b6bffffffffffffffffffffffff199081166020840152309182901b166034830152825160288184030181526048830193849052600c5462c5803160e81b9094527f00000000000000000000000000000000000000000000000000000000000000006001600160a01b039081169563c58031009588956124e095600160a01b90930461ffff1694938f9392610100900416908b90604c0161417e565b6000604051808303818588803b1580156124f957600080fd5b505af115801561250d573d6000803e3d6000fd5b5050505050505050505050565b6000818060200190518101906125309190614205565b6040516218585d60ea1b6020820152909150602301604051602081830303815290604052805190602001208160405160200161256c9190613dfb565b60405160208183030381529060405280519060200120036125ba576000806000848060200190518101906125a0919061424a565b935093509350506125b2838383612ba7565b5050506109af565b604051636161742b60e01b602082015260240160405160208183030381529060405280519060200120816040516020016125f49190613dfb565b60405160208183030381529060405280519060200120036126375760008280602001905181019061262591906142ba565b91505061263181612daa565b506109af565b604051636161742d60e01b602082015260240160405160208183030381529060405280519060200120816040516020016126719190613dfb565b60405160208183030381529060405280519060200120036126ae576000828060200190518101906126a291906142ba565b91505061263181612e7a565b6040516219185d60ea1b602082015260230160405160208183030381529060405280519060200120816040516020016126e79190613dfb565b60405160208183030381529060405280519060200120036127245760008280602001905181019061271891906142ba565b91505061263181612f1a565b604051616d7760f01b6020820152602201604051602081830303815290604052805190602001208160405160200161275c9190613dfb565b60405160208183030381529060405280519060200120036127a257600080600084806020019051810190612790919061430b565b935093509350506125b28383836130cf565b604051616d7360f01b602082015260220160405160208183030381529060405280519060200120816040516020016127da9190613dfb565b6040516020818303038152906040528051906020012003612847576000808380602001905181019061280c9190614375565b600a80546001600160401b03838116600160401b026001600160801b03199092169085161717905590935091506128409050565b50506109af565b60405161737360f01b6020820152602201604051602081830303815290604052805190602001208160405160200161287f9190613dfb565b6040516020818303038152906040528051906020012003612900576000806000848060200190518101906128b391906143ce565b600b80546001600160401b038086166001600160801b031990921691909117600160401b918516919091021760ff60801b1916600160801b83151502179055919550935091506125b29050565b604051621cd91960ea1b602082015260230160405160208183030381529060405280519060200120816040516020016129399190613dfb565b60405160208183030381529060405280519060200120036129765760008280602001905181019061296a9190614428565b9150506126318161317c565b6040516118d960f21b602082015260220160405160208183030381529060405280519060200120816040516020016129ae9190613dfb565b6040516020818303038152906040528051906020012003612a7757600080600080600080878060200190518101906129e69190614475565b600680546001600160a01b03199081166001600160a01b03808a16919091179092556007805482168389161790556005805482168386161790556009805482168387161790556004805461ffff60a01b1916600160a01b61ffff86160217905560088054909116918616919091179055949b50929950909750955093509150612a6c9050565b5050505050506109af565b60405162461bcd60e51b81526020600482015260156024820152741a5b9d985b1a590b5b595cdcd859d94b5a5b9c1d5d605a1b6044820152606401610883565b600180546001600160a01b0319169055611a2c816131dd565b6000612b25826040518060400160405280602081526020017f5361666545524332303a206c6f772d6c6576656c2063616c6c206661696c6564815250856001600160a01b031661322d9092919063ffffffff16565b805190915015612ba25780806020019051810190612b439190613a13565b612ba25760405162461bcd60e51b815260206004820152602a60248201527f5361666545524332303a204552433230206f7065726174696f6e20646964206e6044820152691bdd081cdd58d8d9595960b21b6064820152608401610883565b505050565b826001600160a01b038116612bce5760405162461bcd60e51b815260040161088390613d75565b612bd784611a5f565b15612c1b5760405162461bcd60e51b8152602060048201526014602482015273746f6b656e2d616c72656164792d65786973747360601b6044820152606401610883565b604080516060810182526001600160a01b0380871680835260ff808816602080860191825288158015878901908152600d8054600181019091557fd7b6990105719101dabeb77144f2a3385c8033acd3af97e9423a695e81ad1eb50180546001600160a01b031916871790556000958652600e9092529690932085518154925194511515600160a81b0260ff60a81b1995909416600160a01b026001600160a81b0319909316951694909417179190911617905590612d57576009546040516001600160a01b038781166024830152600092169060440160408051601f19818403018152918152602080830180516001600160e01b031663af1bf36f60e01b1790529051612d2b93929101614528565b60408051601f19818403018152919052600554909150612d559082906001600160a01b0316612282565b505b604080516001600160a01b038716815260ff861660208201528415158183015290517fa9c2cd5510b241b7f164c50fb6ad74ba19422bcf3f8fd64876ed9cc02b75f36a9181900360600190a15050505050565b806001600160a01b038116612dd15760405162461bcd60e51b815260040161088390613d75565b612dda82611a5f565b612df65760405162461bcd60e51b815260040161088390614564565b6001600160a01b0382166000818152600e60209081526040918290208054600160a81b60ff60a81b19909116811791829055835194855260ff600160a01b83048116938601939093529004161515908201527f9f7945c99a21113bb15770b11b5c11d3740461530a753933f5305dbcca96250e906060015b60405180910390a15050565b806001600160a01b038116612ea15760405162461bcd60e51b815260040161088390613d75565b612eaa82611a5f565b612ec65760405162461bcd60e51b815260040161088390614564565b6001600160a01b0382166000818152600e6020908152604091829020805460ff60a81b1916905590519182527f942ed91d612a43b62208bc09ac09d2ba9e3a5ad8b9cc4eb8a5fe3b7121714c0c9101612e6e565b806001600160a01b038116612f415760405162461bcd60e51b815260040161088390613d75565b612f4a82611a5f565b612f665760405162461bcd60e51b815260040161088390614564565b6001600160a01b0382166000908152600e6020526040812080546001600160b01b03191690555b600d5481101561305f57826001600160a01b0316600d8281548110612fb457612fb4613d9e565b6000918252602090912001546001600160a01b03160361304d57600d8054612fde90600190613a44565b81548110612fee57612fee613d9e565b600091825260209091200154600d80546001600160a01b03909216918390811061301a5761301a613d9e565b9060005260206000200160006101000a8154816001600160a01b0302191690836001600160a01b0316021790555061305f565b8061305781613db4565b915050612f8d565b50600d8054806130715761307161458d565b6000828152602090819020600019908301810180546001600160a01b03191690559091019091556040516001600160a01b03841681527f326e36170ee6cda4a248990122f9deb8f28dc2d403ef152228a53d173453ebf39101612e6e565b6001600160a01b0383166131255760405162461bcd60e51b815260206004820152601f60248201527f5472616461626c653a205a45524f5f414444524553535f5245434549564552006044820152606401610883565b6131396001600160a01b038316848361323c565b604080516001600160a01b038481168252602082018490528516917f9cbe7bea8d6ac75f9696006b10f8d3ad9c0ea4c90d78b03168a6e807c41983ed9101611c2b565b8060ff166000036131c75760405162461bcd60e51b815260206004820152601560248201527405472616461626c653a20414d4f554e54203d3d203605c1b6044820152606401610883565b600c805460ff191660ff92909216919091179055565b600080546001600160a01b038381166001600160a01b0319831681178455604051919092169283917f8be0079c531659141344cd1fd0a4f28419497f9722a3daafe3b4186f6b6457e09190a35050565b6060612083848460008561326c565b6040516001600160a01b038316602482015260448101829052612ba290849063a9059cbb60e01b9060640161224b565b6060824710156132cd5760405162461bcd60e51b815260206004820152602660248201527f416464726573733a20696e73756666696369656e742062616c616e636520666f6044820152651c8818d85b1b60d21b6064820152608401610883565b600080866001600160a01b031685876040516132e99190613dfb565b60006040518083038185875af1925050503d8060008114613326576040519150601f19603f3d011682016040523d82523d6000602084013e61332b565b606091505b509150915061333c87838387613347565b979650505050505050565b606083156133b65782516000036133af576001600160a01b0385163b6133af5760405162461bcd60e51b815260206004820152601d60248201527f416464726573733a2063616c6c20746f206e6f6e2d636f6e74726163740000006044820152606401610883565b5081612083565b61208383838151156133cb5781518083602001fd5b8060405162461bcd60e51b81526004016108839190613863565b61ffff81168114611a2c57600080fd5b634e487b7160e01b600052604160045260246000fd5b604051601f8201601f191681016001600160401b0381118282101715613433576134336133f5565b604052919050565b60006001600160401b03821115613454576134546133f5565b50601f01601f191660200190565b600082601f83011261347357600080fd5b81356134866134818261343b565b61340b565b81815284602083860101111561349b57600080fd5b816020850160208301376000918101602001919091529392505050565b6001600160401b0381168114611a2c57600080fd5b600080600080608085870312156134e357600080fd5b84356134ee816133e5565b935060208501356001600160401b038082111561350a57600080fd5b61351688838901613462565b945060408701359150613528826134b8565b9092506060860135908082111561353e57600080fd5b5061354b87828801613462565b91505092959194509250565b60006020828403121561356957600080fd5b81356117cf816133e5565b6001600160a01b0381168114611a2c57600080fd5b600080600080600080600080610100898b0312156135a657600080fd5b88356135b181613574565b9750602089013596506040890135955060608901356135cf816133e5565b94506080890135935060a0890135925060c08901356135ed81613574565b915060e08901356135fd81613574565b809150509295985092959890939650565b60008060006060848603121561362357600080fd5b833561362e81613574565b9250602084013561363e81613574565b929592945050506040919091013590565b6000806000806080858703121561366557600080fd5b843561367081613574565b9350602085013561368081613574565b925060408501359150606085013561369781613574565b939692955090935050565b600080600080608085870312156136b857600080fd5b8435600281106136c757600080fd5b935060208501356136d781613574565b925060408501356136e781613574565b9396929550929360600135925050565b60008083601f84011261370957600080fd5b5081356001600160401b0381111561372057600080fd5b60208301915083602082850101111561373857600080fd5b9250929050565b60008060006040848603121561375457600080fd5b833561375f816133e5565b925060208401356001600160401b0381111561377a57600080fd5b613786868287016136f7565b9497909650939450505050565b6000602082840312156137a557600080fd5b81356117cf81613574565b6000806000606084860312156137c557600080fd5b83356137d0816133e5565b925060208401356001600160401b038111156137eb57600080fd5b6137f786828701613462565b9250506040840135613808816134b8565b809150509250925092565b60005b8381101561382e578181015183820152602001613816565b50506000910152565b6000815180845261384f816020860160208601613813565b601f01601f19169290920160200192915050565b60208152600061220e6020830184613837565b6000806040838503121561388957600080fd5b823561389481613574565b946020939093013593505050565b6000806000806000608086880312156138ba57600080fd5b85356138c5816133e5565b945060208601356138d5816133e5565b93506040860135925060608601356001600160401b038111156138f757600080fd5b613903888289016136f7565b969995985093965092949392505050565b80516001600160a01b0316825260208082015160ff16908301526040908101511515910152565b606081016122118284613914565b6000806000806080858703121561395f57600080fd5b843561396a816133e5565b935060208501356136d7816133e5565b600181811c9082168061398e57607f821691505b602082108103611b0257634e487b7160e01b600052602260045260246000fd5b6000602082840312156139c057600080fd5b5051919050565b6020808252601f908201527f696e73756666696369656e742d736964652d7661756c742d62616c616e636500604082015260600190565b80518015158114613a0e57600080fd5b919050565b600060208284031215613a2557600080fd5b61220e826139fe565b634e487b7160e01b600052601160045260246000fd5b8181038181111561221157612211613a2e565b600061012061ffff8c1683528a602084015289604084015260018060a01b03891660608401528760808401528660a08401528060c084015285518184015250602085015161014083015260408501516060610160840152613abc610180840182613837565b905082810360e0840152613ad08186613837565b9050828103610100840152613ae58185613837565b9c9b505050505050505050505050565b6020808252601b908201527f6f6e6c792d72656c61792d6f722d6163636f756e742d6f776e65720000000000604082015260600190565b6020808252601290820152711d1bdad95b8b5b9bdd0b5858d8d95c1d195960721b604082015260600190565b6020808252600b908201526a1b5a5b8b59195c1bdcda5d60aa1b604082015260600190565b6001600160a01b038416815260a08101613b9a6020830185613914565b826080830152949350505050565b6060815260026060820152611b5960f21b608082015260018060a01b038316602082015260a06040820152600061208360a0830184613837565b6060815260026060820152616d7360f01b608082015260018060a01b038316602082015260a06040820152600061208360a0830184613837565b6001600160a01b03868116825260e0820190613c3b6020840188613914565b85608084015280851660a084015280841660c0840152509695505050505050565b6060815260036060820152621b5ddd60ea1b608082015260018060a01b038316602082015260a06040820152600061208360a0830184613837565b634e487b7160e01b600052602160045260246000fd5b6001600160a01b03858116825260c0820190613ccc6020840187613914565b84608084015280841660a08401525095945050505050565b6060815260026060820152616d7760f01b608082015260018060a01b038316602082015260a06040820152600061208360a0830184613837565b8183823760009101908152919050565b81835281816020850137506000828201602090810191909152601f909101601f19169091010190565b61ffff84168152604060208201526000612080604083018486613d2e565b6020808252600f908201526e696e76616c69642d6164647265737360881b604082015260600190565b634e487b7160e01b600052603260045260246000fd5b600060018201613dc657613dc6613a2e565b5060010190565b600061ffff80881683528087166020840152508460408301526080606083015261333c608083018486613d2e565b60008251613e0d818460208701613813565b9190910192915050565b601f821115612ba257600081815260208120601f850160051c81016020861015613e3e5750805b601f850160051c820191505b81811015613e5d57828155600101613e4a565b505050505050565b6001600160401b03831115613e7c57613e7c6133f5565b613e9083613e8a835461397a565b83613e17565b6000601f841160018114613ec45760008515613eac5750838201355b600019600387901b1c1916600186901b1783556109af565b600083815260209020601f19861690835b82811015613ef55786850135825560209485019460019092019101613ed5565b5086821015613f125760001960f88860031b161c19848701351681555b505060018560011b0183555050505050565b6000613f326134818461343b565b9050828152838383011115613f4657600080fd5b6117cf836020830184613813565b600060208284031215613f6657600080fd5b81516001600160401b03811115613f7c57600080fd5b8201601f81018413613f8d57600080fd5b61208384825160208401613f24565b61ffff85168152608060208201526000613fb96080830186613837565b6001600160401b0385166040840152828103606084015261333c8185613837565b600181815b80851115614015578160001904821115613ffb57613ffb613a2e565b8085161561400857918102915b93841c9390800290613fdf565b509250929050565b60008261402c57506001612211565b8161403957506000612211565b816001811461404f576002811461405957614075565b6001915050612211565b60ff84111561406a5761406a613a2e565b50506001821b612211565b5060208310610133831016604e8410600b8410161715614098575081810a612211565b6140a28383613fda565b80600019048211156140b6576140b6613a2e565b029392505050565b600061220e60ff84168361401d565b808202811582820484141761221157612211613a2e565b60008261410157634e487b7160e01b600052601260045260246000fd5b500490565b61ffff861681526001600160a01b038516602082015260a06040820181905260009061413490830186613837565b8415156060840152828103608084015261414e8185613837565b98975050505050505050565b6000806040838503121561416d57600080fd5b505080516020909101519092909150565b61ffff8716815260c06020820152600061419b60c0830188613837565b82810360408401526141ad8188613837565b6001600160a01b0387811660608601528616608085015283810360a085015290506141d88185613837565b9998505050505050505050565b600082601f8301126141f657600080fd5b61220e83835160208501613f24565b60006020828403121561421757600080fd5b81516001600160401b0381111561422d57600080fd5b612083848285016141e5565b805160ff81168114613a0e57600080fd5b6000806000806080858703121561426057600080fd5b84516001600160401b0381111561427657600080fd5b614282878288016141e5565b945050602085015161429381613574565b92506142a160408601614239565b91506142af606086016139fe565b905092959194509250565b600080604083850312156142cd57600080fd5b82516001600160401b038111156142e357600080fd5b6142ef858286016141e5565b925050602083015161430081613574565b809150509250929050565b6000806000806080858703121561432157600080fd5b84516001600160401b0381111561433757600080fd5b614343878288016141e5565b945050602085015161435481613574565b604086015190935061436581613574565b6060959095015193969295505050565b60008060006060848603121561438a57600080fd5b83516001600160401b038111156143a057600080fd5b6143ac868287016141e5565b93505060208401516143bd816134b8565b6040850151909250613808816134b8565b600080600080608085870312156143e457600080fd5b84516001600160401b038111156143fa57600080fd5b614406878288016141e5565b9450506020850151614417816134b8565b60408601519093506142a1816134b8565b6000806040838503121561443b57600080fd5b82516001600160401b0381111561445157600080fd5b61445d858286016141e5565b92505061446c60208401614239565b90509250929050565b600080600080600080600060e0888a03121561449057600080fd5b87516001600160401b038111156144a657600080fd5b6144b28a828b016141e5565b97505060208801516144c381613574565b60408901519096506144d481613574565b60608901519095506144e581613574565b60808901519094506144f681613574565b60a089015190935061450781613574565b60c0890151909250614518816133e5565b8091505092959891949750929550565b6060815260046060820152636161742b60e01b608082015260018060a01b038316602082015260a06040820152600061208360a0830184613837565b6020808252600f908201526e1d1bdad95b8b5b9bdd0b595e1a5cdd608a1b604082015260600190565b634e487b7160e01b600052603160045260246000fdfea2646970667358221220d0bb171804aaf69b8fff6846c219674b532bf2a572742b9fe90f1f9ca2e3cbab64736f6c63430008130033",
  "linkReferences": {},
  "deployedLinkReferences": {}
}