{
  "_format": "hh-sol-artifact-1",
  "contractName": "TradableStaking",
  "sourceName": "contracts/TradableStaking.sol",
  "abi": [
    {
      "inputs": [
        {
          "internalType": "address",
          "name": "_balanceVault",
          "type": "address"
        },
        {
          "internalType": "address",
          "name": "_settingsProvider",
          "type": "address"
        }
      ],
      "stateMutability": "nonpayable",
      "type": "constructor"
    },
    {
      "anonymous": false,
      "inputs": [
        {
          "indexed": false,
          "internalType": "address",
          "name": "user",
          "type": "address"
        },
        {
          "indexed": false,
          "internalType": "uint256",
          "name": "amount",
          "type": "uint256"
        }
      ],
      "name": "ClaimedReward",
      "type": "event"
    },
    {
      "anonymous": false,
      "inputs": [
        {
          "indexed": true,
          "internalType": "address",
          "name": "user",
          "type": "address"
        },
        {
          "indexed": false,
          "internalType": "uint256",
          "name": "amount",
          "type": "uint256"
        },
        {
          "indexed": false,
          "internalType": "uint256",
          "name": "shares",
          "type": "uint256"
        }
      ],
      "name": "StakeValidated",
      "type": "event"
    },
    {
      "anonymous": false,
      "inputs": [
        {
          "indexed": true,
          "internalType": "address",
          "name": "user",
          "type": "address"
        },
        {
          "indexed": false,
          "internalType": "uint256",
          "name": "amount",
          "type": "uint256"
        },
        {
          "indexed": false,
          "internalType": "uint256",
          "name": "shares",
          "type": "uint256"
        },
        {
          "indexed": false,
          "internalType": "uint256",
          "name": "shareBalance",
          "type": "uint256"
        },
        {
          "indexed": false,
          "internalType": "bool",
          "name": "isFullRedeem",
          "type": "bool"
        }
      ],
      "name": "UnstakeValidated",
      "type": "event"
    },
    {
      "inputs": [],
      "name": "allowedMarginProvider",
      "outputs": [
        {
          "internalType": "address",
          "name": "",
          "type": "address"
        }
      ],
      "stateMutability": "view",
      "type": "function"
    },
    {
      "inputs": [],
      "name": "balanceVault",
      "outputs": [
        {
          "internalType": "address",
          "name": "",
          "type": "address"
        }
      ],
      "stateMutability": "view",
      "type": "function"
    },
    {
      "inputs": [],
      "name": "cumulativeRewardPerTokenStored",
      "outputs": [
        {
          "internalType": "uint256",
          "name": "",
          "type": "uint256"
        }
      ],
      "stateMutability": "view",
      "type": "function"
    },
    {
      "inputs": [
        {
          "internalType": "address",
          "name": "user",
          "type": "address"
        },
        {
          "components": [
            {
              "internalType": "address",
              "name": "token",
              "type": "address"
            },
            {
              "internalType": "uint8",
              "name": "decimals",
              "type": "uint8"
            },
            {
              "internalType": "bool",
              "name": "isActive",
              "type": "bool"
            }
          ],
          "internalType": "struct ITradableSettings.AcceptedToken",
          "name": "selectedToken",
          "type": "tuple"
        },
        {
          "internalType": "uint256",
          "name": "amount",
          "type": "uint256"
        }
      ],
      "name": "depositValidation",
      "outputs": [],
      "stateMutability": "nonpayable",
      "type": "function"
    },
    {
      "inputs": [
        {
          "internalType": "address",
          "name": "account",
          "type": "address"
        }
      ],
      "name": "getClaimableReward",
      "outputs": [
        {
          "internalType": "uint256",
          "name": "",
          "type": "uint256"
        }
      ],
      "stateMutability": "view",
      "type": "function"
    },
    {
      "inputs": [
        {
          "internalType": "address",
          "name": "user",
          "type": "address"
        }
      ],
      "name": "getShare",
      "outputs": [
        {
          "internalType": "uint256",
          "name": "",
          "type": "uint256"
        }
      ],
      "stateMutability": "view",
      "type": "function"
    },
    {
      "inputs": [
        {
          "internalType": "address",
          "name": "user",
          "type": "address"
        }
      ],
      "name": "getStake",
      "outputs": [
        {
          "components": [
            {
              "internalType": "address",
              "name": "owner",
              "type": "address"
            },
            {
              "internalType": "uint256",
              "name": "amount",
              "type": "uint256"
            },
            {
              "internalType": "uint256",
              "name": "shares",
              "type": "uint256"
            },
            {
              "internalType": "uint40",
              "name": "timestamp",
              "type": "uint40"
            }
          ],
          "internalType": "struct TradableStaking.Stake",
          "name": "",
          "type": "tuple"
        }
      ],
      "stateMutability": "view",
      "type": "function"
    },
    {
      "inputs": [],
      "name": "getTotalShares",
      "outputs": [
        {
          "internalType": "uint256",
          "name": "",
          "type": "uint256"
        }
      ],
      "stateMutability": "view",
      "type": "function"
    },
    {
      "inputs": [
        {
          "internalType": "address",
          "name": "newMarginProvider",
          "type": "address"
        }
      ],
      "name": "setAllowedMarginProvider",
      "outputs": [],
      "stateMutability": "nonpayable",
      "type": "function"
    },
    {
      "inputs": [
        {
          "internalType": "address",
          "name": "newSettingsProvider",
          "type": "address"
        }
      ],
      "name": "setSettingsProvider",
      "outputs": [],
      "stateMutability": "nonpayable",
      "type": "function"
    },
    {
      "inputs": [
        {
          "internalType": "address",
          "name": "newVault",
          "type": "address"
        }
      ],
      "name": "setVault",
      "outputs": [],
      "stateMutability": "nonpayable",
      "type": "function"
    },
    {
      "inputs": [],
      "name": "settingsProvider",
      "outputs": [
        {
          "internalType": "address",
          "name": "",
          "type": "address"
        }
      ],
      "stateMutability": "view",
      "type": "function"
    },
    {
      "inputs": [
        {
          "internalType": "address",
          "name": "user",
          "type": "address"
        },
        {
          "components": [
            {
              "internalType": "address",
              "name": "token",
              "type": "address"
            },
            {
              "internalType": "uint8",
              "name": "decimals",
              "type": "uint8"
            },
            {
              "internalType": "bool",
              "name": "isActive",
              "type": "bool"
            }
          ],
          "internalType": "struct ITradableSettings.AcceptedToken",
          "name": "selectedToken",
          "type": "tuple"
        },
        {
          "internalType": "uint256",
          "name": "amount",
          "type": "uint256"
        }
      ],
      "name": "stakeFromMarginAccount",
      "outputs": [],
      "stateMutability": "nonpayable",
      "type": "function"
    },
    {
      "inputs": [],
      "name": "stakingVaultBalance",
      "outputs": [
        {
          "internalType": "uint256",
          "name": "",
          "type": "uint256"
        }
      ],
      "stateMutability": "view",
      "type": "function"
    },
    {
      "inputs": [],
      "name": "totalAmountStaked",
      "outputs": [
        {
          "internalType": "uint256",
          "name": "",
          "type": "uint256"
        }
      ],
      "stateMutability": "view",
      "type": "function"
    },
    {
      "inputs": [],
      "name": "totalShares",
      "outputs": [
        {
          "internalType": "uint256",
          "name": "",
          "type": "uint256"
        }
      ],
      "stateMutability": "view",
      "type": "function"
    },
    {
      "inputs": [
        {
          "internalType": "address",
          "name": "account",
          "type": "address"
        }
      ],
      "name": "updateReward",
      "outputs": [],
      "stateMutability": "nonpayable",
      "type": "function"
    },
    {
      "inputs": [
        {
          "internalType": "uint256",
          "name": "amountToBase",
          "type": "uint256"
        },
        {
          "internalType": "bool",
          "name": "isAdded",
          "type": "bool"
        }
      ],
      "name": "updateStakingVaultWithdrawableBalance",
      "outputs": [],
      "stateMutability": "nonpayable",
      "type": "function"
    },
    {
      "inputs": [],
      "name": "withdrawableBalance",
      "outputs": [
        {
          "internalType": "uint256",
          "name": "",
          "type": "uint256"
        }
      ],
      "stateMutability": "view",
      "type": "function"
    },
    {
      "inputs": [
        {
          "internalType": "address",
          "name": "user",
          "type": "address"
        },
        {
          "components": [
            {
              "internalType": "address",
              "name": "token",
              "type": "address"
            },
            {
              "internalType": "uint8",
              "name": "decimals",
              "type": "uint8"
            },
            {
              "internalType": "bool",
              "name": "isActive",
              "type": "bool"
            }
          ],
          "internalType": "struct ITradableSettings.AcceptedToken",
          "name": "selectedToken",
          "type": "tuple"
        },
        {
          "internalType": "uint256",
          "name": "amount",
          "type": "uint256"
        },
        {
          "internalType": "address",
          "name": "dstVault",
          "type": "address"
        }
      ],
      "name": "withdrawalValidation",
      "outputs": [],
      "stateMutability": "nonpayable",
      "type": "function"
    }
  ],
  "bytecode": "0x60806040523480156200001157600080fd5b50604051620025803803806200258083398101604081905262000034916200008b565b6001600055600680546001600160a01b039283166001600160a01b03199182161790915560078054939092169216919091179055620000c3565b80516001600160a01b03811681146200008657600080fd5b919050565b600080604083850312156200009f57600080fd5b620000aa836200006e565b9150620000ba602084016200006e565b90509250929050565b6124ad80620000d36000396000f3fe608060405234801561001057600080fd5b506004361061012c5760003560e01c806366a3f38a116100ad578063baf42d4911610071578063baf42d4914610329578063d5002f2e1461033c578063dba37bda14610344578063e62d64f614610357578063fe961f611461036057600080fd5b806366a3f38a146102215780636817031b1461023457806369a85221146102475780637a7664601461025a578063835c28401461032057600080fd5b80632eed0e5d116100f45780632eed0e5d146101b35780633a98ef39146101c65780634b3ab9c5146101cf5780635ff329af146101fb578063632447c91461020e57600080fd5b8063012a4db61461013157806306cbbb68146101465780630c720b1b146101625780630d1e027d1461018d5780631785b587146101a0575b600080fd5b61014461013f366004612015565b610369565b005b61014f60015481565b6040519081526020015b60405180910390f35b600854610175906001600160a01b031681565b6040516001600160a01b039091168152602001610159565b600754610175906001600160a01b031681565b600654610175906001600160a01b031681565b6101446101c1366004612067565b610581565b61014f60045481565b61014f6101dd366004612067565b6001600160a01b03166000908152600b602052604090206002015490565b61014f610209366004612067565b610672565b61014461021c366004612067565b61084e565b61014461022f366004612067565b610a5b565b610144610242366004612067565b610baa565b61014461025536600461208b565b610c9b565b6102dd610268366004612067565b60408051608080820183526000808352602080840182905283850182905260609384018290526001600160a01b039586168252600b815290849020845192830185528054909516825260018501549082015260028401549281019290925260039092015464ffffffffff169181019190915290565b604051610159919081516001600160a01b03168152602080830151908201526040808301519082015260609182015164ffffffffff169181019190915260800190565b61014f60055481565b6101446103373660046120ca565b610e38565b60045461014f565b61014461035236600461208b565b610f65565b61014f60025481565b61014f60035481565b6007546001600160a01b031633146103be5760405162461bcd60e51b81526020600482015260136024820152723ab730baba3437b934bd32b216b1b0b63632b960691b60448201526064015b60405180910390fd5b61044c83600660009054906101000a90046001600160a01b03166001600160a01b0316631b607c266040518163ffffffff1660e01b815260040160c060405180830381865afa158015610415573d6000803e3d6000fd5b505050506040513d601f19601f820116820180604052508101906104399190612117565b6020015167ffffffffffffffff1661108d565b82101561048c5760405162461bcd60e51b815260206004820152600e60248201526d1b5a5b8b5dda5d1a191c985dd85b60921b60448201526064016103b5565b6104958461084e565b6001600160a01b038416600090815260096020526040812054906104b98585611133565b905080600260008282546104cd91906121e9565b909155505080821061054d576001600160a01b038616600090815260096020526040812080548392906105019084906121e9565b9091555050604080516001600160a01b0388168152602081018390527fd0813ff03c470dcc7baa9ce36914dc2febdfd276d639deffaac383fd3db42ba3910160405180910390a1610579565b6001600160a01b0386166000908152600960205260408120556105798661057484846121e9565b6111c8565b505050505050565b600660009054906101000a90046001600160a01b03166001600160a01b031663d513cc446040518163ffffffff1660e01b8152600401602060405180830381865afa1580156105d4573d6000803e3d6000fd5b505050506040513d601f19601f820116820180604052508101906105f891906121fc565b6001600160a01b0316336001600160a01b0316146106285760405162461bcd60e51b81526004016103b590612219565b806001600160a01b03811661064f5760405162461bcd60e51b81526004016103b59061223f565b50600680546001600160a01b0319166001600160a01b0392909216919091179055565b600080600660009054906101000a90046001600160a01b03166001600160a01b0316631b607c266040518163ffffffff1660e01b815260040160c060405180830381865afa1580156106c8573d6000803e3d6000fd5b505050506040513d601f19601f820116820180604052508101906106ec9190612117565b6001600160a01b038416600090815260096020526040812054600454929350919081900361071c57509392505050565b60065460408051635a23248d60e01b815281516000936001600160a01b031692635a23248d92600480820193918290030181865afa158015610762573d6000803e3d6000fd5b505050506040513d601f19601f820116820180604052508101906107869190612268565b6000015190506000828560600151600a6107a0919061237e565b6107aa908461238d565b6107b491906123a4565b6005546107c191906123c6565b9050806000036107d657509195945050505050565b60608501516107e690600a61237e565b6001600160a01b0388166000908152600a602052604090205461080990836121e9565b6001600160a01b0389166000908152600b602052604090206002015461082f919061238d565b61083991906123a4565b61084390856123c6565b979650505050505050565b6001600160a01b03811661085f5750565b610867611726565b60065460408051635a23248d60e01b815281516000936001600160a01b031692635a23248d92600480820193918290030181865afa1580156108ad573d6000803e3d6000fd5b505050506040513d601f19601f820116820180604052508101906108d19190612268565b805160065460408051630db03e1360e11b8152905193945091926000926001600160a01b0390921691631b607c269160048083019260c09291908290030181865afa158015610924573d6000803e3d6000fd5b505050506040513d601f19601f820116820180604052508101906109489190612117565b600454909150801561099157808260600151600a610966919061237e565b610970908561238d565b61097a91906123a4565b6005600082825461098b91906123c6565b90915550505b6005546000036109a2575050505050565b60608201516109b290600a61237e565b6001600160a01b0386166000908152600a60205260409020546005546109d891906121e9565b6001600160a01b0387166000908152600b60205260409020600201546109fe919061238d565b610a0891906123a4565b6001600160a01b03861660009081526009602052604081208054909190610a309084906123c6565b90915550506005546001600160a01b039095166000908152600a602052604090209490945550505050565b600660009054906101000a90046001600160a01b03166001600160a01b031663d513cc446040518163ffffffff1660e01b8152600401602060405180830381865afa158015610aae573d6000803e3d6000fd5b505050506040513d601f19601f82011682018060405250810190610ad291906121fc565b6001600160a01b0316336001600160a01b031614610b025760405162461bcd60e51b81526004016103b590612219565b806001600160a01b038116610b295760405162461bcd60e51b81526004016103b59061223f565b6008546001600160a01b0390811690831603610b875760405162461bcd60e51b815260206004820152601b60248201527f6d617267696e2d70726f76696465722d616c72656164792d736574000000000060448201526064016103b5565b50600880546001600160a01b0319166001600160a01b0392909216919091179055565b600660009054906101000a90046001600160a01b03166001600160a01b031663d513cc446040518163ffffffff1660e01b8152600401602060405180830381865afa158015610bfd573d6000803e3d6000fd5b505050506040513d601f19601f82011682018060405250810190610c2191906121fc565b6001600160a01b0316336001600160a01b031614610c515760405162461bcd60e51b81526004016103b590612219565b806001600160a01b038116610c785760405162461bcd60e51b81526004016103b59061223f565b50600780546001600160a01b0319166001600160a01b0392909216919091179055565b6008546001600160a01b031680610cc45760405162461bcd60e51b81526004016103b59061223f565b6008546001600160a01b03163314610d1e5760405162461bcd60e51b815260206004820152601c60248201527f756e617574686f72697a65642d6d617267696e2d70726f76696465720000000060448201526064016103b5565b60065460408051630db03e1360e11b815290516000926001600160a01b031691631b607c269160048083019260c09291908290030181865afa158015610d68573d6000803e3d6000fd5b505050506040513d601f19601f82011682018060405250810190610d8c9190612117565b905060008160600151600a610da1919061237e565b6020860151610db190600a61237e565b610dbb90866123a4565b610dc5919061238d565b600754604051634500149960e11b81529192506001600160a01b031690638a00293290610dfb90899085906001906004016123d9565b600060405180830381600087803b158015610e1557600080fd5b505af1158015610e29573d6000803e3d6000fd5b50505050610579868686611a88565b600660009054906101000a90046001600160a01b03166001600160a01b031663d513cc446040518163ffffffff1660e01b8152600401602060405180830381865afa158015610e8b573d6000803e3d6000fd5b505050506040513d601f19601f82011682018060405250810190610eaf91906121fc565b6001600160a01b0316336001600160a01b031614610edf5760405162461bcd60e51b81526004016103b590612219565b80610f49578160025411610f2c5760405162461bcd60e51b8152602060048201526014602482015273696e73756666696369656e742d62616c616e636560601b60448201526064016103b5565b8160026000828254610f3e91906121e9565b90915550610f619050565b8160026000828254610f5b91906123c6565b90915550505b5050565b6007546001600160a01b03163314610fb55760405162461bcd60e51b81526020600482015260136024820152723ab730baba3437b934bd32b216b1b0b63632b960691b60448201526064016103b5565b61104082600660009054906101000a90046001600160a01b03166001600160a01b0316631b607c266040518163ffffffff1660e01b815260040160c060405180830381865afa15801561100c573d6000803e3d6000fd5b505050506040513d601f19601f820116820180604052508101906110309190612117565b5167ffffffffffffffff1661108d565b81101561107d5760405162461bcd60e51b815260206004820152600b60248201526a1b5a5b8b59195c1bdcda5d60aa1b60448201526064016103b5565b611088838383611a88565b505050565b60065460408051636a6aa98360e01b815290516000926001600160a01b031691636a6aa9839160048083019260209291908290030181865afa1580156110d7573d6000803e3d6000fd5b505050506040513d601f19601f820116820180604052508101906110fb91906123fc565b61110690600a61237e565b602084015161111690600a61237e565b611120908461238d565b61112a91906123a4565b90505b92915050565b60008260200151600a611146919061237e565b600660009054906101000a90046001600160a01b03166001600160a01b0316636a6aa9836040518163ffffffff1660e01b8152600401602060405180830381865afa158015611199573d6000803e3d6000fd5b505050506040513d601f19601f820116820180604052508101906111bd91906123fc565b61111690600a61237e565b6111d0611eb6565b600660009054906101000a90046001600160a01b03166001600160a01b0316635229d3c06040518163ffffffff1660e01b8152600401602060405180830381865afa158015611223573d6000803e3d6000fd5b505050506040513d601f19601f8201168201806040525081019061124791906121fc565b6001600160a01b03811661126d5760405162461bcd60e51b81526004016103b59061223f565b60065460408051630db03e1360e11b815290516000926001600160a01b031691631b607c269160048083019260c09291908290030181865afa1580156112b7573d6000803e3d6000fd5b505050506040513d601f19601f820116820180604052508101906112db9190612117565b6001600160a01b038086166000908152600b602052604080822060065491516320658c0560e01b81529495509392169182906320658c0590611321908490600401612419565b6040805180830381865afa15801561133d573d6000803e3d6000fd5b505050506040513d601f19601f820116820180604052508101906113619190612441565b519050600061137082886123c6565b905060006113938660600151600a611388919061237e565b600187015490611f0f565b60028601546113a2908461238d565b6113ac91906123a4565b90506004548111156113f55760405162461bcd60e51b8152602060048201526012602482015271696e73756666696369656e742d7374616b6560701b60448201526064016103b5565b846002015481111561143f5760405162461bcd60e51b8152602060048201526013602482015272696e73756666696369656e742d73686172657360681b60448201526064016103b5565b60028501548114801561145457856002015491505b600386015460009061146d9064ffffffffff16426121e9565b9050876080015163ffffffff1681116114b15760405162461bcd60e51b81526020600482015260066024820152651c195c9a5bd960d21b60448201526064016103b5565b60006114d08960600151600a6114c7919061237e565b60045490611f0f565b6001546114dd908661238d565b6114e791906123a4565b9050600061150a8a60600151600a6114ff919061237e565b60028b015490611f0f565b60018a0154611519908761238d565b61152391906123a4565b90508089600101600082825461153991906121e9565b92505081905550806003600082825461155291906121e9565b925050819055508489600201600082825461156d91906121e9565b92505081905550846004600082825461158691906121e9565b92505081905550816001600082825461159f91906121e9565b909155505060075460065460408051630148a74f60e61b815290516001600160a01b0393841693638a002932931691635229d3c09160048083019260209291908290030181865afa1580156115f8573d6000803e3d6000fd5b505050506040513d601f19601f8201168201806040525081019061161c91906121fc565b8960016040518463ffffffff1660e01b815260040161163d939291906123d9565b600060405180830381600087803b15801561165757600080fd5b505af115801561166b573d6000803e3d6000fd5b5050505083156116ba576001600160a01b038d166000908152600b6020526040812080546001600160a01b0319168155600181018290556002810191909155600301805464ffffffffff191690555b600454604080518e81526020810192909252810183905284151560608201526001600160a01b038e16907f6ce1f88745825ee114aa6ed1d8f85e800bc5897b8f604b6e1bd392c35162edf39060800160405180910390a25050505050505050505050610f616001600055565b600660009054906101000a90046001600160a01b03166001600160a01b0316635229d3c06040518163ffffffff1660e01b8152600401602060405180830381865afa158015611779573d6000803e3d6000fd5b505050506040513d601f19601f8201168201806040525081019061179d91906121fc565b6001600160a01b0381166117c35760405162461bcd60e51b81526004016103b59061223f565b60065460408051635a23248d60e01b815281516000936001600160a01b031692635a23248d92600480820193918290030181865afa158015611809573d6000803e3d6000fd5b505050506040513d601f19601f8201168201806040525081019061182d9190612268565b8051602082015191925090811561192157816002600082825461185091906123c6565b9091555050600754600654604080516344e5fb1d60e01b815290516001600160a01b0393841693638a0029329316916344e5fb1d9160048083019260209291908290030181865afa1580156118a9573d6000803e3d6000fd5b505050506040513d601f19601f820116820180604052508101906118cd91906121fc565b8460016040518463ffffffff1660e01b81526004016118ee939291906123d9565b600060405180830381600087803b15801561190857600080fd5b505af115801561191c573d6000803e3d6000fd5b505050505b80156119f35760075460065460408051630148a74f60e61b815290516001600160a01b0393841693638a002932931691635229d3c09160048083019260209291908290030181865afa15801561197b573d6000803e3d6000fd5b505050506040513d601f19601f8201168201806040525081019061199f91906121fc565b8360016040518463ffffffff1660e01b81526004016119c0939291906123d9565b600060405180830381600087803b1580156119da57600080fd5b505af11580156119ee573d6000803e3d6000fd5b505050505b6000821180611a025750600081115b15611a825760408051808201825260008082526020820190815260065492516331b0e88d60e21b8152825160048201529051602482015290916001600160a01b03169063c6c3a23490604401600060405180830381600087803b158015611a6857600080fd5b505af1158015611a7c573d6000803e3d6000fd5b50505050505b50505050565b611a90611eb6565b60065460408051630db03e1360e11b815290516000926001600160a01b031691631b607c269160048083019260c09291908290030181865afa158015611ada573d6000803e3d6000fd5b505050506040513d601f19601f82011682018060405250810190611afe9190612117565b90508060a0015180611b975750600660009054906101000a90046001600160a01b03166001600160a01b031663d513cc446040518163ffffffff1660e01b8152600401602060405180830381865afa158015611b5e573d6000803e3d6000fd5b505050506040513d601f19601f82011682018060405250810190611b8291906121fc565b6001600160a01b0316846001600160a01b0316145b611bd35760405162461bcd60e51b815260206004820152600d60248201526c63616e2d6e6f742d7374616b6560981b60448201526064016103b5565b60008360200151600a611be6919061237e565b6060830151611bf690600a61237e565b611c00908561238d565b611c0a91906123a4565b90508160600151600a611c1d919061237e565b826040015167ffffffffffffffff16611c36919061238d565b81600354611c4491906123c6565b1115611c7e5760405162461bcd60e51b815260206004820152600960248201526807661756c742d6361760bc1b60448201526064016103b5565b60008060035411611c8f5781611ca9565b600154600454611c9f908461238d565b611ca991906123a4565b90508160016000828254611cbd91906123c6565b925050819055508160036000828254611cd691906123c6565b925050819055508060046000828254611cef91906123c6565b925050819055508160026000828254611d0891906123c6565b90915550506001600160a01b0386166000908152600b60205260408120600101549003611dcb576005546001600160a01b038781166000818152600a602090815260408083209590955584516080810186528381528082018881528187018881524263ffffffff1660608401908152958552600b90935295909220915182546001600160a01b03191694169390931781559251600184015590516002830155516003909101805464ffffffffff191664ffffffffff909216919091179055611e5b565b6001600160a01b0386166000908152600b602052604081206001018054849290611df69084906123c6565b90915550506001600160a01b0386166000908152600b602052604081206002018054839290611e269084906123c6565b90915550506001600160a01b0386166000908152600b60205260409020600301805464ffffffffff191663ffffffff42161790555b856001600160a01b03167f5d9acaa2560e91d3cbf2eb6b4328c114e3c6c1c03123aeff15ab0c439523312885600454604051611ea1929190918252602082015260400190565b60405180910390a25050506110886001600055565b600260005403611f085760405162461bcd60e51b815260206004820152601f60248201527f5265656e7472616e637947756172643a207265656e7472616e742063616c6c0060448201526064016103b5565b6002600055565b6000818311611f1e578161112a565b5090919050565b6001600160a01b0381168114611f3a57600080fd5b50565b6040805190810167ffffffffffffffff81118282101715611f6e57634e487b7160e01b600052604160045260246000fd5b60405290565b60ff81168114611f3a57600080fd5b8015158114611f3a57600080fd5b600060608284031215611fa357600080fd5b6040516060810181811067ffffffffffffffff82111715611fd457634e487b7160e01b600052604160045260246000fd5b6040529050808235611fe581611f25565b81526020830135611ff581611f74565b6020820152604083013561200881611f83565b6040919091015292915050565b60008060008060c0858703121561202b57600080fd5b843561203681611f25565b93506120458660208701611f91565b92506080850135915060a085013561205c81611f25565b939692955090935050565b60006020828403121561207957600080fd5b813561208481611f25565b9392505050565b600080600060a084860312156120a057600080fd5b83356120ab81611f25565b92506120ba8560208601611f91565b9150608084013590509250925092565b600080604083850312156120dd57600080fd5b8235915060208301356120ef81611f83565b809150509250929050565b805167ffffffffffffffff8116811461211257600080fd5b919050565b600060c0828403121561212957600080fd5b60405160c0810181811067ffffffffffffffff8211171561215a57634e487b7160e01b600052604160045260246000fd5b604052612166836120fa565b8152612174602084016120fa565b6020820152612185604084016120fa565b6040820152606083015161219881611f74565b6060820152608083015163ffffffff811681146121b457600080fd5b608082015260a08301516121c781611f83565b60a08201529392505050565b634e487b7160e01b600052601160045260246000fd5b8181038181111561112d5761112d6121d3565b60006020828403121561220e57600080fd5b815161208481611f25565b6020808252600c908201526b1d5b985d5d1a1bdc9a5e995960a21b604082015260600190565b6020808252600f908201526e696e76616c69642d6164647265737360881b604082015260600190565b60006040828403121561227a57600080fd5b612282611f3d565b82518152602083015160208201528091505092915050565b600181815b808511156122d55781600019048211156122bb576122bb6121d3565b808516156122c857918102915b93841c939080029061229f565b509250929050565b6000826122ec5750600161112d565b816122f95750600061112d565b816001811461230f576002811461231957612335565b600191505061112d565b60ff84111561232a5761232a6121d3565b50506001821b61112d565b5060208310610133831016604e8410600b8410161715612358575081810a61112d565b612362838361229a565b8060001904821115612376576123766121d3565b029392505050565b600061112a60ff8416836122dd565b808202811582820484141761112d5761112d6121d3565b6000826123c157634e487b7160e01b600052601260045260246000fd5b500490565b8082018082111561112d5761112d6121d3565b6001600160a01b0393909316835260208301919091521515604082015260600190565b60006020828403121561240e57600080fd5b815161208481611f74565b602081016002831061243b57634e487b7160e01b600052602160045260246000fd5b91905290565b60006040828403121561245357600080fd5b61245b611f3d565b8251815261246b602084016120fa565b6020820152939250505056fea2646970667358221220b68e95bd2fa37e85be13031f1111cc390499652860c56214bd3c9c7ce646b3fd64736f6c63430008130033",
  "linkReferences": {},
  "deployedLinkReferences": {}
}